:020000040800F2
:10000000F0210020018D0008595400085B540008BD
:100010005D5400085F5400086154000800000000AF
:100020000000000000000000000000006354000811
:100030006554000800000000675400086954000877
:100040001B8D00081B8D00081B8D0008974C0008B5
:100050001B8D00081B8D0008855400081B8D0008AF
:100060001B8D0008955400081B8D00081B8D00088F
:100070001B8D00081B8D00081B8D00081B8D0008C0
:100080001B8D00081B8D00081B8D00081B8D0008B0
:10009000595800081B8D00081B8D0008A554000846
:1000A0001B8D00081B8D00081B8D00081B8D000890
:1000B000714A00081B8D00081B8D00081B8D00086D
:1000C0001B8D00081B8D00081B8D00081B8D000870
:1000D0001B8D0008934F00081B8D00081B8D000826
:1000E000735400081B8D00085D58000800F002F8EA
:1000F00000F06DF80AA090E8000C82448344AAF155
:100100000107DA4501D100F062F8AFF2090EBAE852
:100110000F0013F0010F18BFFB1A43F0010318473B
:10012000ACBD0000CCBD00000A444FF0000C10F83C
:10013000013B13F0070408BF10F8014B1D1108BF65
:1001400010F8015B641E05D010F8016B641E01F805
:10015000016BF9D113F0080F1EBF10F8014BAD1C55
:100160000C1B09D16D1E58BF01F801CBFAD505E073
:1001700014F8016B01F8016B6D1EF9D59142D6D3CD
:10018000704700000023002400250026103A28BFF5
:1001900078C1FBD8520728BF30C148BF0B607047F9
:1001A00066290BF09582642908F0C086782908F04A
:1001B000F986002070471FB509F05EFB040000209F
:1001C00000210AF047F9E0601FBD10B510BD09F02D
:1001D0005BFC1146FFF7EFFF00F0A7F809F079FC90
:1001E00003B4FFF7F2FF03BC04F064FEEC48ED4AF1
:1001F00080790229506006D1032802DD48F204000C
:1002000001E040F4004001F012BB014600204A0624
:1002100000D50120890600D5801C70473EB52020FE
:1002200004F0E9FA02F003F9DF4CA04214D0DF4DEC
:100230001021284607F075FA012004F02AFE10214B
:10024000284607F06CFA072004F023FE02F0EFF8CE
:10025000A0420FD103F0C7FE04F048FB02F098F86B
:10026000002807DB082004F0C6FA02F0E0F8054693
:10027000A04201D000203EBDCA4C6078C10601D426
:10028000012100E00221E160217BFFF7AFFFE06880
:10029000022804D16068032801DD0020E060E068E6
:1002A00001F084FB6078FFF7B0FFBE49A06000EB6F
:1002B0008000183111F810208DF8002001EB40016A
:1002C0006261CA788DF801204A788DF802204A7957
:1002D0008DF805208A798DF806200A89ADF8082066
:1002E0008A788DF8032009798DF80410AD494031E2
:1002F00001EB4001684602F09FF828463EBD012010
:1003000002F01EBB10B5AA4C03F09FFB2021204633
:1003100007F0F1F90128F7D010BD4FF4805001F03B
:100320008DFA022004F0B5FDFBE72DE9F84F4FF4FC
:10033000E13004F0C9FD04F019F904F084FA04F086
:1003400041FB41F61F4140F2E73004F063FB4FF4FC
:100350007A7004F09EFD04F071F805F017F9974CDF
:100360008223944A9449204604F04EFE924801228A
:100370008021001F08F0F5FB204604F06AFE00F023
:10038000DCF904F039FCDFF81882B8F8040004F056
:100390004DF8844F01268A4D78704FF4FA740CE0C2
:1003A0002E70204604F075FD00F078FA85A008F064
:1003B00073FD212183A005F006F978780028EFD09D
:1003C00000242C70B8F80610B846787800F021FAAE
:1003D0004FF0E02A4FF40009CAF88091BFF34F8F25
:1003E000BFF36F8F042004F004F93878FFF716FF8D
:1003F00030B31D272E70322004F04BFD7F1EF9D242
:100400002C70042004F0F5F8CAF80091DFF8D8A1A8
:10041000DFF8D8B14646D04655469AF8DB7504F069
:1004200036F9D5F8DC155D46A0EB01098BF80040E4
:1004300002F0ACF901F0BEFAF060012F06D021E025
:10044000042004F0EEF80020BDE8F88FB8F80011A1
:100450004746494516DA01210F2002F02BFB012106
:10046000192002F027FB01210A2002F023FB87F864
:10047000E040F068012850D003F0B4FA062078700C
:1004800087F8DB4501F09AFA070037D04B4804F0B3
:10049000E0FD01F09BFA01F09EFA804601F0A0FA1F
:1004A00002F076F8F06801283BD0404602F066F88A
:1004B00002F076FA02F077FA02F078FA2C70012F47
:1004C0004FF0000030D002F079F8DFF82481C8F84E
:1004D0000000012002F072F8464F3860022002F05E
:1004E0006DF84549086000903B6844A13148D8F850
:1004F000002008F0DDFC287001F045FA297849B1A8
:100500003069E8B304F0C3F8316901F57A718842C3
:1005100000D3346100F0C2F97DE7334802F080F87F
:10052000AEE702F027F8C3E702F048F80A2790FB8D
:10053000F7F1DFF8E8900120C9F8001002F03EF86A
:1005400090FBF7F1DFF8D8800220C8F8001002F025
:1005500035F890FBF7F0334F33A138600090D8F8AE
:1005600000301448D9F8002008F0A2FC28703A683E
:10057000D8F80010D9F8000004F0C1FB314800E0C1
:100580000AE0D0E900230B48297808442EA108F09E
:100590008FFC29780844AEE7064805F014F8B9E75F
:1005A000840B0020000000203001CADE000801405A
:1005B000000C014040020020043801404400024089
:1005C00084000020C7EBB7A2CBCD41542B5153453B
:1005D00054D6B8C1EEB6D4555742BDF8D0D0C5E414
:1005E000D6C30D0A00000000380300206800002078
:1005F0009000002094000020980000202444303116
:100600005B256C645D204430325B256C645D204466
:1006100031325B256C645D230D0A0000BC000020B4
:10062000C0000020C40000204044315B256C645DA4
:100630002044325B256C645D2044335B256C645D33
:10064000210D0A00B4000020245825645925642394
:100650000D0A000010B50446FEA108F093FD08B194
:10066000032010BDFEA1204608F08CFD08B1042037
:1006700010BDFEA1204608F085FD08B1052010BD83
:10068000FDA1204608F07EFD08B1062010BDFDA1A9
:10069000204608F077FD08B1072010BDFCA12046D8
:1006A00008F070FD08B1082010BDFCA1204608F03C
:1006B00069FD08B10A2010BD2078642802D1607855
:1006C00065280AD0F8A1204608F05CFD98B3207A8E
:1006D000462804D0532802D02DE0022010BD607AB5
:1006E000322801D0352826D1A07A2D2823D1E07ACE
:1006F000412801D054281ED1A27B0D2A11D1E17BC3
:100700000A290ED1217B303909290AD8617B392980
:1007100007D8302905D3412801D134290BD20B2029
:1007200010BD617B0D2906D10A2A04D1217BA1F1DC
:100730003002092AEFD90F2010BDF8B503F068FE8A
:10074000DC4808F0A9FBDC4808F0A6FBDB4808F011
:10075000A3FBDB4808F0A0FBD74808F09DFBD54879
:1007600008F09AFBD74FD8A0798808F095FBDC4DAC
:10077000DCA095E80E0008F08FFBCE49E14808F0B8
:1007800097FBE14CC0B2DF4E20703044CA4908F0FC
:100790008FFB21780844C0B220703044DB4908F058
:1007A00087FB21780844C1B22170304604F00BFF6A
:1007B000C349304608F07CFBC0B220703044BE49CB
:1007C00008F076FB21780844C0B220703044B94963
:1007D00008F06EFB21780844C1B22170304604F065
:1007E000F2FE7A88CAA1304608F062FBC0B22070DF
:1007F000A9680091D5E900233044BAA108F058FB5C
:1008000021780844C1B221703046BDE8F84004F0B8
:10081000DABE2DE9F04106460F46C3A008F03CFBC6
:10082000C1A1B84808F044FB0446B64D700605D592
:10083000C0A008F031FB2819BEA104E0BFA008F059
:100840002BFB2819BDA108F033FB0444B00605D5E5
:10085000BDA008F021FB2819BBA104E0BDA008F051
:100860001BFB2819BBA108F023FB0444F006394602
:1008700006D5BBA008F010FB28193A46B8A105E040
:10088000BAA008F009FB28193A46B8A108F010FBF5
:100890000119BDE8F0419B4804F095BE2DE9FF5FCA
:1008A000984800251E21823004F07BFE10F0FF0FD7
:1008B0007DD094488230FFF7CDFE032806D1FFF7A4
:1008C0003CFF90481E21823008F0E5FC8D488230C4
:1008D000FFF7C0FE042809D17A48C1880079FFF7E4
:1008E00098FF88481E21823008F0D5FC8548823068
:1008F000FFF7B0FE844C052839D19F4FB8880AF025
:100900009CF86FF00B0B5A460AF016FF4FF0663258
:100910009A4B0AF0E1F881468A4678880AF08DF809
:100920005A460AF009FF4FF06632944B0AF0D4F8A9
:100930000646884638880AF080F85A460AF0FCFED7
:100940004FF066328D4B0AF0C7F88DE8400702463B
:100950000B468BA16B4808F0ABFAC1B22170694815
:1009600004F031FE67481E21823008F094FC65488F
:100970008230FFF76FFE02280BD11121874804F067
:1009800022FE6D1C0A2DF8DB5E481E21823008F025
:1009900082FC5C488230FFF75DFE062815D180A1FD
:1009A000584808F085FAC1B22170564800E050E07E
:1009B00004F009FEC82004F06CFA52481E2182306F
:1009C00008F069FC052004F059F94E488230FFF721
:1009D00041FE072810D175A14A4808F069FAC1B252
:1009E0002170484804F0EFFDC82004F052FA454851
:1009F0001E21823008F04FFC42488230FFF72AFE69
:100A0000082817D03F488230FFF724FE0A281FD05D
:100A10003C488230FFF71EFE0B281AD1C82004F094
:100A200038FA3848823003F058FD00BF03F04FFD1C
:100A300000F0E4F860A1334808F03AFAC1B221703E
:100A4000304804F0C0FDC82004F023FA1E21B9E0AC
:100A5000BCE0D1E041542B5645523F0D0A00000046
:100A600041542B494E463F0D0A00000041542B4291
:100A700041543F0D0A00000041542B534C45500D8A
:100A80000A00000041542B544553540D0A00000045
:100A900041542B535441520D0A00000041542B5233
:100AA0005345540D0A00000041542B515345543D09
:100AB00000000000B8BD000898BC000828BD000870
:100AC000E0BC0008840B00205557422046313033EB
:100AD00020BFAABBFAB4CECAFD3A2025640D0A0095
:100AE000780B002050726F6475637420532F4E3A58
:100AF00020253038782D253038782D253038780D60
:100B00000A000000400200206800002070BD0008BC
:100B1000555742204631303320BFAABBFAB4CECA63
:100B2000FDA3BA25640D0A00555742463120494EAF
:100B3000464F3A00362E384D2C2000003131306BB4
:100B40007062732C200000004368616E6E656C203B
:100B5000352C20004368616E6E656C20322C2000BD
:100B6000416E63686F722025640D0A00546167202E
:100B700025640D0A000000008800002066660A4017
:100B8000426174746572793A20252E32662C252EC6
:100B900032662C252E32660D0A00000070000020FF
:100BA0004F4B2B534C45500D0A0000004F4B2B541C
:100BB0004553540D0A0000004F4B2B535441520D26
:100BC0000A000000144808F066FB31E7124813A140
:100BD000823808F06DF9C1B20F482170823804F0F4
:100BE000F2FCC82004F055F91E210B4808F053FB15
:100BF0000D490020088019E7BDE8FF9FBFF34F8F24
:100C00000A4801680A4A01F4E06111430160BFF338
:100C10004F8F00BFFDE70000C20200204F4B2B5258
:100C20005345540D0A0000009A0B00200CED00E023
:100C30000400FA05412100F8601F88214170B0F8D6
:100C40006C10C170090A017100218170704770B584
:100C50000E4604460025B0F8C800294602F0ADFA59
:100C6000012E02D1A06D03F0A3F894F8E000304308
:100C7000C0B203F0A2F830B1D4F858010125401CED
:100C8000C4F8580106E003F002FDC4F8DC050120B9
:100C900084F8DB05284670BD2DE9F05F4FF00009B0
:100CA000984693460F4606464C46FC4D4FF0010AC7
:100CB00017E000BF56F82410A94204D0204600F0E7
:100CC000F3FD012812D098F800100AFA04F08143CD
:100CD00088F80010204600F049FE00BF46F8245076
:100CE000641CBC42E6DB4846BDE8F09FD946F5E708
:100CF0002DE9F04F0446437800F1BF0997B0F23078
:100D00000F90884604F59070FF220127002604F119
:100D100060014FF0020B04F2E15A04F180050D90DE
:100D2000092B40D2DFE803F005BFE4F43FF3F2F112
:100D300078002078002860D0012802D0022832D123
:100D400032E0182002F0ACFAB4F8CC0002F0C3FA9A
:100D5000E08CA4F8BF00484602F0C7FAE08CC4F863
:100D60006C0102F0BDFA84F802B0677084F8E2709A
:100D700084F8F46040F64115C4F80C6102F07BF889
:100D800008B141F64115A07A042801D145F080054B
:100D90000721284602F029FD2046FFF74BFF03F00C
:100DA00076FCC4F8E8003FE2E08CA4F8BF004846B7
:100DB00002F09BFAB4F8CC0002F08DFAE08C00F05F
:100DC0001F0184F8BE1002F08BFAE08CB0F5004FE2
:100DD00001D184F87471002002F062FA002002F060
:100DE000B2FD06206070002003F060F8002003F0E0
:100DF00087F82046FFF71EFF16E2002002F050FAA7
:100E0000002002F0A0FD002003F050F8002003F0C5
:100E100077F80620607007E20A2001F070FC007885
:100E2000042871D1666084F8E260A0786070A670D2
:100E300003F02DFCC4F8E800032003F0F2FB984F08
:100E40001021384606F06DFC964D0120C5F8E46689
:100E500003F06EFD022004F01CF8D5F8E40600282B
:100E6000FDD0002003F064FD1021384606F057FC49
:100E700001F0E5FE01F0E3FE01F0E1FE01F0DFFE2E
:100E800001F0DDFE032003F0B4FB012002F020FF9F
:100E9000A08B02F011F8484602F027FA01F070FD2D
:100EA00001F058FDD2E3A07802281ED194F8E21098
:100EB000D9B114F8F40F401C04F80C09082044F8C8
:100EC000E4BC04F8E70C02F0D3FB012204210F9BE1
:100ED0000D98FFF7E1FEE067A07AE072A67203F0DA
:100EE000D6FBC4F88800E83CB0E36070A670ADE3C0
:100EF000207801280DD000BF94F8F80084F86A002B
:100F00000AD14FF0810009E09FE310E102E1A4E083
:100F100058E094F8F400F1E74FF0710084F86900AC
:100F20004FF00D03A4F8C83094F8CA0084F86200AA
:100F300000F1010084F8CA0094F8BF0084F867004B
:100F400094F8C00084F8680084F8652084F866206E
:100F50004FF00002184604F14A0402F01DF9C820BF
:100F600002F0F1FC14F84A1D4FF6FF7001291ED063
:100F700094F8F82002F80A6084F8E1B0216D00EAE4
:100F8000410000BF02F092FF84F8F26084F8F16043
:100F900084F8E0B05D46B4F8C800002102F00DF915
:100FA000022002F00AFF05206070E5704DE394F81E
:100FB000F420042102F80A6084F8E110216D00EAAF
:100FC0008100DFE72078012809D000BF94F8F800FD
:100FD00084F86A0006D100BF94F8F20004E094F8A7
:100FE000F400F5E794F8F10084F8890002D14FF09D
:100FF000820001E04FF0730084F869004FF02C0389
:10100000A4F8C83094F8CA0084F8620000F1010026
:1010100084F8CA004FF00002184604F1C20402F03E
:10102000BBF8A677C23C01212046FFF710FE50B165
:101030002078012803D0204601F0E2FA06E3677029
:1010400084F802B002E3052060700320E07020788D
:101050000128ABD184F8E270F7E20B2001F04FFBDE
:1010600001460078012808D000289FD0042801D02C
:101070006760EAE284F8F070E7E26660E278032AEB
:1010800012D094F8F000012815D0D1E90201022A0B
:10109000C4E9340117D00B2A36D037E0FFFFCDABBF
:1010A000000801403803002020780128C7D02046DE
:1010B00001F0A6FA2EE0204601F0B2FA84F8F060C2
:1010C00084F8E060C2E22278012A1AD0D4E90E2323
:1010D000801859416FF30800C9B2020A42EA01625E
:1010E000A265A28B101846EB0108C4F8840084F8AE
:1010F0008880286DC4F86B0095F8540084F86F0060
:1011000004E0D4E90C23E3E70420E07006206070DB
:101110004FF0000894F8E00090B184F8E060207887
:1011200000B1676007206070B8F1000F86D05FEAF9
:10113000080073D0022807D0B8F1040F8CD170E2F8
:10114000002002F08DFEEAE70F2001F0D8FA00211E
:1011500005460591069107910891084684F8E31029
:10116000697F01F0CC01882930D08C291FD0C82993
:1011700012D0CC2936D1D5F829000590D5F82D000C
:101180000690D5F821000790D5F82500089095F82D
:10119000310005F1310625E0D5F823000590D5F89A
:1011A00027000690B5F82100ADF81C0009E0B5F85D
:1011B0002900ADF81400D5F821000790D5F82500D6
:1011C000089095F82B0005F12B060BE0B5F82300ED
:1011D000ADF81400B5F82100ADF81C0095F8250015
:1011E00005F1250694F8E21009B92178B9B18146D4
:1011F0009DF81400029000F01F08CDF810804846BA
:1012000048F20101B9F1730F72D00EDC70284BD097
:1012100071281BD0B9F1720F0CD145E013E2062002
:101220006070002002F08FFB10E281280ED0B9F12F
:10123000820F5DD006206070002002F084FB287FC2
:101240008006F1D5102001F05AFAFFE1D5E902023B
:10125000C4E936027278B9F1810F0CD004982044A9
:1012600080F8F920E08C884210D1BDF81400B0F568
:10127000004F05D00AE008EB040080F8F520F1E704
:10128000B4F80011A8690844C4F80801A8780C282B
:1012900002D00E2805D0DAE0052060700920E07049
:1012A000CDE707206070CAE7F0794FF40043401C97
:1012B000C0B20490BDF8140098420BD120780128E8
:1012C00008D17078B27800EB022000B2C4F80C01AB
:1012D0000020E062A8780C2805D00E2822D02078C3
:1012E000012806D009E0052060700A20E07019E0AE
:1012F00070E094F8F220D2070CD1E28C8A4203D13C
:1013000094F8F110490705D49A4206D194F8F110E7
:10131000890702D50320607004E0012835D02046FB
:1013200001F06EF9B9F1700F35D094F8740100280E
:1013300085D094F8F8000499884280D184F8F900A7
:1013400010F80A009DF81C1003280298084400F0C9
:101350001F0004EB8000D6F80310C0F840119FD1A5
:1013600004F1F1030222042104F5A070FFF794FCBC
:10137000C4F8640194F8F10084F8F300002084F8C4
:10138000F100A869C4F8700159E7677084F802B0E9
:1013900084F8E270C6E794F8F4200499FD488A4284
:1013A0000FD104EB8802D6F80310C2F82011814255
:1013B000EAD094F8F20007FA08F7384384F8F2000C
:1013C0003DE704EB8801D1F820218242DCD0C1F84E
:1013D000200134E7002006900A900B9094F8BE306C
:1013E000864603EB8300C01DDFF8A8B396F82020E3
:1013F000C0B2B9F1820F03D0B9F1730F09D01CE06C
:1014000008EB040C96F801809CF8F5C0C4451ED189
:1014100013E004EB080C96F801809CF8F9C0C44571
:1014200015D194F874C1BCF1000F10D1B4F826C0E6
:10143000ACF50048B8F1030809D0B4F826C08C45D3
:1014400009D1BDF81410B1F5004F02D003E0062019
:1014500028E784F8E470012199401142C4F868C17A
:101460007ED0D5E902B10022A265B279304473463C
:1014700062F30703026890F804C00698D6F8027079
:101480006CF307008646D6F81BC0F07F0A9E6034D6
:1014900060F30706B2EB07086EEB0300C0B20A96D2
:1014A0001390236F743494E8C100D43C9E1B60EB0E
:1014B0000707BBEB030BFFB261EB0001CDE914673B
:1014C0000A9EC8B2BCEB0207169066EB0E06F0B29D
:1014D0000B90DDE9140109F05FFA064607913846E2
:1014E0000B9909F059FA3246079B09F0F5FA039176
:1014F0000A905846169909F04FFACDE9080140467E
:10150000139909F049FADDE9082309F0E5FA039B8C
:101510000A9A09F007FD09910C90DDE9140109F020
:101520003BFA064607915846169909F035FA3246B5
:10153000079B08F0D7FF0391089038460B9909F0F4
:101540002BFA07468B464046139909F025FA3A468E
:101550005B4608F0C7FF039B089A08F0C3FF00E052
:101560000AE002460B4609990C9809F077F809F051
:10157000CDF9C11783460B919DF815100298B9F16A
:10158000820F00EB0120C4F86C0113D0049904EB26
:101590008101C1F830B100BF94F8E00510F90A10DC
:1015A000002939DB494249B200F80A1094F8E005F5
:1015B00071B331E000F01F0004EB80000122C0F89D
:1015C00014B104210F9B0D98FFF766FBC4F864016A
:1015D00094F8F20084F8F300002084F8F2006D4AD9
:1015E0000B998BEA020008430ED094F8BE100298C3
:1015F00000F0A8F994F8BE100120884004EB8101A6
:1016000084F8F200C1F820B1A869C4F87001C3E7FA
:101610004FF0FF3100F80A1001F0B2F901F09AF929
:1016200015E7112001F06BF880780C2802D00F2804
:1016300005D00BE0052060700B20E07006E020462E
:1016400000F0EEFF02E0606800B96760606817B004
:10165000BDE8F08F2DE9F05F834600244E4803215A
:101660000AF098F805464D4909F0DAFD09F044FD05
:1016700008F05CFE09F04AF900EB4000000109F0B7
:1016800091FE0146284609F063FD454DE97B79B19D
:10169000444E012911D0444909F09CFE4FEA06014D
:1016A00009F056FD0746A87A10F0030F07D028E08E
:1016B0003E4909F08FFE3E49F2E73E49ECE78010D3
:1016C0000E281ED2DFE800F01D1B0F071D180D1D90
:1016D0001D150A1D1D124FF08B4412E04FF08A4475
:1016E0000FE0354C0DE04FF089440AE04FF088449C
:1016F00007E04FF0874404E04FF0864401E04FF0EC
:10170000854427492D48A846C97B6D7A405C09F07D
:1017100049FE012D21467DD009F01AFD284900BF60
:1017200009F058FE05460020394609F011FD09F080
:10173000E3FCDFF8909000224B4608F08FFF044650
:101740000E46284609F0D8FC8A460546224633460E
:1017500008F0C8FE1C4A1D4B08F080FF09F0D6F8BF
:1017600000F11006584609F000F900F087F84446E9
:10177000C4E90C010BEBDB70642101EB600009F0A4
:10178000F4F800F07BF8C4E90E01384609F0B4FC27
:1017900000221DE0FFFFCDAB000098410000A543F3
:1017A000380300200046A846C33500438534004670
:1017B000004528487B3480440000C044C4B8000879
:1017C000B341823F00408F400D71AC8BDB68F03F2E
:1017D0004B4608F043FF2A46534608F083FE09F0C3
:1017E00095F8E17B4FF49677F1B106F5967100BF5D
:1017F000C4E9141600F5967009F0B7F800F03EF849
:10180000C4E910012846514600F038F8000A40EAC1
:10181000016000E004E01030C4E91207BDE8F09F69
:1018200009F096FC03497BE706F52F71E0E70249D2
:10183000C8847047EA5B7E3F3803002010B5A0B033
:10184000044680220C49684607F0F3FC202002F091
:10185000D2FF204602F048FC002269467F2001F0BA
:101860009BFC00217F2001F0A8FC002002F0A5FADB
:1018700020B0002010BD000000BE000810B5F64AE0
:10188000F64B08F0EBFE0022F54B08F0E7FEBDE852
:10189000104009F0E1BE10B509F067F8BDE810404E
:1018A000ED4AEE4B09F018B92DE9F041074608461C
:1018B000FFF7F1FF4FF09852EA4B09F00DF9EA4AB1
:1018C000E94E02EBC70220360446C2E90001707CF3
:1018D0000D4660B1307A052806D0E44AE44B204634
:1018E000294608F0BBFE04E0E24AE34BF7E7204656
:1018F000294608F0C5FD0146727A307A02F092FC62
:1019000022462B4609F01CFA002204460D461346D7
:1019100009F0A6F806D30022D84B2046294609F044
:10192000D9F902D20020BDE8F081CF48203800EB81
:10193000C700C0E90045D6F86001401CC6F8600148
:101940000120F0E7C84AC84B203A02EBC102383BFD
:10195000D2E9001203EBC000C0E900127047C2498F
:10196000383901EBC001D1E900017047BE4B0021BD
:1019700003EBC003C3E90011BB4B203B03EBC000EA
:10198000C0E90011704730B5B7490020A1F120022D
:10199000BB4C01EBC0050023C5E9003402EBC005D8
:1019A000401CC5E900340428F2DB30BDAE492031CB
:1019B00008707047AC48203000787047AA49203141
:1019C0000022D1F86401C1F864217047A648203094
:1019D000D0F868017047A4482030D0F86C017047F7
:1019E000A1482030D0F8700170472DE9F0419E4C9D
:1019F00000262034354637460120E66502F09DFA80
:101A0000DD2084F8CA709F49464304EBC602C4F83F
:101A1000607100BF02EB85006D1CC0F82011042D21
:101A2000F8DB002002EB8003401CC3F814110328EC
:101A3000F8DB78E70FB4A02270B58B4C002520347A
:101A40008DF8AB5094F8D9052C9E00EB800004EB88
:101A5000401004A900F5BC7007F0EBFB94F8D90521
:101A600000EB800004EB401080F8786194F8D90511
:101A7000401CC0B284F8D905062801D184F8D95594
:101A800070BC5DF814FB014610B50F2001F01F017A
:101A9000012903D0022901D003290FD07249203136
:101AA00091F9E120002A09DDB1F85000504380B2DD
:101AB00002F0FCF9002002F0D3F90E2010BD10B5A1
:101AC000694C2034A16CA06D401A02F071F901201C
:101AD00002F0C6F9002813D0606D4FF6FF7101EADD
:101AE000400002F0E3F9002002F0BAF9B4F8540023
:101AF00080B202F0DBF9D4F85C01401CC4F85C0150
:101B000010BD2DE9F041584C00262034804694F851
:101B1000E1000F46354628B9002002F0C7F9002041
:101B200002F0EEF9F8070CD094F8E11020460129F4
:101B300000D1012690F8741179B994F8BE000328F9
:101B40000BD094F84400226C0306A16D43EA1220E6
:101B50000818A065F90708D00EE0002002F0A6F9E9
:101B6000002002F07DF90E20DDE694F9E11094F8F2
:101B7000BE201144032900D086B3022184F8E0106E
:101B800002F016F9032002F018F9A0B1002001F0CC
:101B9000DAFE84F8E050D4F85801401CC4F858012B
:101BA00094F84410226C0B0643EA1221A06D4918E8
:101BB0004018A06516E0206C94F84420000AA16D3E
:101BC00040EA026008184FF00C05A06502F05FFDC6
:101BD000C4F8DC05012084F8DB0506E0FFE7B8F176
:101BE000000F04D0FFF76BFF0E2528469BE6002070
:101BF00002F05CF9002002F033F9F5E70FB41A485F
:101C0000F0B520300146077891F9E1300024591EE3
:101C100044250426A5B04AB2022F35D0DFB180F8A2
:101C2000E1200020FFF72FFF8DF8AA008DF8A840D3
:101C30008DF8A950ADF8AC4090222EA968462496A4
:101C400007F0F7FA2AAF97E80F00FFF7F3FE25B089
:101C5000F0BC5DF814FB23E0FA48CE3B1835B13DEB
:101C600080842E4119DDB14118030020F6285C8FD5
:101C7000C2F5F43F295C8FC2F528F83F0088D340B5
:101C8000E0FFEF40FFFFCDAB002B06DD80F8E12049
:101C900000210846FFF735FFC6E7002002F006F9ED
:101CA00025B00020F0BC5DF814EB02F0D9B810B5F7
:101CB000FF4C01460F20E28C01F01F01B2F5004FEE
:101CC00013D10E2917D2DFE801F01607070707071F
:101CD0000707070707070707B4F8500080B202F0AC
:101CE000E5F8002002F0BCF80E20E18C48F2010279
:101CF000914200D10F2010BD2DE9F0470F46EC4C6A
:101D0000064600F01F014FF01308DDF82090D819A7
:101D1000A4F8C8800088A4F8650094F8BF0084F88F
:101D2000670094F8C00084F8680004EB8100214447
:101D3000D0F81471E76611F8F57F002584F870700B
:101D40000D709918497884F8F41094F8CA1084F842
:101D50006210491C84F8CA10D649D0F814218A426E
:101D60000CD094F8BE1001228A4084F8F22004EBD3
:101D70008101D0F81401C1F8200107E094F8BE00F9
:101D800004EB8000C0F8201184F8F250E06C01F000
:101D9000DAFD94F87401C8B1B4F8FE10B4F800315B
:101DA000B9FBF1F201FB1290F2B25A43101A4A0841
:101DB0005242824200DD0844C4F80C01B4F80C1110
:101DC00084F86A10090A84F86B1005E0C4F80C5115
:101DD00084F86A5084F86B50702084F86900002100
:101DE000404601F0EAF904F160014046BDE8F047E1
:101DF000002201F0D1B970B5AD4C13261944A4F8F6
:101E0000C8600988A4F8651094F8BF1084F86710BA
:101E100094F8C01000F01F0084F8681004EB8001F3
:101E20002044D1F83011E16610F8F91F002584F83C
:101E3000701005709818407884F8F80094F8CA007B
:101E400084F86200401C84F8CA0054F84C0F01F07A
:101E50007AFDC4F8C050A577E5777220607700213D
:101E600030464C3C01F0A9F904F160013046BDE870
:101E70007040002201F090B92DE9F04F0025D1B05B
:101E800004464E95AB46AA464F9502F000FC2C90B6
:101E900020792AA90F26DFF81892259102280DD063
:101EA000042875D09022684607F0C3F926AC94E860
:101EB0000F00FFF7A3FE51B0BDE8F08FE088ADF84A
:101EC0009C00207A412801D0612804D1607A00F07A
:101ED000CC00882832D063274EA801F0CCF9E188E5
:101EE0002DA80022019001F074F99DF838119DF899
:101EF00039019DF83B2101EB00209DF83A110904BE
:101F000001EB026108442A909DF83C012A9ACDE930
:101F10002805AA1840EB0501CDE9282100062A99D9
:101F2000022F00EB11202B908DF898508DF89970AE
:101F30008DF89A6008D090222599B4E74FF0090BEC
:101F40004FF0070A0227C7E726A901EB0A004FF066
:101F50000108027F407F02EB002086B299F8000062
:101F600000287DD04C46012804D194F8E120521E6F
:101F700084F8E12059440B7F732B0ED009DC48F222
:101F80000202702B7BD0712B08D0722B68D176E0C7
:101F90004BE1812B3ED0822BF8D11CE194F87431B7
:101FA000002BF3D1E38C93425AD801287ED006F05F
:101FB0001F020092487F62F31F108030C0B284F885
:101FC000E005204480F8E155032002F02AFB5A4640
:101FD00051463046019BFFF70EFF48F20100864252
:101FE00004D0B4F8540080B201F060FF2B98A065D3
:101FF000E08C811B01F01F0184F8E1100321FFF741
:1020000080FD00998DF89A0004EB81012948C1F800
:10201000300130E00128C9D006F01F000290497F4E
:1020200060F31F11C8B284F8E005204480F8E15540
:10203000032002F0F6FA2C9800905A46514630469A
:10204000019BFFF759FEB4F8540080B201F02EFF57
:102050002B98A065032084F8E100E08C022100E0C9
:10206000BBE0FFF74EFD8DF89A000298114904EB92
:102070008000C0F81411032002F0BBFAADE0012883
:102080002FD0032849D00E25702B68D094F8740106
:1020900030B194F8F800204490F8E115022973D08B
:1020A000E08C904271D194F8E00505E0A8E00000D2
:1020B00038030020FFFFCDAB011991F9E10500289D
:1020C00063DB401C81F8E10594F8E100401E89F8CB
:1020D000E100002001F0EAFE002001F034FC0121C3
:1020E0006AE094F8F400204490F8E115491C80F867
:1020F000E1153046FFF7C7FC8DF89A0006F01F0186
:1021000001EB8100C01D94F8F22008FA01F1C0B281
:102110000A4384F8F22020441AE094F8F80020449E
:1021200090F8E115491C80F8E1153046FFF7BFFD36
:102130008DF89A0006F01F0101EB8100C01DC2B2AC
:1021400094F8F10008FA01F1084384F8F100A018AE
:102150004E9940F8691F9DF83C1101713DE094F8DB
:10216000E005011991F9E10500280FDB94F9E12060
:10217000002A0BDD401C81F8E10594F8E100401EC7
:1021800089F8E100042117E00CE01BE0032002F0D5
:1021900048FA002001F08AFE002001F061FE8DF86F
:1021A0009A5068E7032180F8E11594F8F1000521C1
:1021B00040F0080089F8F1003046FFF7A2FC8DF8E6
:1021C0009A000AE0002001F071FE002001F048FEB4
:1021D0008DF89A5001E0012812D089F8E38090220E
:1021E00024976846259907F024F826AC94E80F0058
:1021F000FFF720FCD9F85401401CC9F854015AE6F5
:1022000014F8E10F9022401C20706846259907F0D1
:1022100010F826AD95E80F00FFF7F0FC84F8028077
:1022200054F8730F401C206045E68DF89A6099F8C9
:10223000000002280DD199F9E100002809DD401EB7
:1022400089F8E100B9F826000621FFF75AFC8DF85D
:102250009A008DF89850042000228DF89900ADF86E
:102260009C502892CDE92925249090222B956846F0
:10227000259906F0DEFF26AC94E80F00FFF7DAFBA5
:1022800019E6F0B5D1B000244E944F94077902F0CE
:10229000FEF9F94D2AAE2C90012F02D0062F44D022
:1022A00055E04EA800F0DCFF9DF838019DF839118B
:1022B0009DF83B2100EB01209DF83A11012709040C
:1022C00001EB026108442A909DF83C012A9ACDE96D
:1022D0002804A21840EB0401CDE928212A99000620
:1022E00000EB11202B9085F8E340B5F8C8208DF85D
:1022F00098408DF89A40ADF89C208DF8997005F1C2
:1023000060012DA806F095FF90223146684624977B
:1023100006F08FFF26AF97E80F00FFF78BFBD5F88D
:102320005001401CC5F8500111E006208DF898407E
:102330008DF899002490ADF89C4090223146684673
:1023400006F077FF26AF97E80F00FFF773FB85F8DD
:10235000DB4551B0F0BD70B50025C749DD2205FB56
:1023600002F001EBC00400BF05EB850004EB401058
:10237000A02100F5BC7006F0B0FF6D1C062DF3DB4C
:10238000002084F8D90584F8D80584F8DA0570BDF2
:102390002DE9F041B84C02200026207066703546C9
:1023A00084F8E26040F60F0000F04CFC0746032082
:1023B00001F08EFC38004FF0FF3701D0384615E4AD
:1023C000FFF713FB4DF6CA60A4F8CC0004F8E05FF9
:1023D000E5702571FFF7BFFF44F8215C44F81D5CF0
:1023E0000020E56201F091FA002001F07BFA012162
:1023F000A24801F08AFDAFF27F51AFF2791001F0EF
:10240000B3FA84F8FB54A567E567DD216770002007
:102410004E43E03C6FF0090204EBC6010B18401C70
:1024200083F8E125FF28F9DD00208D65C7E700F07E
:1024300006BC9149886270472DE9F0470E468E4DE3
:102440000178044629726178697361782973A178EB
:102450006972E178E9732279AA726279EA720020DE
:10246000A279AA73287422896A82022900D10120E4
:10247000687405F10800012100F05BFD2078804FB1
:1024800000EB400017F820002875297AA07800F0AA
:102490000AFD010001D0481C07D12078A17800EB8B
:1024A000400007EB800050F8211005F11400A961ED
:1024B00000F0EBFC00F0A6FC4FF6FF7902281CD0E0
:1024C00003281AD0A07800F060FE4008A88301D04D
:1024D000484506D1A0786B4901EB400030F8021C5A
:1024E000A983A88B00F0EEFCA88B00F0E5FCA88B7C
:1024F000E883207904281DD025E02878022810D010
:1025000000200027A846EA7B297A00F05FFCA8F8A3
:102510001C0008B14845E4D198F80800052802D00D
:1025200002E00120EDE70127574830F81700A8F82E
:102530001C00D6E7202002F05EF9002001F090F99F
:10254000082002F058F9F088FFF773FFB088A5F86B
:10255000FE003188A5F800113088E8627088A5F87F
:102560000201801E4843C5F804013089BDE8F047E8
:10257000FFF770B8404890F8F40070473E490844AF
:1025800090F8F50070473C49084490F8F90070470E
:102590003948D0F860017047374900F003004039EE
:1025A00001EBC001D1E900017047334900F003009D
:1025B000203901EBC001D1E9000170472E4900F03C
:1025C0000300403910B501EBC0010022D1E9000140
:1025D0002E4B08F081FABDE8104008F097B9264963
:1025E00000F00300203910B501EBC0010022D1E951
:1025F0000001264B08F070FABDE8104008F086B9DB
:1026000010B50621417002210170002001F04EFC3E
:10261000002001F075FCBDE81040002001F093B9E6
:1026200070B50446C06D401CE065002060602178F4
:10263000022909D0012503200129E1780BD00229C4
:102640002CD003293AD026E006206070BDE8704007
:10265000002001F02BBC0226022902D0032917D04A
:1026600019E094F8F210C90715D100BF84F8E250C0
:102670006570A67070BD00003803002080D0232450
:1026800010B8000870B8000874B8000800408F4007
:1026900001F0A8F9EAE76570A070EBE7E18C48F279
:1026A0000102914203D194F8F120520706D5B1F509
:1026B000004FF0D194F8F1108907ECD42046BDE822
:1026C00070409DE7CB4890F8DA1501EB810100EBF3
:1026D000411090F8780170470FB4A02270B5C54C36
:1026E00004A904F5A7602C9D06F0A3FD84F83855D5
:1026F00070BC5DF814FBC049A02206F09ABD2DE91C
:10270000F047BC4D8146002095F8D81505F5DD66EB
:1027100001EB810105EB411494F878715FB38046B9
:1027200094F87901707094F87A01B070B4F87C0173
:10273000B080D4E96001C6E90201D4F888013061B3
:10274000D4F88C017061D4F89001B06104F5CA71BD
:102750007F2205F2047006F06CFD377084F8139246
:1027600084F8788195F8D805401CC0B285F8D80562
:10277000062803D005E03070707004E0404685F80C
:10278000D88585F8DA059D48BDE8F0872DE9F04F3A
:10279000CFB00026FFF796FF0146DFF85882DD2014
:1027A000464308EBC6042046FEF7A2FA00210028A3
:1027B000F9D000254FF00109022812D118F836008F
:1027C00001280BD1D4E90A100144D4F80C010144CA
:1027D000C4F8EC10C4E9435084F8E49084F8E35062
:1027E000656094F8E400012802D0002876D08AE0E1
:1027F00094F8E300002805D118F83600012802D02B
:1028000002281FD07FE001F042FFD4F8E810401A00
:10281000D4F8EC10884276D984F8E4508DF89850BA
:1028200084208DF8990004202490ADF89C509022CB
:102830002AA9684606F0FDFC26AE96E80F00FFF7D1
:10284000F9F860E001F023FFB4F8FE104FF0020A3F
:10285000B0FBF1F201FB120094F8741103274FF062
:10286000800BD1B1D4F8041181424CD8172000F06C
:10287000B0F808F8367001F0B5F8FFF76CFD84F891
:1028800001A084F8659084F866B084F8E45094F868
:10289000F800401C84F8F8001BE0E08C48F20101CD
:1028A000884230D101F0F3FED4F8081188422AD3CF
:1028B000172000F08EF808F8367001F093F8FFF753
:1028C0004AFD84F801A084F865A084F866B084F815
:1028D000E450172000F070F815E0FFE718F8360014
:1028E000022810D194F8740168B101F0D0FEB4F858
:1028F000FE10B0FBF1F201FB1200B4F800118142AE
:1029000001D984F8E4904FB00020BDE8F08F10B5F5
:102910003B4C1021204604F004FF012002F0B9FADC
:102920001021204604F0FBFE052002F0B2FA002040
:1029300000F06BFF0021BDE81040481E01F0E5BA31
:102940002C49C1F8E40670472A490862012081F841
:102950002400704710B5274C94F82400012807D1B3
:1029600000211E20226A00F079F8002084F824005B
:1029700010BD204A9083D183012082F82500704742
:1029800010B51C4C94F82500012808D1E08B00F00C
:1029900099FAA08B00F090FA002084F8250010BD71
:1029A0001448808B70471348C08B70471149002230
:1029B00011F8F30F0A707047002809DB00F01F02BE
:1029C000012191404009800000F1E020C0F8001191
:1029D000704700280DDB00F01F02012191404009E3
:1029E000800000F1E020C0F88011BFF34F8FBFF3EB
:1029F0006F8F70473803002070080020200A0020E5
:102A00000008014008B551B140F0C0008DF8000049
:102A1000C8B27F2909D88DF8010002200DE040F0EE
:102A200080008DF80000012007E040F080008DF864
:102A30000100C8098DF802000320694601F088FCF6
:102A400008BD08B589B28DF80020120A8DF8012062
:102A500080B26B460222FFF7D5FF08BD38B50023D0
:102A60006C46E254120A5B1C042BFADB89B280B27A
:102A700023460422FFF7C6FF38BD08B551B140F028
:102A800040008DF80000C8B27F2907D88DF80100FA
:102A900002200BE08DF80000012007E040F08000EC
:102AA0008DF80100C8098DF802000320694601F085
:102AB0007CFC08BD38B54FF0FF3489B280B26B465C
:102AC0000422FFF7DAFF30B903216846425C491E51
:102AD00002EB0424FAD5204638BD38B504466B46CF
:102AE000022200213620FFF7C8FF0E2C2CD2DFE88F
:102AF00004F00F07152B2B2B2B1D392B2B44494E84
:102B000000208DF800009DF8010000F0FE0019E0A3
:102B10009DF8000000F0FC00401C04E09DF800005F
:102B200000F0FC00801C8DF800000DE09DF8000016
:102B300000F0B30040F048008DF800009DF801005F
:102B400040F080008DF801006B4601220021362004
:102B5000FFF758FF0122114636200DF10103FFF760
:102B600051FF38BD9DF8000000F0B3008DF8000063
:102B70009DF8010000F07F00E4E79DF8010040F0BF
:102B80000200DFE79DF8010000F0FD00DAE79DF8A4
:102B9000000000F0CF0040F02000C4E738B54FF649
:102BA000FF7489B280B26B460222FFF766FF30B92C
:102BB0009DF800009DF8011000EB012084B2204632
:102BC00038BD08B503208DF8010001208DF8000004
:102BD0006B46022200213620FFF714FF4FF400421B
:102BE00006212D20FFF72DFF012002F052F90120D0
:102BF000FFF773FF002008BD08B5010A8DF801102A
:102C00008DF800006B46022204212D20FFF7FAFE0A
:102C100003208DF800006B46012206212D20FFF7CE
:102C2000F1FE00208DF800006B46012206212D20C8
:102C3000FFF7E8FE0A212D20FFF73CFF08BD002129
:102C4000084637E72DE9FC410027064604208DF8A9
:102C500000003D46FE4C84F87C7084F82D70C4F86A
:102C6000807084F86970C4F8847084F87D70C4F84A
:102C70008870C4F88C706034FFF7E1FFF54944F8C0
:102C8000600D884202D08817BDE8FC810020FFF764
:102C900024FF6B46012200212420FFF7B3FE1E20F3
:102CA000FFF7AAFF1FFA80F84FEA1820A073300739
:102CB00004D50420FFF7A0FFC4F8840094F8840032
:102CC00010F0FF0F09D002208DF8040001AB0122A3
:102CD00012212D20FFF796FE01E0C4F88450062053
:102CE000FFF78AFF60600720FFF786FFA561A060FD
:102CF00004EB87007F1CC561042FF9DBB0071AD5F0
:102D0000A07B2746012804D81C20FFF775FFB86177
:102D100011E003280FD80D20FFF76EFFF8610E2099
:102D2000FFF76AFF38620F20FFF766FF78621D2009
:102D3000FFF762FFB862C848F207007800F01F0191
:102D400004D018F01F0284F82C2001D184F82C1034
:102D500070070CD55FF0000505F11000FFF74CFF80
:102D600004EB85016D1C48630C2DF5DB06E00020AB
:102D700004EB8001401C4D630C28F9DB300502D5C3
:102D8000FFF71FFF09E005213620FFF707FF20F4BA
:102D9000007205213620FFF754FE0120FFF79DFE4B
:102DA00000210420FFF786FE206300212620FFF784
:102DB00081FE40F4A82200212620FFF74FFE0022CA
:102DC00026213620FFF73DFE00205DE710B50023E9
:102DD0009F4C022902D005290FD107E0022A01D019
:102DE00012B10AE0E36908E0236A06E0022A01D092
:102DF00012B102E0636A00E0A36AC007C00EC340DC
:102E000098B210BD9248807B704708B56B4604228B
:102E100000212620FFF731FE9DF802006B4640F0AE
:102E200005008DF80200042200212620FFF7EAFDAC
:102E300008BD08B501438DF80010080A8DF801009F
:102E4000080C8DF802006B46032208212620FFF7AC
:102E5000D9FD08BD08B501438DF80010080A8DF8AA
:102E60000100080C8DF802006B4603220C2126207D
:102E7000FFF7C8FD08BD7648D0F884007047744855
:102E80004068704772488068704710B50446034632
:102E900001220B212A20FFF7B5FD62680021BDE861
:102EA00010401E20DAE56D4A515C00EB4100684994
:102EB00001EB8000006B704765490246C882002123
:102EC0001820BEE562490246888241F604012E20A0
:102ED000B7E538B504466B4601220E212B20FFF7DB
:102EE000CCFD9DF8000004F01F0120F01F000143FD
:102EF0008DF800106B4601220E212B20FFF782FD7A
:102F000038BD38B504466D208DF800006B460122AF
:102F100040F606012E20FFF775FD41F6060114B1BB
:102F200040F2076201E041F207622E20FFF789FDBF
:102F300038BD2DE9F84F8A4604460578417948485E
:102F40004FF00009C84630F8117061784048491EBA
:102F5000CEB2C0F88010042D77D0072D75D0002197
:102F60008B46217801733A49E279096B002A6DD0CA
:102F700021F4800101633648217A4FF440334173D4
:102F8000217A026B03EA01410A4302630021042013
:102F9000FFF764FD3A4642F604012E20FFF751FD8B
:102FA0003046FFF7AEFF2D4F2E490522785D00EB2E
:102FB0008000431807212B20FFF724FD264B012218
:102FC0000E212B20FFF71EFD2749012201EB0B03E9
:102FD0000B212820FFF716FD785D244951F82020A9
:102FE0000C212820FFF73AFDE079214901EB800010
:102FF000A17930F8112002212720FFF722FD1D487A
:10300000042130F816202720FFF71BFDE079F0B1EE
:10301000A07804284AD028208DF80000202206211C
:103020002720FFF70EFD6B46012226212720FFF700
:10303000E9FC1148E17800EB061050F82120082146
:103040002720FFF70BFD628918E022E023E027E04C
:10305000C00A00203001CADEB6B8000878B80008FF
:10306000F8B8000898B80008B7B8000880B8000899
:10307000C8B80008D4B80008D8B8000841F2410721
:10308000BA4203D020212720FFF7DBFC608990B1F2
:1030900016E0012164E741F48001FF0801636AE75B
:1030A000642206212720FFF7CCFCC2E710208DF810
:1030B00000000246B3E73A4620212720FFF7C1FC73
:1030C000FE4F0C2123203A68FFF7C8FC07EB4600AF
:1030D000042182882320FFF7B4FCA07958B1E0795D
:1030E000F7490122431800212120FFF78BFC4FF004
:1030F00003094FF0010805F00F00290740EA1160AD
:1031000061784FF4402202EA81410843920002EACA
:10311000095108434FF4003202EA4841084321793B
:103120004FF0F86202EA81510843617940EAC162D6
:1031300000211F20FFF792FCA07861780843E17915
:10314000000440EA4130DF4C40F4004200210820F6
:103150002261FFF783FC5FEACA7003D094F82C0069
:10316000FFF7B7FE5FEA8A700CD5A0693501E84029
:10317000C0F34E00FFF7A6FEA069E840C0F34E0082
:10318000FFF79AFE0020BDE8F88FCE490001103805
:103190008969C14088B2704710B514460244B2F53F
:1031A000806F02D94FF0FF3010BD0B46821E2146C2
:1031B0000920FFF727FC002010BDC24A10B5126994
:1031C00040EA8150024300210820FFF747FC00201D
:1031D00010BD30B414460A462146034630BC1120C7
:1031E0004BE470B5054616460C460720FFF775FC04
:1031F0002B46224631462520FFF73FFCBDE87040B4
:1032000008206AE438B504466B46022205211520E1
:10321000FFF733FC9DF800009DF8011000EB012042
:1032200080B207F00AFC6FF0050208F085FAC4E9E5
:10323000040100212E20FFF7B1FC2080231D08226D
:1032400000211220FFF719FC07211520FFF7A6FC2B
:10325000608000211020FFF72DFC000DA08138BDFB
:10326000034605220021172007E40121172021E44D
:10327000002117201EE40346052200211520FFF738
:10328000FCBB0121152015E40021152012E40121C9
:1032900006200FE40346052200210620FFF7EDBBC0
:1032A00010B5044600210420FFF704FC86490840BD
:1032B0003CB120F4FF7004F4FF71014341F00102BE
:1032C00001E020F001027F4800210263BDE81040C8
:1032D0000420FFF7C3BB024602210320FFF7B1BB66
:1032E000024600210320FFF7ACBB03460822002161
:1032F0000120FFF787BB0346082200210120FFF7CA
:10330000BCBB2DE9FC5F0746002603208DF80000BA
:10331000344635466B46012207212D20FFF772FB0C
:1033200007F00F0749F2202041F62401062F11D2A1
:10333000DFE807F01003080B0FED41F22405064605
:103340000E2407E00D46064603E00D4606464E24D1
:1033500000E003248DF80060300A8DF801006B4610
:10336000022200212D20FFF74DFB4FF008088DF8B9
:1033700000806B46012206212D20FFF743FB02202F
:103380008DF800006B46012207212D20FFF73AFB44
:103390004FF088098DF800906B46012206212D2000
:1033A000FFF730FB4FF0800A8DF800A06B4601223A
:1033B00006212D20FFF726FB00268DF800606B46C6
:1033C000012206212D20FFF71DFB05208DF80000AE
:1033D0006B46012207212D20FFF714FB8DF80040DA
:1033E000200A8DF801006B46022200212D20FFF7F4
:1033F00009FB8DF800806B46012206212D20FFF786
:1034000001FB4FF0040B8DF800B06B460122072141
:103410002D20FFF7F7FA8DF800906B460122062168
:103420002D20FFF7EFFA8DF800A06B460122062150
:103430002D20FFF7E7FA8DF800606B460122062188
:103440002D20FFF7DFFA01248DF800406B4622465D
:1034500007212D20FFF7D6FA8DF80050280A8DF8A5
:1034600001006B46022200212D20FFF7CBFA8DF8D8
:1034700000806B46012206212D20FFF7C3FA0A20A7
:1034800001F007FD8DF800606B46012207212D2019
:10349000FFF7B8FA8DF800406B46012206212D2077
:1034A000FFF7B0FA02208DF800006B4601220721D9
:1034B0002D20FFF7A7FA8DF800B007E0BCB8000890
:1034C000C4B80008C00A0020FFFF47F06B46012285
:1034D00007212D20FFF796FA642001F0DAFC8DF821
:1034E00000606B46012207212D20FFF78BFA8DF833
:1034F00000606B46012206212D20FFF783FA0A2087
:1035000001F0C7FC012F04D0022F02D007E02425D0
:103510001FE701AB012208212D20FFF7AEFA0020A2
:10352000BDE8FC9F7CB50D46044601AB0122082195
:103530002D20FFF7A2FA9DF80400800705D4F84873
:1035400005F0AAFC4FF0FF307CBD200E8DF8030083
:10355000200C8DF80200200A8DF801008DF8004043
:103560006B46042200212D20FFF74CFAC5F3022000
:103570008DF801008DF800506B46022204212D20A9
:10358000FFF740FA40208DF800006B46012206212B
:103590002D20FFF737FA00208DF800006B4601223E
:1035A00006212D20FFF72EFA012001F072FC01AB5D
:1035B000012208212D20FFF760FA9DF80400C007C2
:1035C000F2D000207CBD2DE9F041002605460F46D3
:1035D00034463046FFF781FA0120FFF792FE394664
:1035E0002846FFF79FFF3846FFF706FBA84200D1A9
:1035F0000126641C052C01D0002EF0D00420FFF71A
:1036000080FE3846FFF7F8FAA84201D1002401E015
:103610004FF0FF340020FFF774FE2046BDE8F08134
:1036200008B504208DF800006B46012202212C20F1
:10363000FFF7E8F900208DF800006B460122022117
:103640002C20FFF7DFF908BD08B500208DF8000039
:103650006B46012202212C20FFF7D4F902208DF8BD
:10366000000001466B4601222C20FFF7CBF908BD74
:10367000EAE7F8B5012604468DF800606B4632464D
:1036800000213620FFF7BEF900258DF800506B466B
:10369000012206212C20FFF7B5F98DF800506B466A
:1036A00001220A212C20FFF7ADF9FFF7B9FF8DF8B1
:1036B0000040200A8DF801006B46022208212C20D0
:1036C000FFF7A0F9FFF7ACFF8DF800606B46012211
:1036D0000A212C20FFF796F9FFF7A2FF8DF8005082
:1036E0006B46012200213620FFF78CF9F8BDF8B5B2
:1036F00004208DF800006B4601220A212C20FFF7E0
:1037000081F9FFF78DFF00248DF800406B46012200
:103710000A212C20FFF776F9FFF782FF01208DF8B0
:10372000000002466B4600213620FFF76BF90120AE
:1037300001F0AFFB76208DF800006B4601220421DA
:103740002C20FFF75FF980258DF800506B46012291
:1037500002212C20FFF756F988278DF800706B4660
:10376000012202212C20FFF74DF96B460122032193
:103770002C20FFF782F99DF800004FF6FF7101EA57
:10378000002675208DF800006B46012204212C20B4
:10379000FFF738F98DF800506B46012202212C20EA
:1037A000FFF730F98DF800706B46012202212C20C2
:1037B000FFF728F96B46012203212C20FFF75DF962
:1037C0009DF800508DF8004035436B4601220221E0
:1037D0002C20FFF717F98DF800406B4601220021DD
:1037E0003620FFF70FF92846F8BD38B50C460246DB
:1037F00000212C20FFF725F98DF800406B460122AF
:1038000006212C20FFF7FEF838BD10B50446042130
:103810003620FFF74FF914B140F4006201E020F4C4
:1038200000620421BDE810403620FFF717B970B5DB
:103830000D460646FFF703FA3A4CA0420ED000218F
:1038400033462A460846FFF718F9052001F021FB08
:10385000FFF7F5F9A04201D0A01770BD002070BDA0
:1038600038B500F00301012000EB411403218DF86D
:1038700001108DF800006B46022200213620FFF770
:10388000C1F8224612212D20FFF7DBF80120FFF7B7
:1038900024F938BD10B5044600210420FFF70AF9C9
:1038A0002149086314B120F4802001E040F4802015
:1038B000086302460021BDE810400420FFF7CEB89F
:1038C00010B5194C02021A20216B41F0804121638E
:1038D0000221FFF7B6F8226B0021BDE8104004205A
:1038E000FFF7BCB810490A6B20B122F4805008637E
:1038F000012003E042F480500863002081F82D008D
:103900000A6B00210420FFF7A9B808B500218DF843
:10391000001005490A6B48B142F0005008E0000071
:1039200080BE00083001CADEC00A002022F000502C
:103930000863000E8DF800006B460122032104206D
:10394000FFF760F808BD10B5044600211A20FFF704
:10395000B1F8C4F313026FF3130002430021BDE872
:1039600010401A20FFF77AB8FE4AC2E922017047D8
:1039700008B56B46012200210F20FFF77EF89DF865
:10398000000000F0010008BD08B5E0208DF800003F
:103990006B46012203213620FFF734F8F0208DF822
:1039A00000006B46012203213620FFF72BF808BDEB
:1039B0001CB56B46012203210F20FFF75EF89DF82E
:1039C000000000F0800100F04000B1EB400F08D093
:1039D00001208DF80400024601AB03210D20FFF702
:1039E00011F81CBD38B540208DF8000000210E20D4
:1039F000FFF760F8044600F081FC054600221146FE
:103A00000E20FFF72BF86B46012200210D20FEF758
:103A1000F9FFD54A00210F20FFF720F8FFF7C8FF74
:103A2000224600210E20FFF719F8284600F077FC07
:103A3000CC49002081F87D0038BD10B502210F204F
:103A4000FFF7ACF800F0100010BD2DE9FC5F4FF05F
:103A50000008C44D4646414685F8688095F82D001B
:103A600085F86E000F20FFF725F8C04A686605F15B
:103A700090031168044643F82100491C11600A298B
:103A800000DB1660A4F50000C01E03D1FFF7AAFFFB
:103A9000FFF77AFFDFF8CCA261054FF003070AF1C8
:103AA000640A4FF4807B1CD595F82D00C8B9C4F387
:103AB0004220072815D0FFF795FFFFF765FF286B19
:103AC00004F0F804800005D55A4600210D20FEF7C9
:103AD000B8FF06E085F86870D5F88C1009B150463B
:103AE000884760044FF0010972D5600571D5E00286
:103AF00012D5FFF777FFFFF747FF286B800007D548
:103B000002B05A46BDE8F05F00210D20FEF799BFD4
:103B100005F8687F696A6DE000211020FFF73EF824
:103B2000904BC0F309076C33022200211120FEF7ED
:103B3000A4FF687B08B907F07F07A5F86A70200723
:103B400005D595F86C00810644D5022842D004F0D2
:103B5000080085F86900022085F8680095F82D00B6
:103B6000A8B38DF804906B46012203210F20FEF7C5
:103B700084FF9DF8000000F0800100F04000B1EBF0
:103B8000400F07D104F4C04242EA080200210F208E
:103B9000FEF764FF286B800004D45A4600210D20F4
:103BA000FEF74FFFD5F88C1009B150468847FFF754
:103BB00044FF30B3FFF716FFFFF7E6FE286B8000E7
:103BC00004D55A4600210D20FEF73BFFA8E408E08B
:103BD00028E01DE085F869604FF0080885F87D60F1
:103BE000B9E704F4DE4242EA080200210F20FEF7A2
:103BF00035FF6AE00029E9D002B05046BDE8F05F29
:103C0000084701AB012203210D20FEF7FBFE87E4EC
:103C1000286B800001D4FFF7E5FEFFF7B5FE85F8BD
:103C20007D6075E7200616D5F82200210F20FEF7EB
:103C300015FF95F8690048B185F8696095F82D0081
:103C400020B995F87D0008B1FFF7CCFE85F86890A3
:103C5000D5F88810CEE7A00310D504F40032002177
:103C60000F20FEF7FBFE042085F86800D5F88C10C5
:103C700009B15046884785F87D6051E43C4814EA14
:103C80000002A3D000210F20FEF7E8FE85F87D603A
:103C9000286B800001D4FFF7A5FEFFF775FEE00456
:103CA00001D508200CE020040DD4E00301D5092043
:103CB00006E0600101D50A2002E0A00203D50B2036
:103CC00085F8680001E085F86870D5F88C1091E7F8
:103CD00038B50446C0076B464FF002024FF00001B2
:103CE0004FF026002DD0FEF7C8FE9DF801000122FE
:103CF00020F03C0040F014008DF801001146262011
:103D00000DF10103FEF77EFE6B46012202213620F3
:103D1000FEF7B3FE9DF800006B4640F084008DF87E
:103D20000000012202213620FEF76CFE10208DF8E3
:103D3000000001208DF80100022228216B46362068
:103D40000BE0FEF79AFE9DF801006B4620F0140090
:103D50008DF80100022200212620FEF753FEA00765
:103D60001AD507E0C00A0020F8FF27246C000020C5
:103D7000009027240F208DF800006B4601222A2195
:103D80003620FEF73FFE00208DF800006B46012232
:103D90002A213620FEF736FE38BD10B50020FEF78A
:103DA0009CFE00220421BDE810403620FEF749BEEB
:103DB000024601210A20FEF751BEF8B5002405464F
:103DC00026468DF800408007FE4F0BD580208DF8E9
:103DD00000006B46012200210D20FEF713FE01209A
:103DE00087F87D00E8079DF8000021D040F006002C
:103DF0008DF800006B46012200210D20FEF702FE27
:103E000003210F20FEF7CAFE10F4816F1AD0402064
:103E10008DF800006B46012200210D20FEF7F2FD17
:103E20000020FFF7F2FC87F87D604FF0FF3409E0D7
:103E300040F002008DF800006B46012200210D20A9
:103E4000FEF7E0FD2046F8BD41EA022121F0F00234
:103E5000C00703D000211D20FEF7F3BD0022F9E7C3
:103E600070B50446FFF7A4FD4FF480752A46E007BD
:103E700001D04FF4407200210D20FEF7E2FDE00773
:103E800012D003210F20FEF789FE10F4816F0BD0B2
:103E9000FFF7A8FDA00704D52A4600210D20FEF754
:103EA000D0FD4FF0FF3070BD002070BD38B5054625
:103EB0006B46012203210420FEF7DFFDC14C75B1E2
:103EC0002A4600210C20FEF7BCFD9DF8000040F0C2
:103ED00010008DF80000206B40F0805008E09DF845
:103EE000000020F010008DF80000206B20F08050C2
:103EF00020636B46012203210420FEF783FD38BDB9
:103F0000024624212720FEF79CBD70B50E460446CC
:103F100000F0F4F9054600210E20FEF7CBFD0EB1AE
:103F2000204300E0A043024600210E20FEF796FD4C
:103F30002846BDE8704000F0F2B938B504460220CA
:103F40008DF800006B46012200212F20FEF75AFD5C
:103F5000002C08D001208DF8000002466B4600219D
:103F60002F20FEF74FFD38BD10B5044604212F2049
:103F7000FEF7A0FDC0F30B012180C0F30B40608071
:103F800008212F20FEF796FDC0F30B01A180C0F39E
:103F90000B40E0800C212F20FEF78CFDC0F30B01BD
:103FA0002181C0F30B40608110212F20FEF782FD9C
:103FB000C0F30B41E181C0F30B00A08114212F203D
:103FC000FEF778FDC0F30B416182C0F30B00208245
:103FD00018212F20FEF76EFDC0F30B01A182C0F364
:103FE0000B40E08210BD38B500240094FFF7D5FEE9
:103FF000002211462C20FEF724FD6B4601220621EB
:104000002C20FEF7FFFCFFF71FFB6B46012203216C
:104010003620FEF732FD9DF800006B4600F00F00E1
:104020008DF80000012203213620FEF7EBFC012071
:1040300000F02FFF9DF800006B4640F0F0008DF877
:104040000000012203213620FEF7DCFC5D4880F8E9
:104050007D4038BD38B50446FFF79FFE5A4D5B4999
:104060000522285D00EB8000431807212B20FEF776
:10407000C9FC574B01220E212B20FEF7C3FC285D03
:10408000544951F820200C212820FEF7E7FC4FF47A
:10409000FF1200212820FEF7E1FC4F4A00212820D2
:1040A000FEF7DCFC22208DF800006B460122002187
:1040B0003620FEF7A7FC07208DF8000001226B4692
:1040C00011463620FEF79EFC002226213620FEF700
:1040D000B8FC13208DF800006B4601220C212A2029
:1040E000FEF790FC002038BD38B50446FFF755FEBA
:1040F0004FF4FF1200212820FEF7B0FC364A0021C1
:104100002820FEF7ABFC0220FEF7E7FC0D20FEF7AF
:10411000E4FC042C00D20424224600210A20FEF7ED
:104120009DFC10208DF800006B46012224212F20D9
:10413000FEF768FC38BDF8B5044680208DF8000015
:104140006B46012211212820FEF75CFC0A208DF825
:1041500000006B46012212212820FEF753FC0F209D
:104160008DF800006B46012212212820FEF74AFC40
:1041700000258DF800506B46012229462A20FEF7C3
:1041800041FC01208DF8000002466B4600212A20E8
:10419000FEF738FC012C27D00020FEF79EFC6B4672
:1041A000022203212A20FEF768FC0120FEF795FC7D
:1041B0009DF800609DF8014001228DF800506B468B
:1041C00000210BE0C00A002078B8000898B8000869
:1041D000B6B8000880B8000800FF5F002A20FEF78C
:1041E00011FC46EA0420F8BD012000F052FE6B46A7
:1041F000022203212A20FEF740FCD9E708B56B46CE
:10420000012204212A20FEF738FC9DF8000008BD99
:1042100008B56B46012203212A20FEF72EFC9DF8EB
:10422000000008BD70B5054616460024084606F095
:1042300063FF022207F080FA06F068FBFF2800DD2A
:10424000FF202A49012EA1F108020CD0042D2DD007
:10425000072D2BD0515D01EB810202EBC101244AF5
:1042600002EB410133E0042D0AD0072D08D0515D47
:1042700001EB810202EB41111C4A083211440FE0AC
:10428000495D1B4A01EB0111883A02EB810100E014
:10429000641C0A5D8242FBDBA4F11C001CE0641C70
:1042A0000A5D8242FBDBA4F1170015E0495D01EBDA
:1042B0008102C2EB81110E4A6832114400E0641C95
:1042C0000A5D8242FBDBA4F11E0005E0641C0A5D6E
:1042D0008242FBDBA4F1110007F064F806F00CFF4A
:1042E000BDE87040034A044B06F0F6BB32B9000843
:1042F00056BA00087B14AE47E17A843F10B5172008
:1043000000F026FA002809D04FF0E0224FF4000117
:10431000C2F88011BFF34F8FBFF36F8F10BD00281D
:1043200005D04FF0E0214FF40000C1F800017047C4
:104330000020704710B5344C0221204603F0A5FD43
:104340000028F9D00021204603F033FD002010BDE5
:104350002DE9F041984615460F4606460024FFF722
:10436000CDFF0246294810230360274806E0395D47
:1043700081810189C907FCD08189641CB442F6DBC4
:10438000002107E018F8014084810489E407FCD08B
:104390008489491CA942F5D31C48001F03601046BC
:1043A000FFF7BDFF0020BDE8F0812DE9F0411D467B
:1043B0001646884607460024FFF7A0FF024613482A
:1043C00010230360104808E018F804108181018967
:1043D000C907FCD081892970641CBC42F4DB002130
:1043E0000C4606E084810789FF07FCD087896F545B
:1043F000491CB142F6D30548001F03601046FFF781
:104400008EFF0020CFE7000000300140140801407B
:104410004C4801684C4801604A49091D09684160DF
:10442000484908310968816001207047AA21B1EB31
:10443000102F01D000207047C0B2704710B542491C
:10444000424C10222231204600F060FB3E4A4AF6E0
:10445000AA202232A2F116011388834217D01080BD
:10446000012353804B804FF42A4393808B8000209C
:10447000D080C88056201081312151813223938110
:10448000D08111822E2050823020908215E05088F9
:10449000401C5080488090888880D088C8801089CF
:1044A00008815089488190898881D089C881108A83
:1044B0000882508A4882908A8882234920461022A6
:1044C000BDE81040223100F02EBB002070471E498D
:1044D000102222311D4800F026BB30B4027A4AF681
:1044E0008021462A01D14AF6C021427A352A01D1DB
:1044F00041F02001C27A412A01D141F01001124B52
:1045000022339980427B0D2A02D1847B0A2C03D06E
:10451000847B0D2C03D00FE0007B30380BE0C47B94
:104520000A2C09D1007B6FF02F01303800EB80009E
:1045300001EB4000104481B2D98030BC212104A09D
:1045400001F041B8E8F7FF1F780B002000CC00080D
:104550004C6F61645F5557425F706172615F667254
:104560006F6D5F5553420D0A00000000F8B5012140
:104570001D2003F0A6FA0121404803F0F1F84FF4A2
:104580007070ADF8000010258DF8035003248DF8ED
:10459000024069463A4803F054F8EE02ADF8006074
:1045A000384F8DF803508DF802406946384603F0C5
:1045B00048F83146384603F0B4F80220ADF8000060
:1045C00028208DF803008DF802406946384603F034
:1045D00038F80820ADF800008DF803508DF802403F
:1045E0006946384603F02DF80821384603F097F85D
:1045F000F8BD01462248052912D2DFE801F0030583
:10460000070A0D00402109E0802107E04FF4807186
:1046100004E04FF4007101E04FF4707103F081B8D1
:10462000704701461648052912D2DFE801F003055C
:10463000070A0D00402109E0802107E04FF4807156
:1046400004E04FF4007101E04FF4707103F067B8BB
:1046500070470B4A01284FF01001104601D003F0BB
:104660005EB803F05EB8074A01284FF400411046D7
:1046700001D003F054B803F054B800000002300039
:10468000000C0140000801404FF0FF307047DB484C
:104690000068704770B5DA484FF47A710068B0FB73
:1046A000F1F0401EB0F1807F11D24FF0E024606144
:1046B00065170F21284600F090F90020A06107201F
:1046C00020610521284600F088F9002070BDFEE732
:1046D0001CB52020009000208DF8040008218DF8E2
:1046E00005108DF80600684602F0B0FC00201CBDE5
:1046F0007FB52024ADF80C4028208DF80F0003A9C9
:10470000C04802F09EFF0521012003F052F80094FA
:1047100000248DF8044008208DF8050001258DF84F
:104720000650684602F092FC4FF4C06002F0F8FABE
:1047300017208DF808000F208DF809008DF80A4029
:104740008DF80B5002A802F0F0FA04B0002070BD02
:10475000AD49024600200968114200D0012070478F
:1047600010B586B003F0A2F84FF48034204603F071
:10477000B6F803F0E1F828B3102002F0DDFC0220C7
:1047800002F0CAFC002003F00FF9002003F01AF930
:10479000A01103F010F9601003F029F94FF4E011B3
:1047A000204603F0EAF8012003F0EFF8392003F087
:1047B000AEF80028FAD0022003F0EAF803F0EFF890
:1047C0000828FBD1684603F033F90121080303F000
:1047D00078F90121880303F07DF901210D2003F010
:1047E00070F906B0002010BD884A118821F0380108
:1047F00001431180704730B5844D044685B028468A
:1048000003F036FA0021ADF800104FF48270ADF8D5
:104810000200ADF808106815ADF80A00ADF80410F4
:10482000ADF80C400720ADF80610ADF80E10ADF84D
:1048300010006946284603F03FFA0121284603F09C
:10484000B8FA05B030BDF0B5704E87B0304603F011
:104850000FFA0021ADF800104FF48270ADF802009D
:10486000ADF808107015ADF80A001024ADF804106A
:10487000ADF80C400720ADF80610ADF80E10ADF8FD
:1048800010006946304603F017FAA020ADF8140076
:1048900018208DF817005E4F03258DF8165005A9D6
:1048A000384602F0CEFE4020ADF8140048208DF8C6
:1048B000170005A9384602F0C4FEADF814408DF883
:1048C00017408DF8165005A9384602F0BAFE0021AF
:1048D000304603F0A6FA0121304603F06AFA1021AF
:1048E000384602F01CFF07B00020F0BDF8B50124E7
:1048F000ADF8004010208DF80300454E03258DF8DB
:1049000002506946304602F09CFE0121304602F01A
:1049100008FFADF8004000208DF803008DF802502C
:104920006946304602F08DFE022000F0B2FAF8BD72
:104930007FB501250024364A0826ADF8085030B36B
:1049400004208DF80B0002A9104602F07AFE002127
:10495000084602F02EFF8DF804408DF805600095A2
:104960008DF80650684602F071FB4FF4407002F07B
:10497000D7F906208DF80C000F208DF80D008DF86A
:104980000E408DF80F5003A802F0CFF97FBD8DF8CF
:104990000B4003208DF80A0002A9104602F051FED8
:1049A0008DF804408DF8056000958DF80640684646
:1049B00002F04CFB7FBD4FF0E020D0F80001C0F3C7
:1049C000C050704710B504F00BFAFFF7C9FEFFF7AF
:1049D00061FEFFF78DFE002010BD0907090E0028BB
:1049E00004DB00F1E02080F80014704700F00F00B5
:1049F00000F1E02080F8141D70470000D80000206E
:104A00002C020020000C0140000401400030014055
:104A1000000801407FB50C4605460121084603F019
:104A200059F8ADF800400020ADF80450ADF8020090
:104A3000ADF806004FF080446946204603F0EAFADC
:104A400001221146204603F0A3FD1C208DF80C0026
:104A500001218DF80D1003208DF80E008DF80F1038
:104A600003A802F062F90121204603F07CFD7FBD1E
:104A700070B501218C07204603F09FFF00282CD041
:104A80000121204603F0A5FF144C002520780A28B8
:104A900004D3E078B0B10020E07025702078401C8D
:104AA0002070E078FFF7DFFD6078012802D0A07861
:104AB000002812D0A078C0074FF0040004D0FFF700
:104AC00098FD03E00120E7E7FFF7ABFDA078401C6D
:104AD000C0B2A0700A2800D3A57070BD830000206A
:104AE000008870472DE9F04116460F460546002420
:104AF00008E000BF37F81410284602F024FC641CBC
:104B0000A4B2AD1CB442F5D3BDE8F08110B50023CA
:104B100006E000BF30F8024B21F813405B1C9BB24B
:104B20009342F7D310BD2DE9F05FA0F10064154664
:104B30008A468346B4F5803F53D202F006FBA70AAB
:104B4000C4F34806C6F50074A54200D82C46DFF829
:104B5000A49000BF4FF0006000EB872080464FF428
:104B600000722449FFF7D2FF00204FF6FF7106E0E4
:104B7000331839F813208A4203D1401C80B2A04276
:104B8000F6D3A04225D2404602F01AFB0020494647
:104B900007E000BF3AF810208319401C21F81320C9
:104BA00080B2A042F6D3134940464FF4007200BFD2
:104BB000FFF798FFA54210D0281B0AEB440AA34434
:104BC000002685B24FF400747F1CA542C2D82C4643
:104BD000C0E7224651465846EAE7BDE8F05F02F0DA
:104BE000C0BABDE8F09F13B5012201A9FFF79BFFF2
:104BF0001CBD0000BA0B002008B501214FF0C050C9
:104C000002F068FF012002F007FE02F0E1F8012047
:104C100002F002FF612002F07AFE0028FAD04FF481
:104C2000007002F0FCFE012002F0FEFE02F0F0FF38
:104C300002F0E8FF0121022002F092FF02F0E2FF01
:104C400049F6404002F0B9FF02F0DCFF03208DF886
:104C500000008DF8010000208DF8020001208DF881
:104C60000300684602F061F802F091FF1149084420
:104C700002F0B1FFBDE8084002F0C4BF10B5044621
:104C800002F085FF204402F0A6FF02F0BBFFBDE862
:104C9000104002F0E7BD10B5022002F0D2FF00285C
:104CA00006D0022002F0DBFFBDE810400220E5E75D
:104CB00010BD000080510100504800218161C16198
:104CC000704770B515460A4604461946104606F068
:104CD0004DFC014606F07EFB06462946204606F0BE
:104CE00045FC014606F076FB314606F031FA06F047
:104CF00003FA05F089FBBDE8704005F0C1BB2DE962
:104D0000FC5F914600FB00F801FB11823B49083132
:104D1000D1F800A0D1F804B00AFB0A20374A156880
:104D2000546805FB15030BFB0B3004FB140005F066
:104D30001CFE4FF0FF3206F0FFFC0F462F4909FB27
:104D4000198210310646D1F80090D1F8048009FB91
:104D5000092005FB150208FB082004FB140005F0E0
:104D600004FE4FF0FF3206F0E7FCCDE90001A8EBAE
:104D70000408AAEB050101FB08F1A5EB0902ABEB66
:104D8000040402FB041005F0F0FD054689462046A8
:104D900005F0EBFDDDE9002305F09EFE04468A46A2
:104DA000404605F0E2FD32463B4605F095FE2246C0
:104DB000534606F0B7F82A464B4605F04FFC04462A
:104DC0000D4600220E4B05F087FE32463B4605F0AD
:104DD000B7FF00220B4B05F041FC06460F4620466C
:104DE000294605F093FD054C3946183420603046BD
:104DF00005F08CFD6060BDE8FC9F00009C00002079
:104E00000088B3400088B3C010B56FF0040001F013
:104E1000CCFF254825490068B0FBF1F0C1B2244819
:104E200001EB41020170C2EBC1114FF6FF7202EAC1
:104E3000C101418010BD1E49097848434FF0E0216F
:104E4000486100228A61086940F001000861086930
:104E5000C30701D0C003FAD5086920F0010008613A
:104E60008A6170471249498848434FF0E021486100
:104E700000228A61086940F0010008610869C307DF
:104E800001D0C003FAD5086920F0010008618A61E9
:104E9000704710B50446FFF7FAFB0444FFF7F7FB31
:104EA000001B0028FADD10BD2C02002000127A0041
:104EB000C8000020704750490A885206FCD54E4A67
:104EC000C1B2121D11807047F0B5054687B00121AF
:104ED00044F2040002F0F5FD474E304603F07CFD3D
:104EE0007015ADF8100003248DF812401820434FC0
:104EF0008DF8130004A9384602F0A3FB3015ADF875
:104F0000100004208DF8130004A9384602F099FB24
:104F100025208DF814008DF815408DF816400120DD
:104F20008DF8170005A801F000FF0020ADF804007F
:104F3000ADF80600ADF80800ADF80C000C20ADF897
:104F40000A0000956946304603F076FD012240F2E2
:104F50002551304603F0EDFD0121304603F0DFFD21
:104F600007B0F0BD10B5244C0146204603F02DFEDD
:104F70008021204603F08AFE0028F9D010BD10B52C
:104F8000044602E0FFF7EEFF641C20780028F9D108
:104F900010BD70B5184C40F22551204603F080FE3C
:104FA000002823D0204603F014FEC2B214484188E2
:104FB0000B0417D44C044FF0000304D50A2A0DD17A
:104FC00041F4004115E00D2A11D0C1F30D040D4D3F
:104FD000491C89B22A554180C72900D9438041889C
:104FE000090403D5817801F03F01017070BD41F4DF
:104FF00080414180F3E70000003801400008014093
:10500000CC000020BA0F00202DE9F0410E460746E3
:1050100001211C461546084602F04AFD384601F0BB
:1050200023FF14481021802204801348C0E9021491
:105030000021C0E9041281615201C161C0E9081276
:105040008162C0E9006501463846BDE8F04101F0E3
:1050500078BF10B50446002101F09DFF0548018886
:10506000064801F0ABFF2046BDE81040012101F0E9
:1050700092BF0000D40000208410002044000240B1
:105080000260C160416081600020704770B50024FB
:1050900083680FE0C56806685B1C35449D4200D8F4
:1050A000C36845689D4207D011F8015B866835707A
:1050B0008360641C9442EDD3204670BD30B500235C
:1050C0000DE04468651C45602478CC54C4680568CC
:1050D0002C4445685B1CAC4201D8C46844604568F8
:1050E0008468A54204D0934202D204689C42E8D866
:1050F000184630BD10B50021426807E0C368046857
:10510000491C2344521C934200D8C26883689342CE
:1051100002D003688B42F1D8084610BDF0B5446850
:10512000059E05680AE027788F420CD0C768D0F842
:1051300000C0641C6744A74200D8C4688768A742BF
:1051400001D06D1EEFD28168A14228D0691C26D003
:10515000C768D0F800C0611C674409E0C16809E075
:105160000F7897420BD0C768D0F800C0491C67443D
:105170008F42F3D987688F4201D06D1EF0D28268CA
:105180008A420CD06A1C0AD0C268076817444A1CBD
:10519000974200D8C26801684D1B00210DE0002035
:1051A000F0BD00BF14F8017B5F54C768D0F800C0A1
:1051B000491C6744A74200D8C468944206D0B14253
:1051C00004D207688F4201D96D1EEBD242600846B7
:1051D000F0BDF0B54468066809E025788D420BD033
:1051E000C5680768641C3D44A54200D8C46885684A
:1051F000A54201D0761EF0D28568A54227D0751C45
:1052000025D0C56807682F44651C09E0C56809E01A
:105210002F788F420BD0C768D0F800C06D1C674450
:10522000AF42F3D98768AF4201D0761EF0D28168D1
:10523000A9420CD0711C0AD0C16807686D1C3944A2
:10524000A94200D8C56801688E1B00210DE000202E
:10525000F0BD00BF14F8017B5754C768D0F800C0F8
:10526000491C6744A74200D8C468AC4206D09942A2
:1052700004D207688F4201D9761EEBD2022908DCDE
:10528000C2680021641E944203D2C2680368D41825
:10529000641E44600846F0BDF0B54468056809E046
:1052A00026788E420BD0C6680768641C3E44A6422E
:1052B00000D8C4688668A64201D06D1EF0D281680D
:1052C000A1420CD06D1C0AD0C1680568641C294439
:1052D000A14200D8C4684168066800250DE000209E
:1052E000F0BD00BF11F8017B5755C768D0F800C06A
:1052F0006D1C67448F4200D8C168A14203D09D4213
:1053000001D2761EEED241602846F0BDF0B5446869
:10531000059E002705680EE0B94202D12778974222
:105320000FD014F8017BD0F80CC0D0F800E0F444A2
:10533000A44500D8C468D0F808C0A44501D06D1EAB
:10534000EAD28168A1420CD06D1C0AD0C168026803
:10535000641C1144A14200D8C46841680568002259
:105360000DE00020F0BD00BF11F8017B9F54C7681D
:10537000D0F800C0521C67448F4200D8C168A142D7
:1053800003D0B24201D26D1EEED241601046F0BD94
:105390000360B2FBF3F24260016100218160C160F1
:1053A000084670472DE9F041C5681746884604460F
:1053B000002614E060686D1C854200D30025A068BB
:1053C000A8420ED02069E168226801FB0200226831
:1053D000414603F0E9FE2168E5608844761CBE4240
:1053E000E8D33046BDE8F0812DE9F0410025904634
:1053F0000E4604462F4612E02069A168226801FB90
:1054000002012268304603F0CFFE20680644A068FF
:10541000401CA06061686D1C884200D3A760A06832
:10542000E168884204D06068A84201D94545E3D3C9
:105430002846D7E70021826805E04368491C521CD2
:105440009A4200D30022C368934202D043688B4241
:10545000F3D80846704700007047FEE7FEE7FEE716
:10546000FEE770477047704712480168491C0160A9
:10547000704710B5AFF30080BDE810404FF4005006
:1054800001F042BE10B5FAF73AFFBDE81040012026
:1054900001F03ABE10B5FAF735FFBDE8104008201C
:1054A00001F032BE10B5FAF72DFFBDE81040202004
:1054B00001F02ABED800002038B55E494FF4A06440
:1054C0002246A1F12000FFF7DBFD5B492246A1F552
:1054D000A260FFF7D5FD0121042002F0F2FA4FF49B
:1054E0008060ADF8000003208DF8020010208DF8D8
:1054F00003006946514802F0A4F84FF48024204686
:1055000001F002FE4E4908200C60487101208871AC
:10551000084601F09BFD38BD10B5002002F063FA8B
:105520000121BDE81040C80502F0D4BA4549032066
:10553000086070474448817A424809B1052100E07B
:1055400001210160704738B514208DF80000022059
:105550008DF8010000248DF8024001208DF8030031
:10556000684601F0E2FB2A208DF800008DF801402A
:10557000684601F0DAFB38BD304A00284FF48061FC
:10558000104601D002F0CBB802F0CBB810B5FFF74F
:1055900093FFFFF7C1FFFFF7D6FFBDE8104000F013
:1055A00017BF0A46014623482038FFF787BD0A4641
:1055B000014620482038FFF769BD0A4601461D48CC
:1055C0001038FFF77BBD0A4601461A481038FFF72E
:1055D0005DBDF0B500230A24302537261F4610E0B4
:1055E000B4EB107F02D905EB107C01E006EB107CD8
:1055F00001F813C001EB430C00015B1C8CF8017037
:10560000DBB29342ECD3F0BD104810B50168001D29
:105610000468001D006808180AD008220C49FFF72A
:10562000D8FF0B4920460422BDE810401031D0E7D6
:1056300010BD0000D0100020D01500200020014037
:10564000DC000020EC010020701B0020E8F7FF1FA9
:10565000E600002070B5294D2878012815D1402199
:105660002748FFF7AAFF0404240C4FF000060DD0D2
:105670002246C021224800F0A1FF2146012001F06E
:1056800086F9012001F05CF86E6070BD2E7070BD6F
:105690001B4910B54031032001F02BFB81B21848A3
:1056A0004030FFF784FFBDE81040032001F058B8F8
:1056B00070B51448006805281FD1104C20780028C8
:1056C0001BD16068411C6160052816D10020606014
:1056D00040210B48FFF771FF05042D0C0DD02A4621
:1056E000C021074800F06AFF2946012001F04FF968
:1056F000012001F025F80120207070BD0C01002070
:10570000D01A0020EC0100202DE9F0414C4E88B069
:10571000002430684B4D688068884B4F39880840BA
:10572000800507D54FF6FF5030602878401C287060
:10573000FFF7BEFF688839880840000401D500F0F3
:105740005BFE688839884FF6FF380840400504D56D
:10575000C6F800803D484068804769883888014025
:10576000890402D54DF6FF71316069880140C80493
:1057700005D54EF6FF703060002000F0F0F9688823
:105780003988084000050BD53148007810B100F089
:1057900082F902E0022000F0E2F94FF2FF7030607F
:1057A000688839880840C00546D54FF6FF603060EC
:1057B0002348001D00684FF00002000438D56868D7
:1057C000401C68606868032833D91D48001F0168C1
:1057D00009072ED4016889B2A9601E494FEA0D035A
:1057E00001EB8407D7F8007CBFB243F82470641C37
:1057F000082CF5D3AC6844F00104AC60AC68A4B2EA
:105800000460AC6824F00104AC60AC68A4B204602D
:1058100030684005FCD5C6F80080002053F82040D1
:1058200001EB8006A4B2C6F8004C401C0828F5D352
:105830006A60072000F093F908B0BDE8F08100002D
:10584000445C00401401002010020020740100207C
:10585000F001002000500040FFF756BF4FF48020B9
:1058600001F052BC10B5FFF7CFFE76480024006867
:10587000847200F0F1F801F01DFA7348046010BD65
:10588000704810B50068714A00218172D279427265
:10589000C172084600F0D4FE4FF40071002000F001
:1058A000E7FE1021002000F0F8FE4021002001F06A
:1058B0004AF88021002001F03AF8002000F07CFF37
:1058C000634890F82C10002001F07FF8002000F0D1
:1058D00047FF0021012000F0CBFEC021012001F094
:1058E00026F82021012000F0D8FE0021012000F040
:1058F000EAFE4FF4C061022000F0BAFE4FF480715E
:10590000022001F014F80021022000F0DCFE20212A
:10591000022000F0C2FE0021032000F0A9FE4FF497
:105920008871032001F00FF84021032001F04DF8A9
:105930004FF44051032000F0C6FE0021032000F088
:10594000ACFE002000F084FC3F490120086010BD3F
:105950004048807A002802D03B4905200860704703
:10596000394904200860704739481C3801782029DB
:1059700001D1002101707047704710B134481838C8
:10598000704730490820096808820020704710B12C
:105990002F48183870472B490820096808820020D2
:1059A0007047284A10B500211268212802D020280B
:1059B00008D019E0107800F07F00212814D1AFF250
:1059C00031010AE0107800F07F00212801D1AFF208
:1059D00055011F4B20201C3B187029B100209161FC
:1059E00050828847002010BD022010BD154909686B
:1059F000097801F07F01212903D1022803D0222850
:105A000001D002207047002070471149103900F082
:105A100049BA0F49083900F045BA0A490968C978F6
:105A2000042901D900207047094A303202EBC10134
:105A300000F038BA09B9012801D9022070470020C6
:105A40007047000004020020EC01002046BB000863
:105A500074010020701B002010B50120FFF78CFDA1
:105A60006248012101600021614A0160031D196043
:105A70004FF4E05111800160002010BD10B55B4C67
:105A800001202060211D00200860FFF775FD032024
:105A90002060002010BDF8B55449002000900A682D
:105AA000544B554C92B200BF03EB8005D5F8005C17
:105AB000ADB244F82050401C0828F5D342F4806071
:105AC000086040F00100086020F001050D60474AC1
:105AD000121D10684005FCD54FF6FF301060002005
:105AE00054F8206003EB8007B6B2C7F8006C401C86
:105AF0000828F5D345F008000860086880B240F037
:105B0000040008603D4B18680090186820F00300FE
:105B100040F0010018603A48046844F0040404604E
:105B20001468E40409D54EF6FF7414600A6892B252
:105B300022F008020A6000991960016821F004014E
:105B40000160F8BD10B5294C206880B220F0040037
:105B50002060FFF7EFFC4FF43F40206010BD2DE9BF
:105B6000F041284C072800D020702278254D0627C8
:105B7000052104261D48062A0BD2DFE802F0030C9B
:105B800011161E27686810B12170BDE8F081FFF77B
:105B9000D9FF2770F9E7FFF7D5FF2670012022E033
:105BA0000220607003202070EFE76078401E607074
:105BB00060780028E9D12670E7E7026892B242F0E7
:105BC0001002026021700A206070DEE76178491ED1
:105BD000617061780029D8D1016889B221F0100183
:105BE0000160277000206860CFE70000405C004043
:105BF0001002002000500040501B002000700040A8
:105C000010ED00E0F401002010B5FB4C30B1FB4872
:105C100000680068804720680A3010BD21680120B4
:105C20000882002010BDF44810B50068F44AC1781D
:105C30005278914203D882780AB982880AB1022048
:105C400010BD8172ED48006840688047002010BD9B
:105C500010B5E94C30B1E948006880688047206899
:105C60000C3010BD216801200882002010BD10B545
:105C7000E14CE44A20681268C17892694079904703
:105C800021688A7A22B118B9087908B9887808B1E8
:105C9000022010BDD9480068C0688047206841795B
:105CA000C172C1780173002010BDD34910B50968D5
:105CB00060B1D548002202800A7853060AD002F06B
:105CC0007F02012A16D0022A16D001E002200882A3
:105CD000002010BD497A8A06027802D542F00202FD
:105CE00001E002F0FD0249060270D1B211D401F0C8
:105CF000FE0110E0C44810BD4A7911071306C34ADB
:105D000002EB9161D1F8001C07D5C1F3011106E047
:105D1000017841F00101017003E0C1F30131012973
:105D2000F6D0B648006800698047E3E72DE9F04106
:105D3000B1480068017811F07F0102D0022905D036
:105D400066E0417A01F0DF0141724EE041880029AE
:105D50005ED10179F1BB4179AC4D21F080040A0696
:105D600005EB8402A64BD2F8002C03D5C2F3011236
:105D7000120102E0C2F3013212031E782346A6424A
:105D800046D93AB3807A28B308064FEA84000ED584
:105D90002844D0F8000CC0F30110012821D1184686
:105DA00000F09CFD2046302100F077FC19E04619F8
:105DB000D6F8000CC0F30130012812D14BF68F77D2
:105DC00048F28008A4B1184600F076FDD6F8000C21
:105DD000384000E01CE080F4405040EA0800C6F87B
:105DE000000C86480068406980470020BDE8F081CB
:105DF000874890F82C10002000F0E7FDD5F8000C43
:105E0000384080F4405040EA0800C5F8000CE8E74C
:105E10000220EBE770B578487C4D0368597921F092
:105E2000800005EB80000C06D0F8004C21F08002C9
:105E300003D5C4F30114240102E0C4F301342403A4
:105E40006F4D2D78954210D95A8872B96CB19A7AF3
:105E50005AB10906D0F8001C48F2800207D548F66E
:105E6000BF73194081F0100106E0022070BD4BF6AF
:105E70008F73194081F480511143C0F8001C5F48B2
:105E8000006880698047002070BD5B4810B50068DD
:105E9000417A41F02001417258480068C06980474A
:105EA000002010BD544A13685A8A10B10868104483
:105EB00070478888801A1882002070472DE9F047C3
:105EC000DFF83481534F4FF03009D8F8001001F15A
:105ED0001005088A0E7A08B9042E04D0AC88A042B6
:105EE00016D8042615E04848801E0178012903D001
:105EF0000726102038802BE0474A00211268474BC4
:105F0000120403EBD2325160A7F8009001701FE039
:105F10000226844200D90446A96820468847824662
:105F2000002000F01DFD01462246504600F046FBD1
:105F30002146002000F02BFD2888001B288068885F
:105F400020446880A7F8009035494FF440500880FD
:105F5000D8F800000672BDE8F08770B5264D2868B5
:105F6000017844784A0606D001F07F00012828D045
:105F700002282BD035E0092C06D0052C07D0032CA5
:105F80000ED0012C14D02CE0FFF74DFE28E0C17894
:105F90007F292ED8817861BB818851BB807A27E028
:105FA000C17801291DD18088D8B9FFF76EFF17E0AD
:105FB000C178012915D1818899B9407A80060AD41F
:105FC0000FE00B2C0DD1FFF752FE09E0012C02D09F
:105FD000032C03D005E0FFF7A9FE01E0FFF71AFF4D
:105FE00048B108492046096849698847032819D0FB
:105FF00008B1082024E017E0040200200C02002071
:10600000C401002008020020FE01002000500040D2
:106010007401002014020020505C00400060004029
:106020001202002009200BE0DE4A0620002112683F
:10603000DD4B120403EBD2325160DC4A3021118077
:106040002968087270BDF8B5D94CDA4D0926206868
:10605000002729684278062A05D0AAB1082A4ED01E
:106060000A2A52D06EE0027852066BD1807801285D
:1060700004D0022804D0032804D063E0C96959E0A1
:10608000096A57E0496A55E04288BABBC288022AC9
:1060900058D1027992BB0278530601D1838833B17B
:1060A00002F07F02012A05D0022A0DD04AE0AFF2A9
:1060B00005413FE08A69407900219047F0B92068A6
:1060C000807A0028F3D13DE0417901F00F0001F022
:1060D00070020B06B84901EB8001D1F8001C03D512
:1060E000C1F30111090102E0C1F301310903B34B0E
:1060F0001B78834226D90AB90029D8D122E000783A
:1061000040061FD1AFF2FF4114E0027802F07F0297
:10611000012A17D1827AAAB142889AB902798AB93A
:10612000C288012A0ED18A6940790021904748B976
:10613000AFF2E34131B12068478281610020884796
:10614000002006E02968206809694078884703280C
:1061500013D021680A8AA2F57F43FF3B0BD00228A7
:106160000ED06AB10878000625D5C8880090824212
:106170000AD9088218E00E72F8BD20680672F8BDD0
:106180004FF008000872F8BD0ED228688C4B90F8CA
:106190002C00824201D21F7006E0B2FBF0F400FB3B
:1061A000142008B901201870286890F82C00888203
:1061B000BDE8F84082E603200872824900030880A7
:1061C000F8BD814810B590F82C10002000F0FDFBC0
:1061D00077480068007A082802D0092809D006E02C
:1061E00078494FF4805008807049102008800020C2
:1061F00010BD012010BD70B56A4800686C4D0004E8
:10620000C10B69480144098989B200EB410428683F
:10621000017A09290FD02178017061784170A08836
:1062200000F03CFD29684880208900F037FD29688E
:106230008880A089C880286801210172C08820B1A7
:10624000FFF701FFBDE87040BBE7FFF786FEF9E707
:10625000F0B55A49584D48F68F770B78002148F22F
:10626000800C0BE0CEB205EB8604D4F8002C3A404B
:10627000324342EA0C02C4F8002C491C9942F1D383
:10628000484940F08000091F0860F0BD10B5484C37
:106290002068017A022904D0042902D0062905D0F9
:1062A00015E0FFF70BFE2068007A11E04178052920
:1062B00009D10178490606D1C078FFF7C9FF4348E4
:1062C0000068006A80473B48006880688047082073
:1062D00021680872BDE8104073E710B5344C20689F
:1062E000007A022811D004280FD0032804D00528F2
:1062F00002D0072805D008E000F00EF82068007AE8
:1063000004E02C480068C0688047082021680872B3
:10631000BDE8104055E770472DE9F047244EDFF8FF
:106320008C803027356835F8100FA968A9B100B303
:10633000AC88844200D90446204688478146288894
:10634000001B2880688820446880002000F013FB30
:1063500001462246484600F044F9288848B11949C8
:106360004FF4405008800021084600F010FBA8F8C8
:1063700000702888A988884201D3032001E018B161
:10638000052031680872E6E5316806200872054983
:1063900000200968044A090402EBD1314860A8F8DA
:1063A0000070D8E5505C00400060004014020020FE
:1063B000040200200802002000500040C401002018
:1063C000FC01002012020020740100200C020020B9
:1063D00006480549022201600A72064A0449C0E9DA
:1063E0000112086800470000701B00200402002012
:1063F00074010020C80100202DE9F84F0020ADF8FD
:106400000000DFF89CA14BF6BF7648F28007644D90
:10641000644C40F68F7848F60F7BDFF88C910AF1D8
:10642000440A31E00888614A10F00F00107034D03F
:106430005F4901EB8001D1F8002CADF80020BDF8D8
:10644000002012040BD5D1F8002C02EA0802C1F892
:10645000002C584901EB800050F8040C8047BDF82F
:106460000000000610D551485149007801EB800129
:10647000D1F8002C02EA0B02C1F8002C4E4901EBC6
:10648000800050F8040C8047DAF800004946A9F86B
:1064900000000004C6D4BDE8F88F2868208020885A
:1064A00000F030006080208800F440502080286890
:1064B000304080F4005080F0200038432860088885
:1064C000C006286815D400EA0B002860FFF7DEFE3E
:1064D00026E02188890401D580F400506188C9062E
:1064E00026D46188890601D580F0200038432860D1
:1064F000D1E7ADF80000BDF80000000506D528681A
:1065000000EA08002860FFF776FE09E0BDF8000009
:106510000004B9D5286800EA08002860FFF7DDFE0E
:10652000286821883040C904D3D580F48050D0E752
:1065300080F01000D5E72DE9F041194C1B4E1C4F9F
:106540004434194D26E000BF47F6FF7020602888CC
:1065500000F00F0107EB81003170D0F8002C92B2EF
:10656000130408D5D0F8002C40F68F731A40C0F8F9
:10657000002C104809E012060CD5D0F8002C48F683
:106580000F731A40C0F8002C0B4800EB810050F844
:10659000040C8047206828800004D5D4BDE8F08131
:1065A000005C0040120200201601002000020020C2
:1065B000005000403C01002020010020104B10B58D
:1065C000521C520803EB41010AD000BF10F8013BF6
:1065D000521E10F8014B43EA042321F8043BF5D185
:1065E00010BD074B521C520803EB410106D000BFFF
:1065F00031F8043B20F8023B521EF9D170470000ED
:1066000000600040FC4908607047FB48006880B2A9
:106610007047F949091D08607047F748001D006878
:1066200080B27047F4480830006880B27047F24981
:106630000C3108607047F0480C30006880B2704739
:10664000ED4920F00700103108607047EA4810302B
:10665000006880B27047E94A02EB8000C0F8001C75
:106660007047E64901EB8000D0F8000C80B270471B
:106670008200E2480244D2F8000C48F68F1318401A
:106680000843C2F8000C7047DC4901EB8000D0F8E9
:10669000000CC0F34120400270478200D7480244FA
:1066A000D2F8000C48F6BF731840CB0601D580F035
:1066B0001000890601D580F0200048F280010843CF
:1066C000C2F8000C70478200CC480244D2F8000C9B
:1066D0004BF68F731840CB0401D580F480508904A9
:1066E00001D580F4005048F280010843C2F8000C44
:1066F000704700B50A460346FFF7B3FF9900BF4B4A
:10670000012A194407D0022A04D120F0100000BF4A
:10671000C1F8000C00BD20F48050F9E7B74901EB47
:106720008000D0F8000CC0F3011000017047B3499D
:1067300001EB8000D0F8000CC0F30130000370477B
:106740008100AE480144D1F8000C48F6BF721040F9
:1067500080F0300048F280021043C1F8000C70470E
:106760008100A6480144D1F8000C4BF68F7210400E
:1067700080F4405048F280021043C1F8000C70478A
:1067800081009E480144D1F8000C48F68F721040F9
:1067900048F280121043C1F8000C704781009748FE
:1067A0000144D1F8000C48F68F62104048F2800294
:1067B0001043C1F8000C7047810090480144D1F8A3
:1067C000000C48F68F62104048F280021043C1F876
:1067D000000C7047810089480144D1F8000C48F64C
:1067E0008F72104048F280121043C1F8000C7047BD
:1067F000810082480144D1F8000C48F68F721040A5
:1068000048F280121043C1F8000C704781007B48A9
:106810000144D1F8000C48F68F62104048F2800223
:106820001043C1F8000C7047744901EB8000D0F8A8
:10683000000CC0F30110012800D0002070476F4900
:1068400001EB8000D0F8000CC0F30130012800D02B
:1068500000207047810069480844D0F8001C40F6C9
:106860008F721140C0F8001C7047810063480844D3
:10687000D0F8001C48F60F721140C0F8001C704799
:1068800081005E480144D1F8000C48F68F72104038
:106890004CF280021043C1F8000C70478100574849
:1068A0000144D1F8000C48F68F72104048F2C00243
:1068B0001043C1F8000C7047810050480844D0F8DC
:1068C000001C490409D5D0F8001C48F68F7211400D
:1068D0004CF280021143C0F8001C70478100474809
:1068E0000844D0F8001C490609D5D0F8001C48F629
:1068F0008F72114048F2C0021143C0F8001C70476B
:1069000082003E481044D0F8002C48F68F731A409D
:106910000A4348F280010A43C0F8002C7047374907
:1069200001EB8000D0F8000C00F00F007047324AF5
:1069300021F001011032126892B202EBC000304A1D
:1069400042F8101070472C4A21F0010110321268F1
:1069500092B202EBC0002A4A02EB4000816070470D
:1069600025491031096889B201EBC000244931F88A
:10697000100080B2704720491031096889B201EBDC
:10698000C0001F4901EB4000008980B270471A4ADD
:106990001032126892B202EBC000194A02EB4000BA
:1069A000416070473E2909D94A09C90601D1521EE2
:1069B00092B24FF4004141EA822104E04A08C9073B
:1069C00000D0521C9102016070470B4A10321268CD
:1069D00092B202EBC0000A4A0C3202EB40023E299E
:1069E00010D94809C90601D1401E80B24FF40041B8
:1069F00041EA80200BE00000405C00400050004075
:106A0000006000404808C90700D0401C80021060A8
:106A10007047A549096889B201EBC000A34901EBA1
:106A200040008088C0F3090070479F49096889B217
:106A300001EBC0009D4901EB40008089C0F30900D3
:106A4000704730B521F0010497490B6822F001022C
:106A50009BB203EBC0035D00944BEC50096889B214
:106A600001EBC00003EB4000826030BD8E4A21F094
:106A70000101126892B202EBC0008C4A42F8101079
:106A80007047894A21F00101126892B202EBC000FE
:106A9000864A02EB4000816070478349096889B2E9
:106AA00001EBC000814931F8100080B270477E4987
:106AB000096889B201EBC0007C4901EB4000008904
:106AC00080B270472DE9F043774D012912D0022999
:106AD0000ED1296889B201EBC0014B0073490B4408
:106AE0005A602B689BB203EBC00001EB4000C26010
:106AF000BDE8F08329686D4B89B201EBC0011B1D15
:106B000003EB410C530951085E1E4C1C4FF4004925
:106B10003E2A07D91F465FEAC26800D1B7B249EAE8
:106B2000872705E00F465FEAC27800D02746BF02FC
:106B3000CCF800702D68ADB205EBC0005B4D0C3594
:106B400005EB40003E2A05D9D10600D1B3B249EA8F
:106B5000832103E0D20700D0214689020160C7E704
:106B6000514B01290AD0022907D1196889B201EBDA
:106B7000C0004E4901EB400042607047196889B27D
:106B800001EBC0004949091D01EB40013E2A09D92A
:106B90005009D20601D1401E80B24FF4004242EAB1
:106BA000802004E05008D20700D0401C800208601A
:106BB00070473D4B01290AD0022907D1196889B2D3
:106BC00001EBC000394901EB4000C2607047196811
:106BD00089B201EBC00035490C3101EB40013E2A7E
:106BE00009D95009D20601D1401E80B24FF40042AB
:106BF00042EA802004E05008D20700D0401C800206
:106C0000086070472849096889B201EBC00027492C
:106C100001EB40008088C0F30900704722490968F1
:106C200089B201EBC000214901EB40008089C0F32B
:106C3000090070471C4A116889B201EBC0014B0082
:106C40001A490B449B8913F47C4F01D001207047F3
:106C5000126892B202EBC00001EB40008088800510
:106C6000F5D002207047124B48F68F7203EB80007C
:106C700001290AD0022907D1D0F8001C11404CF29A
:106C800080021143C0F8001C7047D0F8001C11406E
:106C900048F2C002F5E741EA00207047C1B2000A9D
:106CA00040EA012070470000505C00400060004056
:106CB0000050004018490020086018494FF43F4038
:106CC00008801549091F08600020704770B500F062
:106CD0007F0514460E462846FFF742FE0146A2B243
:106CE0003046FFF76BFCA1B22846FFF750FE0020AC
:106CF00070BD70B500F07F060D463046FFF795FE7B
:106D000004463046FFF737FE014622462846FFF785
:106D100068FC204670BD0000445C0040100200206A
:106D20002849084328490860704770B50F23C47884
:106D300001780122F4B1244C2468457804F4E0641D
:106D4000C4F5E064240AC4F10406E3408478B54045
:106D50001C402C4301F1E021230181F8003400782C
:106D600000F01F018A404009800000F1E020C0F8D7
:106D7000002170BD01F01F0082404809800000F131
:106D8000E020C0F8802170BD104A114001430E4838
:106D9000001F016070470C4A121D0029116801D0C4
:106DA000014300E08143116070474FF0E021042867
:106DB000086903D020F004000861704740F0040027
:106DC000FAE700000000FA050CED00E080FFFF1F6D
:106DD00010B5012000F099FEBDE81040002000F041
:106DE00094BE1F49086070471D49091F086070471D
:106DF0001B498431086070471A4A118821F4607178
:106E0000014311807047174A118821F07F01014327
:106E100011807047134A08B52C3A10440090016065
:106E200008BD104908B52C3908440090008808BDF9
:106E30000B489C300068C0B270470A48083001888F
:106E400041F00101018070470548A0300068C0B2E0
:106E5000704704480830018841F002010180704702
:106E600004860D422C6C004001684FF6FE72114002
:106E700001600021016041608160C1606A496A4A25
:106E80000839904203D1486840F00F0006E0664A96
:106E90001432904204D1486840F0F00048607047D6
:106EA000614A2832904203D1486840F47060F5E7A7
:106EB0005D4A3C32904203D1486840F47040EDE7AF
:106EC000594A5032904203D1486840F47020E5E7B7
:106ED000554A6432904203D1486840F47000DDE7BF
:106EE000514A7832904203D1486840F07060D5E74B
:106EF0004E4A111F904203D1086840F00F0006E08F
:106F00004A4A1432904204D1086840F0F000086008
:106F10007047464A2832904203D1086840F47060B6
:106F2000F5E7424A3C32904203D1086840F4704091
:106F3000EDE73E4A50329042EAD1086840F47020B2
:106F4000E5E730B5036847F6F07293430C6A8A6848
:106F50002243D1E904452C4322438C692243CC6966
:106F600022434C6A22438C6A22431A430260CA6855
:106F700042600A6882604968C16030BD00210160DA
:106F800041608160C160016141618161C1610162F3
:106F90004162816270470029016802D041F001011D
:106FA00002E04FF6FE72114001607047002A02684D
:106FB00001D00A4300E08A43026070474160704795
:106FC000406880B2704701460020CA0002D5174AC7
:106FD000083A01E0144A083A12680A4200D0012037
:106FE0007047C10003D51149091F086070470E4959
:106FF00008394860704701460020CA0002D50B4A94
:10700000083A01E0084A083A12680A4200D0012012
:107010007047C10003D50549091F08607047024940
:107020000839486070470000080002400804024028
:10703000374900200860091D0860091D0860091D06
:1070400008603349334814310860704730B530491F
:107050008379026853B30B6893430B600A1D13686E
:107060000468A343136002790A4413680468234345
:107070001360274A083213680468A3431360131D82
:107080001C680568AC431C604479102C05D0214471
:107090000A68006802430A6030BD11680468214331
:1070A0001160196800680143196030BD0079084417
:1070B00001689143016030BD0021016001710C2223
:1070C000427181717047124910310A6802430A60A7
:1070D000704701460E4A0020143212680A4200D05E
:1070E000012070470A49143108607047084A014678
:1070F00000201268064B0A4014331B680B4202D072
:10710000002A00D0012070470149143108607047FF
:1071100000040140FFFF0F00FC4A116801F0380134
:10712000014311607047F9490A6822F008020A60B9
:107130000A6802430A607047F4490A6822F01002A4
:107140000A600A6802430A607047F048F0494160EB
:10715000F04941607047ED48ED494160ED494160BB
:107160007047EA48016941F0800101617047E748D2
:10717000016941F0800101617047E4490420CA6857
:10718000D20701D001207047CA68520701D50220FA
:107190007047C968C906FBD50320704700B5034690
:1071A000FFF7EBFF03E000BFFFF7E7FF5B1E0128DF
:1071B00003D0002B00D1052000BD002BF4D1FAE74D
:1071C00070B505464FF430263046FFF7E7FF042838
:1071D00011D1CE4C206940F0020020616561206928
:1071E00040F0400020613046FFF7D8FF216941F6AA
:1071F000FD721140216170BD30B54FF43025284635
:10720000FFF7CCFF042810D1C04C206940F00400E7
:107210002061206940F0400020612846FFF7BEFF52
:10722000216941F6FB721140216130BD00B5034672
:10723000FFF7A3FF03E000BFFFF79FFF5B1E0128DE
:1072400003D0002B00D1052000BD002BF4D1FAE7BC
:1072500030B54FF430252846FFF7E8FF042810D159
:10726000AA4C206940F004002061206940F04000F1
:1072700020612846FFF7DAFF216941F6FB721140D1
:10728000216130BDA1490020C969890700D50120CD
:10729000704770B5A525FFF7F5FF00B100254FF445
:1072A00030263046FFF77AFF042827D1974C9848BC
:1072B000A0609848A060206940F02000206120690B
:1072C00040F0400020613046FFF768FF41F6EF765E
:1072D00004280ED1206941F6DF7108402061206941
:1072E00040F0100020618C4805804FF40050FFF7FB
:1072F00055FF052802D021693140216170BDF8B5E4
:10730000064600204FF4005C00900D466046FFF7F3
:1073100045FF042816D17D4C206940F00100206112
:1073200035806046FFF73AFF41F6FE77042806D124
:10733000B61C280C009630806046FFF72FFF2169AD
:1073400039402161F8BDF0B506464FF400570D46AF
:107350003846FFF723FF04280CD16C4C206940F01D
:107360000100206135803846FFF718FF2169BA1EF9
:1073700011402161F0BDF0B506464FF400570D46AF
:107380003846FFF70BFF042813D1604C6048A0601B
:107390006048A060206940F01000206135803846C8
:1073A000FFF7FCFE052804D0216941F6EF72114079
:1073B0002161F0BD2DE9F041C04300F0FF0CC0F3A6
:1073C0000727C0F30746050E4FF400584046FFF765
:1073D000E5FE042837D14D4C4D49A1604D49A160CF
:1073E000216941F010012161BCF1FF0F08D04A482A
:1073F0000830A0F800C04046FFF7D0FE04281BD19B
:10740000FF2F07D044480A3007804046FFF7C6FEEA
:10741000042811D1FF2E07D03F480C30068040468B
:10742000FFF7BCFE042807D1FF2D07D03A480E30E5
:1074300005804046FFF7B2FE052804D0216941F6D9
:10744000EF7211402161BDE8F08170B505464FF43F
:1074500030263046FFF7A2FE042818D12B4C2C48CA
:10746000A0602C48A060206940F0200020612069C5
:1074700040F0400020613046FFF790FE41F6DF719A
:10748000042805D0052802D022690A40226170BD77
:10749000206908402061206940F0100020611E48EA
:1074A0000DB1002100E0A52101803046FFF776FEF6
:1074B0000528ECD0216941F6EF721140216170BDC1
:1074C000F0B5124C0746124816460D46A06011480A
:1074D000A0604FF4005C6046FFF760FE042814D102
:1074E000206940F01000206135430B493D43891C61
:1074F00045F0F80008806046FFF750FE052804D0EC
:10750000216941F6EF7211402161F0BD0020024077
:1075100023016745AB89EFCD00F8FF1F1C48C06908
:10752000800870471A48006A7047194900200968A6
:10753000890600D501207047154A0029116901D03C
:10754000014300E081431161704701460020104A69
:10755000012903D0D2680A4203D17047D169C90713
:10756000FBD0012070470A49C860704708490420D1
:10757000CA68D20701D001207047CA68520701D5F6
:1075800002207047C968C906FBD503207047000078
:1075900000200240914910B5884206D10121042003
:1075A00000F0A1FA002104203BE08D49884206D179
:1075B0000121082000F097FA0021082031E08949D4
:1075C000884206D10121102000F08DFA0021102000
:1075D00027E08549884206D10121202000F083FA66
:1075E000002120201DE08149884206D10121402050
:1075F00000F079FA0021402013E07D49884206D14D
:107600000121802000F06FFA0021802009E07949F3
:1076100088420AD184150121204600F064FA002135
:107620002046BDE8104000F05EBA10BD10B5012143
:10763000084600F058FA0021BDE81040012000F093
:1076400052BAF0B5CA78002502F00F03D20601D570
:107650008A7813430A784FF00F0E12F0FF0F4FF0A5
:1076600001021DD0D0F800400F8802FA05F637401D
:10767000B74211D14FEA850C0EFA0CF724EA07073E
:1076800003FA0CF43C43CF78282F02D0482F02D0C5
:1076900002E0466100E006616D1C082DE4D3046041
:1076A0000C88FF2C1ED944685FF0000606F108071D
:1076B00002FA07F50F882F40AF420FD14FEA860C30
:1076C0000EFA0CF7BC4303FA0CF73C43CF78282F93
:1076D00000D14561CF78482F00D10561761C082E76
:1076E000E4D34460F0BD4FF6FF7101800221817048
:1076F0000421C17070470246002092680A4200D0FF
:1077000001207047806880B2704702460020D2682E
:107710000A4200D001207047C06880B27047016102
:107720007047416170470AB101617047416170471C
:10773000C160704741F480328261816182618169F8
:10774000806970472C4B10B51A684FF68074224040
:1077500042EA00100843186010BD2849C86170470C
:10776000F0B5254C002801DAE36900E06368420DBA
:10777000120185B2C0F301579540C0F30346032FB1
:1077800005D0C2020AD50322B240934307E023F09A
:107790007062636823F07063636002E0AB4343F0A0
:1077A000706201B12A43002801DAE261F0BD626033
:1077B000F0BD10B58A0721F003040F49130F2144CF
:1077C0000F228C689A4094438C608A6898400243E8
:1077D0008A6010BD0949C1F8DC007047000801400B
:1077E000000C01400010014000140140001801404D
:1077F000001C014000200140000001400000204228
:1078000010B501210C07204600F076F92046BDE8AE
:107810001040002100F070B92149086270472049EA
:10782000086170471F4A116821F0E00101431160AF
:1078300070471B49C1F8A00070471A4B1A6822F024
:10784000030202431A601848026842F00402026010
:10785000012905D020BF016821F0040101607047B3
:1078600030BFF8E70F48016841F00401016001688A
:1078700041F0020101600C48016841F0040101601F
:1078800030BF7047074A0146002052680A4200D0C4
:107890000120704703490A6842EA80000860704787
:1078A00000000E420070004010ED00E0A4480168A6
:1078B00041F0010101604168A24A11404160016844
:1078C000A14A11400160016821F4802101604168F2
:1078D00021F4FE0141604FF41F0181607047984917
:1078E0000A6822F480320A600A6822F480220A6060
:1078F000B0F5803F07D0B0F5802F03D1086840F481
:10790000A02008607047086840F48030F9E702461C
:10791000002053098A49012B0AD0022B0AD0496A58
:1079200002F01F02012393400B4200D00120704758
:107930000968F5E7096AF3E718B500204FF4A06479
:1079400000903120FFF7E3FF0099491C0091A1420C
:1079500001D00028F5D03120FFF7D9FF002800D052
:10796000012018BD76490A6822F0F80242EAC000F8
:1079700008607047754908607047714A536808434A
:1079800023F47C13184350607047704908667047B1
:107990006B4A516821F00301014351607047684808
:1079A000406800F00C007047654A516821F0F00112
:1079B000014351607047624A516821F4E06101431C
:1079C000516070475E494A6822F4605242EAC00042
:1079D000486070475A4A0029517A01D0014300E0BB
:1079E0008143517270475949C1F8D8007047544AD1
:1079F000516821F4404101435160704750490022D1
:107A000081F8202081F82020012802D0042802D10A
:107A1000052081F8200070474D49086070474849AB
:107A20000A6A02430A62704749494439086070474C
:107A300030B543494A6812F00C03464A03D0042B80
:107A400001D0082B21D002604A680F23424C03EA80
:107A50001212A35C0268DA4042604B68072505EA0F
:107A60001323E35C22FA03F383604B6805EAD32314
:107A7000E35CDA40C2604968032303EA9131231FC3
:107A8000595CB2FBF1F1016130BD4A684B6802F408
:107A900070124FF0020413F4803F04EB924202D0C4
:107AA0004B689B0301D52D4B00E02A4B5A43CAE794
:107AB000234A0029516901D0014300E0814351610B
:107AC00070471F4A0029916901D0014300E08143BA
:107AD000916170471A4A0029D16901D0014300E041
:107AE0008143D1617047164A0029D16801D0014312
:107AF00000E08143D1607047114A0029116901D02B
:107B0000014300E081431161704711494039086029
:107B100070470E49C86470470949C87170470848E2
:107B2000416A41F0807141627047054A0146002078
:107B300092680A4200D0012070470149887270475C
:107B4000001002400000FFF8FFFFF6FE0000424276
:107B50008004424200127A001A02002000093D000F
:107B6000424A0029118801D0014300E0814311807D
:107B700070473E48001D018841F0100101807047A8
:107B80003A48001D018821F01001018070473748F4
:107B90001C30008835491831098840EA0140704797
:107BA00000B50246FFF7E5FF3049100C1831088098
:107BB000081D02805DF804EBE2E700B50246FFF71E
:107BC000D8FF2A49C2F3034008310880081D02800B
:107BD0005DF804EBD4E700B50246FFF7CAFF23497E
:107BE000100C20310880081D02805DF804EBC7E707
:107BF0001E48103000880007010B1C481430008814
:107C0000084370471948001D01888906FCD5704754
:107C10001648001D018821F008010180018809072C
:107C2000FCD570470146114A0020121D12880A42F5
:107C300000D0012070470D49091D0A8882430A803F
:107C400070470A49091D0988C2B21140074A1288C3
:107C5000024202D009B10120704700207047034959
:107C6000091D0A8882430A807047000000280040EE
:107C7000994910B588420AD1841401212046FFF7A2
:107C800032FF2046BDE810400021FFF72CBF93498A
:107C9000884202D10121041404E0914988420AD1AA
:107CA0000121C4132046FFF727FF2046BDE81040FE
:107CB0000021FFF721BF10BD30B502884C8802F4C7
:107CC00041530A88CD8822438C882C4322430C8957
:107CD00022434C8922438C892243CC8922431A4374
:107CE0000280828B22F400628283098A018230BD85
:107CF000F0B505460C4602200021AA8B85B001266E
:107D00004FF240031A40AA832884AF8BA268022A4C
:107D100027D0A08800B102266846FFF789FEE188D7
:107D20000098B1F5007F2DD07101B0FBF1F000BFDC
:107D300000EB8000A1684000B0FBF1F0401D80B274
:107D40000A21B0FBF1F000F00101401A4FF6FF727A
:107D5000C0F34F0002EA0121821EFE2A01D3022055
:107D60000021E288084302432A8420886188A2898E
:107D70000843A18811430843384340F40060A883B6
:107D800005B0F0BD000AD3E7002101804180818069
:107D9000C180018141818181C181072101827047B8
:107DA0000021018041808180C18002228260818126
:107DB00070470029018802D041F0400101E021F024
:107DC0004001018070470029818B02D041F480611D
:107DD00001E021F4806181837047090901238B4010
:107DE000002A828899B201D00A4300E08A43828047
:107DF0007047002A828801D00A4300E08A438280CB
:107E000070478181704780897047A1F57E42018863
:107E1000FF3A02D041F4807101E021F480710180C9
:107E200070470029818802D041F0040101E021F06F
:107E3000040181807047028822F400620280028877
:107E40000A4302807047018841F4805101807047E5
:107E50000029018802D041F4005101E021F40051D1
:107E600001807047012901D0008B7047808A7047DC
:107E7000008A7047B1F5804F018803D021F480411A
:107E80000180704741F48041FAE7024600201289E0
:107E90000A4200D001207047C9430181704710B5E4
:107EA00001F00F040122034602FA04F4002009093C
:107EB0008A4091B29A88A4B20A401989214202D01C
:107EC000002A00D0012010BD01F00F0201219140D5
:107ED000C943018170470000003001400038004074
:107EE000003C0040F94910B5884202D10121C41478
:107EF00086E0B0F1804F09D0F54988420DD10121CB
:107F00000220FFF7F9FD0021022064E0012108466C
:107F1000FFF7F2FD002101205DE0EE49884206D125
:107F200001210420FFF7E8FD0021042053E0EA4985
:107F3000884206D101210820FFF7DEFD002108203C
:107F400049E0E649884206D101211020FFF7D4FD1F
:107F5000002110203FE0E249884206D10121202083
:107F6000FFF7CAFD0021202035E0DE49884202D11A
:107F70000121441444E0DC49884202D10121CC04AF
:107F80003EE0DA49884202D101210C0538E0D849A7
:107F9000884202D101214C0532E0D649884206D1FF
:107FA00001214020FFF7A8FD0021402013E0D24925
:107FB000884206D101218020FFF79EFD002180200C
:107FC00009E0CE4988420AD1841501212046FFF7F5
:107FD00093FD00212046BDE81040FFF78DBDC84944
:107FE000884202D101210C040AE0C649884202D12C
:107FF00001214C0404E0C44988420AD101218C04C7
:108000002046FFF770FD2046BDE810400021FFF735
:108010006ABD10BD30B50288AC4BB24C98420DD051
:10802000A0420BD0B0F1804F08D0A94DA84205D096
:10803000A84DA84202D0A84DA84203D122F0700555
:108040004A882A43A54DA84206D0A54DA84203D090
:1080500022F44075CA882A4302808A8882850A8869
:10806000028598420AD0A04208D0A54A904205D085
:10807000A44A904202D0A44A904201D1097A0186D2
:108080000121818230BD30B5028C22F001020284D0
:10809000028C8388048B22F0020224F073050C8882
:1080A0002C430D8915434A882A43884DA8420BD09A
:1080B0008C4DA84208D0924DA84205D0914DA842BF
:1080C00002D0914DA8420DD122F008054A8923F42F
:1080D00040732A4322F004058A882A438D891D4370
:1080E000CB892B4383800483C9888186028430BD79
:1080F00070B5028C22F010020284028C8488038BFB
:108100000D8823F4E6464FF6FF7303EA0525354351
:108110000E8922F0200203EA061616434A8803EA73
:1081200002123243694EB04202D06E4EB04215D1B7
:1081300022F080064A8924F4406403EA02123243A2
:1081400022F040068A8803EA021232438E8903EA4B
:1081500086062643CC8903EA84043443848005835D
:10816000C9880187028470BD70B5028C22F48072C8
:108170000284028C8488838B0D8823F073031D4353
:1081800022F400730E894FF6FF7202EA06261E43A0
:108190004B8802EA032333434C4EB04202D0514E87
:1081A000B04215D123F400664B8924F4405402EA0E
:1081B0000323334323F480668B8802EA032333438B
:1081C0008E8902EA06162643CC8902EA0414344357
:1081D00084808583C9888187038470BD70B5028CD3
:1081E00022F480520284048C8288838B0D8823F4CD
:1081F000E6464FF6FF7303EA0525354324F400569F
:108200000C8903EA043434434E8803EA06362643D5
:108210002E4CA04202D0334CA04205D122F480441F
:108220008A8903EA8212224382808583C988A0F862
:108230004010068470BD828B22F440628283828B60
:108240004FF6FF7303EA01210A4382837047828B52
:1082500022F00C028283828B0A4382837047028B56
:1082600022F440620283028B4FF6FF7303EA01217E
:108270000A4302837047F0B5048C24F01004048490
:10828000078B048C4FF6FF7527F4734705EA033319
:108290003B4305EA02221A430C4B05EA01169842B9
:1082A0000ED0104B98420BD0B0F1804F08D0084B45
:1082B000984205D0074B984202D0074B984225D1EF
:1082C00024F02001314341F0100124E0002C014052
:1082D0000004004000080040000C00400010004076
:1082E0000014004000340140004C014000500140A7
:1082F0000054014000180040001C004000200040D5
:1083000000400140004401400048014024F0A00327
:108310000B4343F0100102830184F0BD028B22F075
:108320000C020283028B0A430283704770B5048CEF
:1083300024F001040484058B048C4FF6FF7606EAD2
:108340000313134325F0F305F94A2B4390420ED053
:10835000F84A90420BD0B0F1804F08D0F64A9042D4
:1083600005D0F64A904202D0F54A904202D124F05C
:10837000020201E024F00A020A4342F001010383F1
:10838000018470BD2DE9F05F0D4604460888E84F72
:10839000DFF8A0C3DFF8A0834988AA882B894FF0B3
:1083A000804960B3042832D04FF6FF7E082836D0CB
:1083B000208C9B4620F480502084A38B268C704612
:1083C00000EA022223F473431A4300EA0B301043FD
:1083D0000EEA013EBC420BD0644509D04C4507D0A3
:1083E000444505D0D54A944202D0D54B9C4245D154
:1083F00026F4005141EA0E0141F4805143E0204649
:10840000FFF794FFE9882046BDE8F05F86E7204645
:10841000FFF731FFE9882046BDE8F05F1FE7208CB9
:1084200020F480702084B4F81CA0208C0EEA031382
:1084300013432AF0F30A0EEA012B43EA0A03BC4273
:108440000BD0644509D04C4507D0444505D0BB4A04
:10845000944202D0BA4A944204D120F4007040EA17
:108460000B0002E020F42060084340F48070A383F6
:108470002084E9882046BDE8F05FE8E626F4024261
:108480000A4342F48051A08320462184E988BDE854
:10849000F05FD0E62DE9F0410C46002649880746FA
:1084A000012501B90226A288012A00D102252088CF
:1084B00023890028384610D0FFF7DDFEE1883846D2
:1084C000FFF7CDFE23892A4631463846FFF72EFFB7
:1084D000E1883846BDE8F04120E7FFF727FFE18853
:1084E0003846FFF71BFF23892A4631463846FFF7F7
:1084F000C2FEE1883846BDE8F041B0E610B50A8812
:108500004B88CC881A438B8823431A430B891A4320
:108510004B8989891A430A43A0F8442010BD4FF6BD
:10852000FF71818000210180C1804180017270470C
:108530000021018041808180C18001814181818150
:10854000C181704700210180418001228280C18069
:10855000018170470021018041808180C1800181BB
:108560004181818170470029018802D041F00101D9
:1085700001E021F0010101807047002930F8441F1B
:1085800002D041F4004101E0C1F30E0101807047C7
:10859000002A828901D00A4300E08A438281704721
:1085A000818270471143A0F848107047002A8289E1
:1085B00001D00A4300E08A4382817047018921F09B
:1085C000070101817047028922F070020A4302818B
:1085D000704700B50346FFF7F6FF188940F0070023
:1085E000188100BD70B516460D46602904464FF04F
:1085F000010231460AD0FFF799FE29462046FFF7CF
:10860000E2FF208940F00700208170BDFFF733FEB4
:10861000F3E730B504894FF6FF7505EA03231343EA
:10862000E4B20B432343038130BD10B50446FFF78A
:10863000F0FF208940F07700208110BD10B504467E
:10864000FFF7E7FF208940F48040208110BD0185BD
:1086500082827047028822F070020A4302807047CB
:1086600070B50589048B068C25F007050D434FF680
:10867000FC410C4040F201110C434FF6FF7101EA3E
:10868000031126F02206114331430581048301843E
:1086900070BD028B22F070020A4302837047028B86
:1086A0004FF6FF7322F4E04203EA012111430183F4
:1086B0007047828B22F070020A4382837047828B5C
:1086C0004FF6FF7322F4E04203EA01211143818354
:1086D00070470029018802D041F0800101E021F0BB
:1086E0008001018070470029818802D041F0040197
:1086F00001E021F00401818070470029818802D0C7
:1087000041F0080101E021F0080181807047002953
:10871000818802D041F0010101E021F00101818056
:108720007047028B22F008020A4302837047000060
:10873000002C0140003401400004004000080040CB
:10874000000C0040028B4FF6FF7322F4006203EA34
:10875000012111430183E9E7828B22F008020A43D9
:108760008283E3E7828B4FF6FF7322F4006203EA11
:10877000012111438183D9E7028B22F004020A43CD
:108780000283D3E7028B4FF6FF7322F4806203EA81
:10879000012111430183C9E7828B22F004020A43BD
:1087A0008283C3E7828B4FF6FF7322F4806203EA71
:1087B000012111438183B9E7028B22F080020A4331
:1087C0000283B3E7028B4FF6FF73C2F30E0203EA94
:1087D000012111430183A9E7828B22F080020A4321
:1087E0008283A3E7828B4FF6FF73C2F30E0203EA84
:1087F00001211143818399E7028C22F002020A438E
:10880000028493E7028C22F008020A4302848DE777
:10881000028C4FF6FF7322F0200203EA011111438C
:10882000018483E7028C4FF6FF7322F0800203EA93
:1088300001111143018479E7028C4FF6FF7322F492
:10884000007203EA0121114301846FE7028C4FF6A5
:10885000FF7322F4006203EA01211143018465E7FA
:10886000028C4FF6FF7322F4005203EA01311143E8
:1088700001845BE710B50123048C8B409C43048486
:10888000038C8A401343038410BD10B50423048C69
:108890008B409C430484038C8A401343038410BDA3
:1088A00030B50124058C00F118038C40A5430584E4
:1088B00089B108290FD0091FC1F34E00184401687F
:1088C00021F4E041016001684FF6FF7303EA0222E0
:1088D0001143016030BD03EB5100016821F07001CC
:1088E00001600168F4E70029018802D041F002012B
:1088F00001E021F00201018018E70029018802D07F
:1089000041F0040101E021F0040101800EE700299B
:10891000818802D041F0800101E021F08001818056
:1089200004E7028822F00802028002880A430280DB
:10893000FCE6828822F07002828082880A4382806C
:10894000F4E6028922F00702028102890A430281C9
:10895000ECE6028922F08002028102890A43028148
:10896000E4E68184E2E68185E0E68186DEE6018751
:10897000DCE68187DAE6A0F84010D7E6028822F428
:108980004072028002880A430280CFE6808ECDE6E4
:10899000008FCBE6808FC9E6B0F84000C6E6808C39
:1089A000C4E6008DC2E602460020128A0A4200D0C8
:1089B0000120BBE6C9430182B8E602460020138AC3
:1089C00092890B4202EA010202D0002A00D0012063
:1089D000ACE6C9430182A9E6C44910B588420AD170
:1089E00001218C032046FFF77EF82046BDE81040A9
:1089F0000021FFF778B8BE49884202D101214C041A
:108A000010E0BC49884202D101218C040AE0BA4935
:108A1000884202D10121CC0404E0B84988420AD13D
:108A200001210C052046FFF767F82046BDE81040FD
:108A30000021FFF761B810BD30B50446008A85B04B
:108A40000D464CF6FF710840E98801432182A18957
:108A50004EF6F3100140A8882A8910436A890A4318
:108A60001043A081A08A4FF6FF410840A989014325
:108A7000A1826846FEF7DCFF9C48844201D103983E
:108A800000E00298A189090400EBC00101EB00108D
:108A9000296801D5490000E08900B0FBF1F06422AB
:108AA000B0FBF2F109010B096FF018056B4300EB05
:108AB0008300A3891D044FF0320306D503EBC000E9
:108AC000B0FBF2F000F0070005E003EB0010B0FB94
:108AD000F2F000F00F000843208105B030BD4FF4E4
:108AE0001651016000218180C18001810C224281E8
:108AF0008181704710B5038A4FF2FF0213400A8844
:108B00004C8822438C88C9880C4322431A43028232
:108B100010BD0021018041808180C1807047002903
:108B2000818902D041F4005101E021F4005181819A
:108B3000704710B5C1F3421301F01F040121A14099
:108B4000012B07D0022B07D01430002A026805D071
:108B50000A4304E00C30F8E71030F6E78A4302607D
:108B600010BD002A828A01D00A4300E08A43828233
:108B70007047028A22F00F020282028A0A430282AE
:108B80007047828922F40062828182890A4382814D
:108B900070470029818902D041F0020101E021F0F3
:108BA000020181817047028A22F020020282028A39
:108BB0000A43028270470029018A02D041F48041B1
:108BC00001E021F4804101827047C1F308018180F6
:108BD00070478088C0F308007047818941F0010127
:108BE00081817047028BD2B20283028B42EA01215B
:108BF00001837047028B02F47F420283028B0A4397
:108C0000028370470029818A02D041F0200101E0EF
:108C100021F02001818270470029818A02D041F031
:108C2000100101E021F01001818270470029818A42
:108C300002D041F0080101E021F008018182704773
:108C40000029818902D041F4004101E0C1F30E0105
:108C5000818170470029818A02D041F4006101E0DE
:108C600021F4006181827047828A22F004028282AC
:108C7000828A0A43828270470029818A02D041F0A9
:108C8000020101E021F002018182704702460020CA
:108C900012880A4200D001207047C9430180704702
:108CA00030B501F01F0201240025C1F3421304FA7C
:108CB00002F2012B0FD0022B0FD0838A4FEA112131
:108CC0000088134204FA01F400EA040001D000B164
:108CD0000125284630BD8389F0E7038AEEE70A0ABA
:108CE00001219140C94301807047000000380140D4
:108CF0000044004000480040004C0040005000404C
:108D00000948804709480047FEE7FEE7FEE7FEE71F
:108D1000FEE7FEE7FEE7FEE7FEE7FEE7044805495B
:108D2000054A064B70470000E18D0008ED00000881
:108D3000F01B0020F0210020F01D0020F01D00207D
:108D40000CB500214B4801910091026842F4803239
:108D500002604FF4A063026802F400320092019AAC
:108D6000521C0192009A12B9019A9A42F3D10268F8
:108D7000920333D5012100913F490A6842F0100265
:108D80000A600A6822F003020A600A6842F00202DE
:108D90000A604168416041684160416841F4806116
:108DA0004160416821F47C114160416841F4E8115F
:108DB0004160016841F08071016001688901FCD562
:108DC000416821F003014160416841F002014160C6
:108DD0004168C1F381010229FAD10CBD00910CBD9B
:108DE000244810B5016841F0010101604168234A3F
:108DF000114041600168224A11400160016821F47C
:108E000080210160416821F4FE0141604FF41F019F
:108E10008160FFF795FF1B494FF00060086010BDAF
:108E2000144910B54868184A10F00C03174803D0CD
:108E3000042B01D0082B0AD002604968134AC1F301
:108E40000311121D515C0268CA40026010BD4A68DD
:108E50004B6802F470124FF0020413F4803F04EBED
:108E6000924202D04B689B0301D5094B00E0064BB0
:108E70005A43E1E700100240002002400000FFF8E2
:108E8000FFFFF6FE08ED00E000127A002C02002041
:108E900000093D00704700000FB4044910B503AA53
:108EA000029800F0D7FC10BC5DF814FBD000002045
:108EB0000FB41CB5084B06AA7B4469460090059880
:108EC00000F0AFFC04460020694600F0BDFC2046DF
:108ED0001CBC5DF814FB00008D09000070B5044651
:108EE00085690068C10601D5302600E02026C0074C
:108EF00007D070BDD4E9012130469047206A401C5C
:108F000020626D1EF6D570BD70B504468569007887
:108F1000C00707D170BDD4E9012120209047206A05
:108F2000401C20626D1EF6D570BD00002DE9F04199
:108F30000646002410687529314616A510D0AFF3F7
:108F40000080002802DA404213A507E031688A0752
:108F500001D512A502E0490704D511A5012401E0BD
:108F6000AFF3008000210A2206F1240709E0B0FBDC
:108F7000F2FCB0FBF2F302FB1C00303078541846D0
:108F8000491C0028F3D123462A463046BDE8F0416B
:108F900000F0D9B9000000002D0000002B000000F7
:108FA0002000000070B504460D4621461068AFF35E
:108FB00000802188090502D50F4A7A4402E00E4A52
:108FC0007A440E32002104F1240305E000F00F067C
:108FD0000009965D5E54491C0028F7D120780023D3
:108FE000000704D5702D02D009B1022311322046AA
:108FF000BDE8704000F0A7B90D2C00002DE9F05F2E
:10900000894604464FF0000ADFF874B1FB44C0F80B
:1090100020A02046E1688847002874D0252806D083
:10902000D4E901219047206A401C2062F1E7002624
:109030005F462046E16888472028054607DB312D3A
:1090400005D2781910F8200C08B10643F1E7B007F3
:1090500001D526F00406C4F81CA00027C4F818A007
:109060002A2D09D0284601F059F938B304EB8708B6
:10907000303DC8F8185019E059F8041B204604EB9D
:1090800087029161E1688847012F054618D1E069A0
:10909000002820DA26F020061DE0D8F8180000EBA2
:1090A000800005EB40003038C8F818002046E16821
:1090B0008847054601F032F90028EED1012F0AD089
:1090C0002E2D08D12046E16888477F1C0546022FD7
:1090D00046F02006C4DBA069002803DA404246F0CF
:1090E0000106A061F00701D026F010066C2D0BD010
:1090F000682D09D04C2D39D06A2D35D0742D35D03E
:109100007A2D33D016E038E0E1682F4620468847B4
:10911000B842054609D16C2F26D04FF48060E16833
:10912000064320468847054604E06C2F1AD04FF4CA
:10913000807006430DB3A5F14100192802D82035EF
:1091400046F400664A462946204626604E46F7F712
:1091500027F880B101280BD0F61D26F0070000F19A
:10916000080956E74020E4E78020D8E70020D6E74A
:1091700006F104094DE7284652E7206ABDE8F09F52
:10918000E32B000030B505460B462A4613F8014B89
:1091900012F8010B08B1A042F8D01CB1002802D08F
:1091A0006D1CF1E7284630BD032A40F2308010F0F4
:1091B000030C00F0158011F8013BBCF1020F624472
:1091C00098BF11F801CB00F8013B38BF11F8013B03
:1091D000A2F1040298BF00F801CB38BF00F8013BB0
:1091E00011F0030300F02580083AC0F0088051F820
:1091F000043B083A51F804CBA0E80810F5E7121D2B
:109200005CBF51F8043B40F8043BAFF30080D20749
:1092100024BF11F8013B11F801CB48BF11F8012B15
:1092200024BF00F8013B00F801CB48BF00F8012B38
:10923000704710B5203AC0F00B80B1E81850203AC2
:10924000A0E81850B1E81850A0E81850BFF4F5AFE6
:109250005FEA027C24BFB1E81850A0E8185044BF70
:1092600018C918C0BDE810405FEA827C24BF51F8DD
:10927000043B40F8043B08BF7047D20728BF31F8D1
:10928000023B48BF11F8012B28BF20F8023B48BF22
:1092900000F8012B70474FF000020429C0F0128043
:1092A00010F0030C00F01B80CCF1040CBCF1020F99
:1092B00018BF00F8012BA8BF20F8022BA1EB0C016E
:1092C00000F00DB85FEAC17C24BF00F8012B00F864
:1092D000012B48BF00F8012B70474FF0000200B58A
:1092E000134694469646203922BFA0E80C50A0E8C9
:1092F0000C50B1F12001BFF4F7AF090728BFA0E877
:109300000C5048BF0CC05DF804EB890028BF40F842
:10931000042B08BF704748BF20F8022B11F0804F84
:1093200018BF00F8012B70477047704770477047AF
:1093300010B500F0A5FA006810BD10B5044600F0A5
:109340009FFA046010BD2DE9F0470D4699469246FC
:10935000044600F124080168880604D5E06921F07C
:109360001001216000E00120A84201DD471B00E060
:109370000027A1697A1902EB0900081AA061207878
:10938000C00602D42046FFF7A9FD002608E0D4E974
:1093900001211AF806009047206A401C761C2062C2
:1093A0004E45F4DB2078C0060AD52046FFF796FD2F
:1093B00006E0D4E9012130209047206A401C206259
:1093C000381EA7F10107F4DC07E0D4E9012118F801
:1093D00005009047206A401C2062281EA5F1010567
:1093E000F3DC2046FFF790FD2078000602D502202E
:1093F000BDE8F0870120FBE770472DE9FF4F0C46E1
:109400001E464FF0FF378BB0D2E90001DDF86080D7
:109410000A908A46C1F30A5505B93D46002108461F
:109420004FF00000BAF1000F00F4400005DA00EB45
:1094300080004FF4400101EA50004FEA9059B9F121
:10944000010F00DDB9460A9850EA4A000ED044F6F2
:109450001050A5F2FF3545432F14B8F1000F1ED070
:109460007542291E1EDDC9F100021CE0B8F1010F92
:109470004FF0000001D0302103E0F24305E0215419
:10948000401CB042FBDB30460022002121540B99E6
:10949000C1F80880C1E900200FB0BDE8F08FBD1B06
:1094A0006D1CDEE74A4600DA694206A800F072FA4F
:1094B00006AB93E8070003AB83E8070050460A9920
:1094C00000F050FB8DE80700A0F500501F38009019
:1094D0000398002D0ADD42F21F014A46084400238A
:1094E00003A90390684600F0B9FD09E0A0F500501B
:1094F0004A461F38002303A90390684600F0C3FDC5
:109500008DE807000004000C03D04FF0FF30410845
:1095100000E01046B8F1000F03D00022009215467B
:109520001EE0751E05D400F0AFF9303262556D1E95
:10953000F9D5B3460122084302D000227F1C04E083
:109540002078302801D100227F1E002A099784D07C
:109550001DE0112D07DA00F097F9303262556D1CCD
:1095600050EA0102F5D1084302D00098C8B10EE0DC
:109570000021681E05E0235C625C63542254401E97
:10958000491C8142F7DBAB46A81B401E0990002016
:1095900004F80B000B98099AC0F80880C0E9002B6A
:1095A0007AE711264FF0000857E72DE9F04F88467B
:1095B0000446D21D22F0070191B0D1E90001CDE9A6
:1095C0000A0100F097FE02460B98C00F01D02D2033
:1095D00007E02068810701D52B2002E0202101EA65
:1095E000C000032A099001D0072A05DB0346414643
:1095F000204600F08FF90BE12078800601D5E06964
:1096000000E00620B8F1650F814606D0B8F1660F7C
:1096100018D0B8F1670F70D131E00020B9F1110F07
:10962000009001DB112301E009F101030AAA01A95D
:109630000CA8FFF7E2FEDDE90C70002609F1010538
:10964000834647E001204B4600904FF000470AAAAE
:1096500001A90CA8FFF7D1FEDDE90DB00C995D461C
:10966000002610B909F101000D18B9EB050003D46B
:10967000C0F1FF3609F10105A5EB09002BE0B9F1B6
:10968000010F01DA4FF001090020B9F1110F00902C
:10969000484601DD112300E003460AAA01A90CA8EF
:1096A000FFF7ABFEDDE90C704D46002683462078BF
:1096B00000070AD4AB4500DA5D4601A8012D04DDA0
:1096C000411911F8011C302907D04F4502DA17F172
:1096D000040F04DA012082460FE06D1EEEE7002F32
:1096E00002DCED1B3E4403E0781CA84200DD7D1C3B
:1096F000B81B00F1010A4FF000472078000703D49F
:10970000AA4501DB4FF0FF3A0021B7F1004F0DF100
:1097100043088DF8431024D002202B23002F01DAB8
:109720007F422D230A21021EA0F1010000DC5FB15F
:1097300097FBF1FC97FBF1F201FB1C7C17460CF147
:10974000300C08F801CDEEE7A8F101000370218884
:10975000090501D5452100E06521A0F1010800F8C7
:10976000011C09980FA9A1EB0807FF1D00B10120FA
:10977000411901EBEA70A1693844081A401EA06142
:109780002078C00602D42046FFF7A8FB099828B12C
:10979000D4E901219047206A401C20622078C0064D
:1097A00022D52046FFF79AFB1EE0002E04DBB345CE
:1097B00002DD01A8805D00E03020D4E9012190475E
:1097C000206A401C2062761CAAF101005FEA000AB0
:1097D0000AD100F051F8C0680168405CD4E9012169
:1097E0009047206A401C2062281EA5F10105DCDCA0
:1097F00007E0D4E9012118F8010B9047206A401CCA
:109800002062381EA7F10107F3DC2046FFF77CFB3E
:10981000032011B041E6000001694A1C026108788A
:10982000704700B58FB0CDE90131002105910549A0
:109830007944CDE9031011466846FFF7DFFB0FB00E
:1098400000BD0000E5FFFFFF0A6802F8010B0A6097
:1098500070470000074B70B50D467B44FFF7E1FFF2
:109860000446284600F008F910B14FF0FF3070BDF3
:10987000204670BD59B6FFFF00487047AC1B002062
:10988000004870478C1B002030B5B0F10A024FEA47
:10989000900E71F100034EEA817EB0EB0E0061EB99
:1098A00091014FEA101E4EEA017E10EB0E0041EBD3
:1098B00011114FEA102E4EEA016E10EB0E0041EB33
:1098C00011214FEA104E4EEA014E10EB0E0041EB13
:1098D0001141401841F100014FEAD00040EA4170C7
:1098E0004FEAD10110EB80054FEA810444EA9074FD
:1098F00044EB01046D1944EB0404521BA3414FF0E7
:10990000000348BF0A3200D530BD401C41F10001C0
:1099100030BD00002DE9F0411F46044603260168D2
:10992000072A01F4006004DB08B116A505E016A5BE
:1099300003E008B115A500E015A521F01000206096
:10994000A069C01EA0610FB1401EA0612046FFF7B4
:10995000C5FA4FB1D4E9012138469047206A401C2E
:109960002062C01C206206E0206AFAE7D4E90121E7
:1099700015F8010B9047761EF8D22046FFF7C4FA7F
:10998000BDE8F0814E414E006E616E00494E4600CA
:10999000696E66002DE9F047814616468AB0354863
:1099A00078440DC88DE80D0032487844801C03AC23
:1099B0000DC884E80D0041F69B300844372190FB28
:1099C000F1F290FBF1F5A5F1800501FB12041B3CBF
:1099D00002D56442012000E00020DFF898A0804614
:1099E0000027FA44AAF1BE0A0EE0E0070AD0324688
:1099F000684607EB470101230AEB810100F043FBB6
:109A00008DE8070064107F1C002CEED1194F7F44B5
:109A1000AE3F19E0E80715D007EB04100DF1180A66
:109A200090E80E008AE80E00C068F04201D1981953
:109A300008903246012306A903A800F024FB03ABDB
:109A400083E807006D10641C002DE3D14FF0010383
:109A500032466946B8F1000F03A802D000F0FEFAC2
:109A600001E000F010FBC9E90001C9F808200AB0C4
:109A7000BDE8F087DC220000007B00F0800070472A
:109A8000004870478C1B00207546FFF7F9FFAE4673
:109A900005006946534620F00700854618B020B5FA
:109AA000FFF73CF9BDE820404FF000064FF00007FB
:109AB0004FF000084FF0000B21F00701AC46ACE876
:109AC000C009ACE8C009ACE8C009ACE8C0098D46E3
:109AD000704710B50446AFF300802046BDE8104043
:109AE000F6F77EBB4FF0013C50F8042B51F8043BD5
:109AF0009A4221D1A2EB0C03934313EACC1317D162
:109B000050F8042B51F8043B9A4215D1A2EB0C03F8
:109B1000934313EACC130BD150F8042B51F8043BB8
:109B20009A4209D1A2EB0C03934313EACC13DBD086
:109B30004FF00000704700BFD01A01BAB1FA81F1AE
:109B400001F0180122FA01F0CB40C1F12001DBB293
:109B5000C0B2C01A2CFA01F3D11A914311EAC31111
:109B6000E6D170475FEA400C08BF91F0000F4FEA62
:109B70008C234FEAC12243EA51514FEA1C5018BFCF
:109B800000F5F0404FEA300018BF41F000415FEAB5
:109B90006C5C00F02980BCF1FF3F08BF40F08040C2
:109BA0007047130C06BF12044FF0100C4FF0000C5E
:109BB000130E04BF12020CF1080C130F04BF1201A4
:109BC0000CF1040C930F04BF92000CF1020CD30FA4
:109BD00004BF52000CF1010C11464FF00002A0F13D
:109BE0001F00A0EB0C00704711F0004F08BF70473A
:109BF00031F000413FF4D5AF0B0C06BF09044FF024
:109C0000100C4FF0000C0B0E04BF09020CF1080CF5
:109C10000B0F04BF09010CF1040C8B0F04BF89006A
:109C20000CF1020CCB0F04BF49000CF1010CCCF17C
:109C30002003A0EB0C0022FA03F302FA0CF241EA33
:109C4000030100F10100704720F07F4C80EA03001F
:109C500023F07F47ACEB070303F57C5300F0004093
:109C600003F1FF032DE980494FEA154B09B44FEA90
:109C7000144325EA0B4E24EA03480FF2042606EBB0
:109C8000132749083E785FEA320203FB0667C7F5EF
:109C9000000707FB06F64FEA54374FEAD64606F1AF
:109CA000020607FB066CCCF1005C4FEA1C472CEA6D
:109CB000074C07FB06F40CFB06F504EB15464FEAD0
:109CC000961634BF00204FF000404FEAD13706FB14
:109CD00007FC4FEA1C4C0CFB0BF7D21B03FB0CF7E9
:109CE00061EB07010CFB0EF7B0EB074072EB17427C
:109CF0000CFB08F734BFA2EB0742B2EB074261EB63
:109D000017414FEA0C444FEA910706FB07FC4FEA64
:109D10001C4C0CFB0BF7B0EBC74072EB573203FB4C
:109D20000CF734BFA2EBC742B2EBC74261EB57312D
:109D30000CFB0EF7B0EBC70072EB57720CFB08F789
:109D400034BFA2EBC702B2EBC70261EB5771039FAE
:109D50004FEA816141EA921104EBCC044FEAD1371A
:109D60004FEA826206FB07FC42EA90124FEA8060EB
:109D70004FEA1C4C0CFB0BF7D21B03FB0CF761EBFF
:109D800007010CFB0EF7B0EB074072EB17420CFB20
:109D900008F734BFA2EB0742B2EB074261EB174171
:109DA0004FEA8C554FEA910704EB9C2406FB07FC15
:109DB0004FEA1C4C0CFB0BF7B0EBC74072EB573271
:109DC00003FB0CF734BFA2EBC742B2EBC74261EB17
:109DD00057310CFB0EF7B0EBC70072EB57720CFB60
:109DE00008F734BFA2EBC702B2EBC70261EB5771B1
:109DF00015EB4C254FEA816141EA92114FEA8262EC
:109E00004FEAD13742EA901206FB07FC44F1000406
:109E10004FEA80604FEA1C4C0CFB0BF7D21B03FB94
:109E20000CF761EB07010CFB0EF7B0EB074072EB90
:109E300017420CFB08F734BFA2EB0742B2EB074214
:109E400061EB174115EB1C154FEA813141EA924154
:109E50004FEA823242EA90424FEA80304FEA0C7673
:109E600044F1000448EA03434EEA0B484FF0000E69
:109E7000B2EB080C71EB030724BF624639464EEB88
:109E80000E0E4FF0000B0018524149414BEB0B0BEB
:109E9000B2EB080C71EB03077BF1000B24BF6246A9
:109EA00039464EEB0E0E4FF0000B0018524149415F
:109EB0004BEB0B0BB2EB080C71EB03077BF1000BC8
:109EC00024BF624639464EEB0E0E51EA020718BF18
:109ED00046F0010616EB0E7655F1000254F1000132
:109EE00003D5BDE88901BDE80088BDE88901BDE86A
:109EF0000048B619524141EB0101A3F1010370473B
:109F000080807F7E7D7C7B7A7978777676757473B6
:109F1000727171706F6E6E6D6C6C6B6A6A69686875
:109F2000676666656464636362616160605F5F5E0B
:109F30005E5D5D5C5C5B5B5A5A5959585857575681
:109F400056555555545453535252525151505050E6
:109F50004F4F4F4E4E4D4D4D4C4C4C4B4B4B4A4A38
:109F60004A4949494848484747474746464645457C
:109F700045444444444343434342424242414141B5
:109F8000002B9C4630D477002BD01CB54FEA370706
:109F900003B44FF010004FF01001BAF1000F06D0DB
:109FA000BCF1000FDCBF40F0080040F008014FF0AA
:109FB00000000FBCBDE810400BF1010BBBF1010F1D
:109FC00008BF5FEA170722BF12F1010211F1010178
:109FD0004FF0004143F1000300F0004043EA00006D
:109FE0007047F9D35708D0E746EA064613F1400F09
:109FF0004FEA16461FDD13F1200FDFBF16430A4656
:10A00000002120335B42BED0C3F1200746EA06465A
:10A0100002FA07F74FEA164646EA0706C3F1200799
:10A0200022FA03F201FA07F721FA03F14FF00003D5
:10A0300042EA0702A7E746EA020646EA06464FEA70
:10A04000164646EA0106BCBF46EA0646360C4FF005
:10A0500000034FF000024FF0000194E72DE9804C1F
:10A060009A46934670B491E8380007C831EA400C2C
:10A0700048BF34EA430C03D5FFF7E6FDFFF780FF46
:10A08000F0BCBDE8008C2DE9804C9A46934670B434
:10A0900091E8380007C810F0804F08BF13F0804FD8
:10A0A00003D100F005F8FFF76BFFF0BCBDE8008CB2
:10A0B00020F07F4780EA030023F07F4C07EB0C037E
:10A0C000A3F57C5300F00040A3F1FE0392F0000FD3
:10A0D00000F0B38095F0000F00F077802DE9014982
:10A0E0004FEA11404FEA144621EA004800FB06FC03
:10A0F00024EA064708FB06F607FB08F800FB07F70B
:10A1000018EB06484CEB164C4FEA124B18EB07487D
:10A110004FEA15464CEB174022EA0B4E0BFB06FCB0
:10A1200025EA06470EFB06F607FB0EFE0BFB07F7BC
:10A130001EEB064E4CEB164C4FF000061EEB074E86
:10A140004CEB174B18EB0B0840F1000018EB0E0B13
:10A1500058EB000840F100008F1A4FF000013CBF9F
:10A16000C943661B14BFB5EB040C00213CBFC943B7
:10A17000F61B4FEA17444EEA8E0E27EA04454FEAD3
:10A180001C4704FB07622CEA074C05FB07F70CFB96
:10A1900005F604FB0CFC16EB074642EB174216EBE8
:10A1A0000C4642EB1C421BEB060658EB02024141F7
:10A1B00046EA9E0601D5BDE80189B619524141EB38
:10A1C0000101A3F10103BDE801894FEA14454FEAFB
:10A1D000114724EA054621EA074C05FB07F406FB74
:10A1E00007F70CFB06F105FB0CFC11EB074144EBF8
:10A1F00017444FEA124711EB0C4144EB1C4422EA8E
:10A20000074C05FB07F206FB07F70CFB06F605FB00
:10A210000CFC16EB074642EB174216EB0C4642EBE2
:10A220001C456A1854F1000148BF7047B6195241E5
:10A2300041EB0101A3F10103704795F0000F37D006
:10A240004FEA11424FEA144721EA024624EA074C3A
:10A2500002FB07F106FB07F70CFB06F402FB0CFC04
:10A2600014EB074441EB17414FEA154714EB0C443C
:10A2700041EB1C4125EA074C02FB07F506FB07F7FB
:10A280000CFB06F602FB0CFC16EB074645EB1745EC
:10A2900016EB0C4645EB1C42121951F1000148BF68
:10A2A0007047B619524141EB0101A3F10103704718
:10A2B0004FEA14454FEA114724EA054621EA074CC4
:10A2C00005FB07F106FB07F70CFB06F24FF0000653
:10A2D00005FB0CFC12EB074241EB174112EB0C4261
:10A2E00051EB1C4148BF7047921841EB0101A3F1AB
:10A2F00001037047490050EAC12018BF04204A0DED
:10A3000018BF40F0010040F2FF72B2EB515F08BF8E
:10A3100040F00200012808BF0520704730380A28A5
:10A3200001D2012070470020704700002DE9F04164
:10A33000C1F30A52A2F2FF362F4A304B0D460446B3
:10A34000142E2FDA002E12DA00F0CCF80022134679
:10A3500000F0C0FC4CD2002DBCBF4FF000450024E3
:10A3600046DB55EA040018BF254D19D140E0DFF85F
:10A3700094C02CFA06F705EA070C5CEA040C08BF47
:10A38000BDE8F08100F0AEF80022134600F0A2FC18
:10A390002ED2002D03DD4FF48010F0400544BD4364
:10A3A000002425E0332EC8BFBDE8F081A6F1140CCF
:10A3B0004FF0FF3727FA0CF73C4208BFBDE8F081A9
:10A3C00000F0BEFC0022134600F084FC10D2002DE9
:10A3D0000DDD142E08BF6D1C09D0C6F1340001211B
:10A3E00001FA00F02044A04238BF6D1C0446BC4373
:10A3F00029462046BDE8F0819C7500883CE4377E04
:10A400000000F03FFFFF0F002DE9F04106460F4628
:10A4100000F0A2FC041E0D4618BF0120284320F0C6
:10A420000040C0F17F6000F1E040C00F0ED0301C52
:10A4300018BF0120384320F00040C0F17F6000F1D8
:10A44000E040C00F04BF0120FEF777FF20462946F9
:10A45000BDE8F08110B500290AD00878002807D09F
:10A4600005487844FFF73EFB002801D0002010BDCE
:10A470000248784410BD00008A1A0000821A0000C9
:10A4800021F00042A2F16052B2F5801F01F00043BA
:10A4900028BFD2F17F6C0BD95FEA001C43EAC202ED
:10A4A00042EB507018BF704728BF20F00100704782
:10A4B000B2F5801FBCBF184670474FEA410C1CF52F
:10A4C000001F02D2084601F04CB870B500F0AEFB98
:10A4D00000000089FFF7F6BF4FF00040A0F58000B4
:10A4E0007047000010B591EA030F48BF83F00043A6
:10A4F00000F12085841A71EB030C05D2121943EB8D
:10A500000C03001B61EB0C01DFF824E14FEA11544E
:10A51000A4EB135C1EEA430F18BF9EEA445F73D09E
:10A5200023EA0E03DCF1200E21EA045143F48013E8
:10A5300032D322FA0CFE10EB0E0023FA0CFE41EB94
:10A540000E01CCF1200E03FA0EFE10EB0E0051F1BD
:10A550000001B1F5801FCCF1200E32D201EB045185
:10A5600012FA0EF2BDE8104058BF7047401C38BFC9
:10A570005FEA420218BF7047002814BF20F00100B4
:10A5800041F100014FEA410313F5001F38BF704746
:10A59000A1F1C04100F098BB012A43EB0302ACF1EA
:10A5A000200CDCF11F0E32BF4FF0000E23FA0CF32B
:10A5B00010EB030041EB0451B4EB115FD0D0A1EBE1
:10A5C000045101F5801149085FEA300001EB0451A4
:10A5D0000ED350F1000038BF12FA0EFE08D1BDE8CC
:10A5E0001040C9E7401C38BF5FEA4202CAD1C3E746
:10A5F000BDE810404FEA410313F5001F38BF704714
:10A60000A1F1C04100F060BB9EEA445F08D011EAAE
:10A610005E0FBDE8104004BF01F00041002070470C
:10A62000BDE8104070B500F001FB00BF64FBBE3E0A
:10A630000000E0FF02494FF0000001F04BB800BFFE
:10A640000000F87F491058BFC1F140415B1058BF6E
:10A65000C3F140438B42EFF3008070472DE9C041C6
:10A6600030B4DFF8A0C23CEA111418BF3CEA13145E
:10A6700000F0EC8081EA03051CEA111444EAD57469
:10A6800018BF1CEA131500F0C780A4EB05044FF0B7
:10A69000004545EAC12145EAC32341EA505143EA56
:10A6A000525304F17F74994204F500344FEAC020FC
:10A6B0004FEAC22208BF904200F09C804FEA136527
:10A6C0000FF24016765D4FEA134506FB05F7C7F11A
:10A6D000807706FB07F74FEAD737A7FB0368764278
:10A6E000C8F58038A7FB06CE38BFA8F1010807FBE4
:10A6F00008E64FF0000EA6FB028CE6FB03CEDCF171
:10A70000000CCEF1004E38BFAEF1010EA6FB0C5886
:10A710004FF000074FF00005E6FB0E87A1FB08C6CF
:10A72000A0FB07CE16EB0E0645F10005E1FB076521
:10A7300015F1E04E7EBFA4F580345FEA46066D4118
:10A7400016F1800745F100054FEA17274FEA066624
:10A7500047EA0567A6F1DE46B6F1805F4FEA1525A8
:10A760001FD9384624F0010C05EBC471BCF1FE6F13
:10A7700001EB0C1102D8F0BCBDE8008124425CBFA3
:10A7800001F5801E9EEAC47F02D4F0BCBDE80081C2
:10A79000244238D4F0BCA1F1C041BDE8004100F032
:10A7A00093BA4FEAD22242EA43524FEAD323A7FB9D
:10A7B00002864FEAD02040EA415007FB03661EEABA
:10A7C0000E0F4FEAD12105FB026658BFA6EB0056DB
:10A7D000B6EB00564FEA520E4EEAC37E18EB0E0E51
:10A7E00056EB530EBDD518EB02085E417F1C55F1A8
:10A7F0000005B6E74FF480154FF000074FF0000654
:10A800004FF00008ADE7F0BC4FF0000001F1C0418F
:10A8100001F00041BDE8008111EA0C1F0CEA13159C
:10A8200000D00CE013EA0C1F00F025804FF0000070
:10A83000F0BC81EA030101F00041BDE80081F0BCF9
:10A84000BDE8004181EA030100F03EBAF0BCBDE87A
:10A85000004170B500F0EAF9097EFC3E00F007B84F
:10A8600081EA03014FF0000001F00041704781EAE6
:10A87000030100F029BAF0BCBDE800414FF0000030
:10A8800021497047FFFDFBF9F7F5F4F2F0EEEDEB2F
:10A89000E9E8E6E4E3E1E0DEDDDBDAD8D7D5D4D3DE
:10A8A000D1D0CFCDCCCBCAC8C7C6C5C4C2C1C0BF2A
:10A8B000BEBDBCBBBAB9B8B7B6B5B4B3B2B1B0AF30
:10A8C000AEADACABAAA9A8A8A7A6A5A4A3A3A2A114
:10A8D000A09F9F9E9D9C9C9B9A99999897979695CF
:10A8E00095949393929191908F8F8E8E8D8C8C8B6B
:10A8F0008B8A8989888887878685858484838382F3
:10A90000828181800000FF070000F87F4FEA410349
:10A910004FEA5353A3F58063D3F11E03C8BFD3F1AD
:10A92000210C0CDD4FF0004242EAC12242EA5052B3
:10A9300032FA03FC8CEAE17CACEBE1707047102B3F
:10A94000C4BF0020704703F5787CBCF1FF3F04D002
:10A950006FF0004282EA2100704770B500F066F99E
:10A960004992248000207047F2E710F0004248BF6F
:10A970004042B0FA80F310FA03F10AD0C3F11D038C
:10A9800003F580634FEA415002EB035202EBD12101
:10A9900070474FF0000070477FEAE17202D1101A51
:10A9A00062EB0101B1FA81F30B3B24D3994012D140
:10A9B000B0FA80F310FA03F108BF7047C3F11D032A
:10A9C00003F5406303EBC2234FEAD1224FEA415023
:10A9D00002EB03517047C3F1200C20FA0CFC9840A5
:10A9E000C3F1320303F5406303EBC22341EA0C01D8
:10A9F00001EB0351704710B5C3F1320CC3F10004F1
:10AA0000C4F1200E0CF5406C0CEBC22201FA0EFCD6
:10AA100021FA04F100FA0EF3E040BDE8104040EAEC
:10AA20000C0001EB025138BF7047401C41F100019E
:10AA30005B0008BF20F001007047B0FA80F310FA05
:10AA400003F10AD0C3F11D0303F580634FEA4150BF
:10AA50004FEA035202EBD12170474FF000007047DC
:10AA600051EA030C17D41CF5801F58BFBCF5801F9A
:10AA700000F10680994218BF704708BF90427047A6
:10AA800007D711F5801F58BF13F5801F19D49942BD
:10AA90007047894270471CF5801F08D5BCF5801FA0
:10AAA000F7D58B4218BF704708BF824270474FF4FA
:10AAB000001C1CEB410F38BF1CEB430F01D28B4233
:10AAC000704770B500F0B2F8922449004FF0005181
:10AAD0004FF08053FFF7B6BDDFF848C170B51CEAF0
:10AAE000111E1EBF1CEA13159EEA0C0F95EA0C0FEF
:10AAF00000F06F8081EA030423EA4C134EEAD47E0F
:10AB000021EA4C1141F4801143F48013AE44A1FBBF
:10AB1000024CA0FB0365AEF17F7E361955EB0C05A8
:10AB2000A1FB034C4CF10003A0FB021C16EB0C062E
:10AB3000654153F10003094218BF46F0010613F4C2
:10AB4000007F0BD14FEA03314FEA0530340341EA6D
:10AB5000155140EA16506FF003020AE04FEAC32194
:10AB60004FEAC520F40241EA555140EA56506FF0D1
:10AB7000020202EB2E4201EB025585EACE710AD0A9
:10AB80005FEA440C18BF24F0004450F1000041F18A
:10AB9000000120EAD47040F2FE7C624500D270BD14
:10ABA000A84214BF4FF080444FF04044002E08BF2D
:10ABB0000024BEF1806FA8BFA1F1C041BDE8704084
:10ABC00080F282804FF0000001F1C04101F00041AD
:10ABD00070479EEA0C0F0CEA131518BF95EA0C0F8C
:10ABE00006D04FF0000081EA030E0EF0004170BD68
:10ABF00000F01CF88900013E00F007B800F009B829
:10AC00004FEA430C5FEA5C5C08D081EA030100F084
:10AC10005BB84FEA410C5FEA5C5CF6D14FF0000094
:10AC2000014970470000FF070000F87F0EF1020E97
:10AC30002EF0030E5EF8046B364205D4012A43EB76
:10AC4000030515F5001F12D8012841EB010C1CF576
:10AC5000001F0CD80ED14FEAD17C15F5001F0CEB6C
:10AC60004C0C0CF1020C08BF4CEBD37C04E04FF011
:10AC7000080C01E04FEAD37C0CEB4C0526FA05F6F4
:10AC800006F00706B6F1040C06D20EEB860CBDE802
:10AC900070404CF0010C6047DFE80CF0090B020239
:10ACA0004FF000414FF00000A1F5002170BD1946A2
:10ACB0001046012851EB010418BFD4F5001484BFDD
:10ACC000002001F0004170BD0808A0F500114FEA16
:10ACD0003101704753EA010C17D41CF5801F58BF8F
:10ACE000BCF5801F00F106808B4218BF704708BF7B
:10ACF0008242704707D713F5801F58BF11F5801F98
:10AD000019D48B4270479B4270471CF5801F08D5B1
:10AD1000BCF5801FF7D5994218BF704708BF904215
:10AD200070474FF4001C1CEB430F38BF1CEB410F66
:10AD300001D2994270470FB40CBC03BCFFF7C1BEEF
:10AD400091EA030F10B581F000413FF5D3AB83F0DA
:10AD5000004300F0EFB800002DE9F04101F5801C40
:10AD6000BCF5001FC0F2C3804FEA115C21EA0C5110
:10AD70000CF1FD0C41F480115FEA5C0C0CF5C07C19
:10AD800001D3400049413DA4890241EA9051870224
:10AD90008E0E0A0CA45D04FB04F602FB06F6C6F157
:10ADA0004046A4FB0662F60D46EA422606FB06F480
:10ADB000A4FB01235242C3F1404338BF5B1EA6FBF4
:10ADC00002420024E6FB0324D20B42EA4446A6FBDF
:10ADD0000623A1FB02E2A3FB07E4A4184FF0000244
:10ADE00052F10002E3FB01426442C2F1404E38BF1F
:10ADF000AEF1010EA6FB04234FF00002E6FB0E327B
:10AE0000A2FB03464FF00004B61954F10004E2FB24
:10AE10000264A1FB06E6A4FB07E816EB08064FF068
:10AE2000000858F10008E4FB01687642C8F1405878
:10AE300038BFA8F10108A2FB06E4A3FB08E52D1921
:10AE40004FF0000454F10004E2FB0854A1FB05E6B6
:10AE5000A7FB04E818EB06084FF0000656F10006C1
:10AE6000E1FB048618F1200556F10006A809A8F1B7
:10AE70001B08B10908F03F08B8F10A0F40EA8660E4
:10AE80001CD901EB0C51BDE8F08100BFFCF5EEE8E8
:10AE9000E2DDD8D3CFCBC7C3C0BDB9B6B4B1AEAC79
:10AEA000A9A7A5A3A19F9D9B9A9896959392908FF1
:10AEB0008D8C8B898887868584838281A0FB00683E
:10AEC00000FB01F208EB4208B8EB872807D53418DD
:10AED00058EB0104D5D5401C51F10001D1E7341ADB
:10AEE00078EB0104CDD4401E71F10001C9E75FEA9F
:10AEF0004C0C5FEA9C5C0DD105D34FF0000001F0D3
:10AF00000041BDE8F081BDE8F04170B5FFF78EFE6D
:10AF10006DDBFFBEBDE8F0414FF000000049704717
:10AF20000000F87F10B591EA030F48BF83F000439B
:10AF30003FF5E0AA841A71EB030C07D212198CF0CA
:10AF4000004C43EB0C03001B61EB0C01DFF8A4E1A8
:10AF50004FEA1154A4EB135C1EEA430F18BF9EEA9C
:10AF6000445F00F0B08023EA6E03524221EA0451AC
:10AF7000C3EB6E0338BF5B1EDCF1200E25D322FA33
:10AF80000CFE10EB0E0043FA0CFE41EB0E01CCF16F
:10AF9000200E03FA0EFE10EB0E0051F10001CCF171
:10AFA000200E29D412FA0EF201EB0451BDE8104034
:10AFB00058BF7047401C1CBFB2F1004F70470028BB
:10AFC0000CBF491C20F00100704712EB020E43EB4E
:10AFD000030218BF4FF0010E4EEA4202ACF1200C02
:10AFE000DCF11E0E54D943FA0CFE10EB0E0051F1A9
:10AFF000FF31CCF11E0ED5D50EF1010E12FA0EFE68
:10B00000404141EB010101EB445C5FEA5C5C10D91B
:10B0100010EBDE7001EB045138BFBEF1004FBDE80C
:10B02000104018BF704700280CBF491C20F00100D9
:10B03000704730D24FEAD42C11F5001124F400648B
:10B040001BD0B1FA81F20B3AA41AA41ED2F120034C
:10B05000914030FA03F31943904001EBCC71002C7E
:10B0600001EB0451BDE81040A8BF704701F1C04199
:10B070004FF0000001F000417047B0FA80F310FA81
:10B0800003F100D110BDE41A173C4805C90AE4E7F2
:10B0900001EB045110BD491001EB0451BDE8104013
:10B0A0004FEA300002E04FF0000170474A0008BF4D
:10B0B0000042F8D0B2F5001F28BF704701F00041F0
:10B0C0004FF0000070479EEA445F07D011EA5E0F20
:10B0D000BDE8104004BF002100207047BDE81040CB
:10B0E00070B5FFF7A3FD00BF40DFF63E83F00041DF
:10B0F000104670470000E0FF43004FEAD30C4FEAD0
:10B100003C0C43401FBF40070CF1605113F0FE4F51
:10B1100070471CF0006F03D100200CF00041704715
:10B120000CF0004343EA507010B540EACC0000F048
:10B13000D2F900BF000000924FEA0001FFF7C4BD42
:10B140004FF000414FF00000A1F5002170470000D2
:10B1500090EA010F48BF81F0004100F10E82421ACF
:10B160003CBF801A89184FEAD0524FF07F4C1CEA3E
:10B17000410FA2EBD15318BF9CEA026F00F03B8055
:10B180004FF0004C4CEA00204CEA012121FA03FC6C
:10B1900010EB0C0C1ED202F1FF325FEA1C2040EBD8
:10B1A000C25038BF70471CF07F0F4FEA400C18BFE9
:10B1B000BCF17F4F38BF7047C3F12003994008BFEF
:10B1C00020F00100BCF17F4F38BF7047A0F1C040B4
:10B1D00000F0C7B94FEA3C00000A40EBC25028BF5C
:10B1E0001CF0FF0F4FEA400CE6D018BFBCF17F4FB8
:10B1F00038BF7047EAE79CEA026F05D010EA5C0F9F
:10B2000008BF00F00040704710B500F064F900BFBF
:10B2100064FBBE3E014800F05DBA00BF0000C07F85
:10B220004FF47F0C1CEAD0121EBF1CEAD11392EA25
:10B230000C0F93EA0C0F00F0858090EA010F48BFD5
:10B2400042F4807240F4000C41F400002CF07F4185
:10B2500020F07F4000B58142A2EB03020FF2081CF0
:10B26000ACEB504EC0F100009EF800E04FEA4E0EED
:10B2700000FB0EFC38BF49004FEA2C1C02F5FA0215
:10B280000CFB0EF34FEACE1E4FEA112C4FEAC12100
:10B290000EEB635E42EB22420EFB0CFC4FEA1C53AA
:10B2A00000FB03114FEA112C4FEA01310EFB0CFC9D
:10B2B0004FEADC4C00FB0C11C14228BF09184CEBD3
:10B2C00003335DF804EB10EB410143EBC250B2F5E0
:10B2D0007C0F38BF704729D512F0F00F1CBF00F16A
:10B2E000C04000F0004070470081828384858687DB
:10B2F00088898B8C8D8E8F919293959697999A9C35
:10B300009D9FA0A2A3A5A7A8AAACAEB0B2B3B5B7A3
:10B31000B9BCBEC0C2C5C7C9CCCED1D4D7D9DCDF79
:10B32000E2E6E9ECF0F3F7FAFE0000004FEA400C29
:10B330000CF1807CBCF17E4F28BF7047B0F1C0405B
:10B3400000F00FB990EA010F0CEAD11348BF42F4A4
:10B350008072624538BF634507D213F47F0F16D061
:10B3600080EA010000F00040704710B500F0B3F82B
:10B37000097EFC3E00F005B880EA010000F00040C4
:10B38000704780EA010000F0004000F0EAB812F4D3
:10B390007F0F04BF0248704780EA010000F0E1B867
:10B3A0000000C07F10F0004148BF4042B0FA80F377
:10B3B00010FA03F2C3F19D030BD051EAC35101EB24
:10B3C0001220530638BF704700F1010008BF20F07B
:10B3D000010070474FF47F0C1CEAD0121EBF1CEA1C
:10B3E000D11392EA0C0F93EA0C0F00F0478090EA19
:10B3F000010F48BF42F480724FF0004C4CEA00202D
:10B400004CEA012102EB0302A0FB0113A2F50002AA
:10B41000002918BF43F001035B0028BF4FEA330344
:10B4200042EB22425FEA132C4CEBC2502EBFBCEB26
:10B43000436FB2F57C0F70474FEA036CBCF1004FCD
:10B4400008BF20F00100B2F57C0F38BF70470BD564
:10B4500082F0FF0212F5803FC8BF704700F1C04084
:10B46000D8BF00F00040704700F5000C5FEA4C0CBC
:10B4700048BF7047B0F1C04000F073B890EA010FC8
:10B480000CEAD11348BF42F48072624538BF63456D
:10B4900004D280EA010000F00040704710B500F0CF
:10B4A0001AF800BF8900013E00F007B800F009B8A3
:10B4B0005FEA410C5FEA1C6C08D080EA010000F0F2
:10B4C00050B85FEA400C5FEA1C6CF6D14FF00040C8
:10B4D000A0F5800070470EF1020E2EF0030E5EF80C
:10B4E000044B244204D44FEA4102B2F17F4F11D8F9
:10B4F0004FEA4003B3F17F4F0CD80ED14FEAD07C16
:10B50000B2F17F4F0CEB4C0C0CF1020C08BF4CEB72
:10B51000D17C04E04FF0080C01E04FEAD17C0CEB49
:10B520004C0324FA03F404F00704B4F1040C06D22B
:10B530000EEB840CBDE810404CF0010C6047DFE8D6
:10B540000CF0070802024FF00040A0F5800010BD8B
:10B550000846420018BFD2F1807288BF00F0004058
:10B5600010BDFF2141EAD050C005704790EA010F9D
:10B5700048BF81F000413FF5F2AD421A04D882F095
:10B580000042A0EB020011444FEAD0524FF07F4C32
:10B590001CEA410FA2EBD15318BF9CEA026F4AD0BC
:10B5A0004FF0004C4CEA00204CEA012121FA03FC48
:10B5B000B0EB0C0C0FD412F0FE0F36D05FEA4C004B
:10B5C0001DD5001240EBC25038BF70471CF03F0F32
:10B5D00018BF70470BE0A2F101025FEA1C2040EBAC
:10B5E000C25038BF70471CF07F0F18BF7047C3F1BF
:10B5F0002003994014BF401E20F0010070478008CE
:10B600004FEA122308BF7047B0FA80FCA2EB0C028D
:10B61000CCF1280C60FA0CF093EA122F04BF00EB77
:10B62000C25070474FEAC3707047130A5FEADC10DC
:10B6300008BF7047F6E79CEA026F04D010EA5C0F7F
:10B6400008BF0020704710B5FFF745FF40DFF63E0A
:10B6500081F00040704700004FEAC1230A1543EA19
:10B6600050534FEAC02C18BF43F000431BD4A2F242
:10B670004E02D2F57C72C0F22080502AA8BF502220
:10B6800023FA02F12CFA02F060B4D2F1200284BF56
:10B6900003FA02F52843C2F100029CBF23FA02F527
:10B6A000284360BC704701F1804212F5801F04DA24
:10B6B0004FF000004FF00001704770B5FFF7B6FA89
:10B6C00049922480002001E06FEAE1700146704752
:10B6D000FDF76BBF0CF00F03092B08BF082000F02B
:10B6E0007F800A2B0BD0082B18BF704708BF1CF0B7
:10B6F000400F0AD04FF000004FF0000170471CF0DF
:10B70000400F18BF4FF0004070471CF0100F08D0DA
:10B7100020F0704300F07F4242EAD3014FEA4370C9
:10B72000704700F0604021F07F4242EA000201F0E1
:10B730007F4040EA727070474FF0FF0C4CF4E06CB1
:10B740001CEA11531CBF9CEA030C9445C2BFDA42A9
:10B7500001EB02517047002B0DD0BCF1000F0FD050
:10B76000002A01F00041A4BF41F0E04141F07F61B7
:10B770004FF00000704701F000414FF000007047AB
:10B7800050EA01334FF09B0C18BF4CF0806C7EF4F4
:10B7900051AF70474FF0FF0212EAD0521CBF92F037
:10B7A000FF038B42C2BFD14200EBC1507047002A59
:10B7B0000AD0002B0BD0002900F00040A4BF40F0BD
:10B7C000FE4040F40000704700F000407047430224
:10B7D0004FF00B0C18BF4CF0806C7FF41BAD704722
:10B7E0001CF4801F11D01CF4E02F03D06FEACC3181
:10B7F000490070474FF04050EFF3008222F0704252
:10B8000042EA000282F3008870474FF00000704760
:10B81000000000000000000000000000C90000005F
:10B820007555351567472707C20000007555351552
:10B8300067472707C50000006F4F2F0F8B6B4B2BFF
:10B84000950000005F3F1F1F9A7A5A3AC00000001F
:10B850004828080E8565452500000000000000000E
:10B86000000000009300000092725232D1B1715179
:10B870002240344040403A400000010203040005E9
:10B88000405C0000A05C0400C06C0800805C040008
:10B89000E03F1E00E07D1E00070400091E08054071
:10B8A0000826091040085608054008261D0400080F
:10B8B000BE1D040008BE70D8BC00000007A9022508
:10B8C00070889B88401008000A00160001000600DE
:10B8D0000100020087008D002D001A3152001A333A
:10B8E0009A001A351D011A376B003B31BE003B33FD
:10B8F0005E013B3596023B37000099599959EB514F
:10B900008F421E45142E0080EB51F5283333E13A67
:10B91000703DE13AC235852BC2353333C235C2356D
:10B92000AE47E13A5138A33051380000010200031C
:10B9300000000000000000000001010304050709E9
:10B940000B0C0D0F121417191C1E2124282B2F323B
:10B95000363A3F42474C5259626D7F9BDEFFFF01F2
:10B960000204050608090A0C0D0F121416181B1DF7
:10B97000202326292C2F33373A3E42474E55606FFD
:10B9800087C2F0FF01020304050708090A0C0E1024
:10B99000121416181A1C1F2124272A2D3134373B64
:10B9A0003F454C556278ADD5FF0101020304050601
:10B9B000060708090B0C0E0F1012141517191B1D82
:10B9C0001F222426292C30353B44537894FF070747
:10B9D0000809090A0B0B0C0D0E0F10111213141588
:10B9E0001617181A1B1C1E1F20222426282A2C2E4C
:10B9F00030323437393B3D3F4244474A4E51555926
:10BA00005E63686E747B828B96A4B6CFEEFFFFFFF9
:10BA1000FFFF0405050506060707070809090A0AC6
:10BA20000B0B0C0D0D0E0F10111112131415161710
:10BA3000191A1B1D1E1F202223242627282A2C2EDC
:10BA4000303234373A3D4044484B50555C65707F46
:10BA500093A8B6C2CDFF010202030405070A0D1028
:10BA60001316181B1E2023262B30384E65789DFF99
:10BA700001020203040406090C0E111315181A1C06
:10BA80001F21252A314459698AFF01010203030459
:10BA900005080A0D0F11131517191B1E21252C3C23
:10BAA0004F5D7AFF010101020203040607090A0C37
:10BAB0000D0F10111315171A1E2A374155FF0708CD
:10BAC0000809090A0B0C0D0D0E0F1010111213139B
:10BAD00014151618191B1C1D1E2021222325272989
:10BAE0002B2D303235383C40444A5159626D7A88AA
:10BAF000929AA2B2DCF9FFFFFF04050505060607CE
:10BB000007080809090A0A0A0B0B0C0D0D0E0F1085
:10BB100010111213131415161718191A1C1D1F21B2
:10BB20002325272A2E32363C434B535A5F646E87B7
:10BB300099ACC0FF1201000202000040830440578C
:10BB400000020102030109024300020100C03209A0
:10BB50000400000102020100052400100105240177
:10BB600000010424020205240600010705820308DF
:10BB700000FF09040100020A00000007050302405B
:10BB8000000007058102400000040309041803486F
:10BB90000069006B0065007200200073007500648E
:10BBA0000069006F0026035600690072007400757A
:10BBB0000061006C00200043004F004D0020005049
:10BBC000006F0072007400200020003031323334E6
:10BBD00035363738394142434445464030580030C5
:10BBE00031323334353637383961626364656640E3
:10BBF000307800040000080000000000000002008F
:10BC00000100001002400000000000A00000000041
:10BC100005400000000000C8000000000C400000CB
:10BC20000000409C00000000194000000020BCBE45
:10BC30000000000034400000BFC91B8E000000045B
:10BC4000B5400000504BCFD06607E2CF01000000A6
:10BC50006C4100003E8251AADFEEA73401000000D3
:10BC6000D9420000DCB5A0E23A301F97FFFFFFFF8A
:10BC7000B4450000FD25A0C8E9A3C14FFFFFFFFFA9
:10BC8000FF3F00000000008000000000FF3F0000B8
:10BC900000000080000000007C20202020202020C8
:10BCA0002020202020202020202020202020202094
:10BCB0002020202020202020202020202020202084
:10BCC0002020202020202020202020202020202074
:10BCD000202020202020202020200D0A000000000D
:10BCE0007C2020202020202020202020204279207D
:10BCF00056696E63656E74204C796E6E2066726F45
:10BD00006D2059554E48454B454A4920494F5420CE
:10BD10006C7464202020202020202020202020203F
:10BD200020200D0A000000007C20202020555742D2
:10BD3000202020202020202D2D2D205265616C20D8
:10BD400054696D65204C6F636174696F6E2053791F
:10BD50007374656D202856657273696F6E2032307A
:10BD6000323130333033292020200D0A000000000A
:10BD70007C20202020555742204D696E6934202DAB
:10BD80002D2D205265616C2054696D65204C6F63C8
:10BD90006174696F6E2053797374656D20285665E0
:10BDA0007273696F6E203230323130333033292074
:10BDB00020200D0A000000007C2A2A2A2A2A2A2A8A
:10BDC0002A2A2A2A2A2A2A2A2A2A2A2A28432920C7
:10BDD000434F50595249474854203230323120D4D1
:10BDE000C6BACDBFC6BCBC2A2A2A2A2A2A2A2A2A8F
:10BDF0002A2A2A2A2A2A2A2A2A2A0D0A0000000088
:10BE000054686520717569636B2062726F776E206C
:10BE1000666F78206A756D7073206F766572207416
:10BE20006865206C617A7920646F672E205468659C
:10BE300020717569636B2062726F776E20666F7810
:10BE4000206A756D7073206F766572207468652046
:10BE50006C617A7920646F672E2054686520717553
:10BE600069636B2062726F776E20666F78206A75E7
:10BE70006D7073206F76657220746865206C0000A9
:10BE80004F54502050524F472033323A204552529F
:10BE90004F5220565050204E4F54204F4B2C207064
:10BEA000726F6772616D6D696E672077696C6C2067
:10BEB0006661696C2E20417265204D522F4D5241B2
:10BEC0002F4D5242207365743F0A000008BF0008DE
:10BED00000000020400200002801000804C0000803
:10BEE00040020020B01F0000840100081C00000078
:10BEF00043000000F8FFFFFF0C0000000E000000F0
:10BF00000F0000002E000000C1AA020C12011B0449
:10BF100008053008210402010204141281130501EE
:10BF20004A03144D0501020314121C12051A8C0257
:10BF30001C204E050A1A19020B12C4091481F012B2
:10BF40006E5665722E20322E3130205452454B0DE4
:10BF50000A4B881304A39F1B0B14F4010C01281433
:10BF600026035612691272127412751261126C1243
:10BF7000201243124F1A4D0812503A6F181A20021D
:10BF800001161355560C1C081763040A119124510D
:10BF90002AC2AD12081334BB3308121A46083243C2
:10BFA0001365581B0881041369591B0879041AA3E7
:10BFB000041AED0413355A1B080B041A13041A1B38
:10BFC000044132401A893832041A8D0832181AA5F1
:10BFD00008322622E42A20081A046729741A5144D8
:10BFE0000916A41A611C41299201224C0204062E52
:10BFF0002C0203040435060708092BA24A8751695D
:04C000001600000026
:04000005080000ED02
:00000001FF
