Component: ARM Compiler 5.06 update 5 (build 528) Tool: armlink [4d35e2]

==============================================================================

Section Cross References

    main.o(.text) refers to _printf_percent.o(.ARM.Collect$$_printf_percent$$00000000) for _printf_percent
    main.o(.text) refers to _printf_d.o(.ARM.Collect$$_printf_percent$$00000009) for _printf_d
    main.o(.text) refers to _printf_dec.o(.text) for _printf_int_dec
    main.o(.text) refers to instance.o(.text) for instancesetaddresses
    main.o(.text) refers to port.o(.text) for SPI_ConfigFastRate
    main.o(.text) refers to instance_common.o(.text) for instancereaddeviceid
    main.o(.text) refers to stm32f10x_gpio.o(.text) for GPIO_ResetBits
    main.o(.text) refers to delay.o(.text) for Sleep
    main.o(.text) refers to deca_device.o(.text) for dwt_softreset
    main.o(.text) refers to instance_calib.o(.text) for instance_starttxtest
    main.o(.text) refers to usart.o(.text) for uart_init
    main.o(.text) refers to led.o(.text) for GPIO_Configuration
    main.o(.text) refers to timer.o(.text) for TIM2_Int_Init
    main.o(.text) refers to device_info.o(.text) for Flash_Configuration
    main.o(.text) refers to hw_config.o(.text) for USB_Config
    main.o(.text) refers to dma.o(.text) for MYDMA_Config
    main.o(.text) refers to stm32f10x_usart.o(.text) for USART_DMACmd
    main.o(.text) refers to atcmd.o(.text) for Display_DeviceInfo
==============================================================================

Removing Unused input sections from the image.

    Removing main.o(.rev16_text), (4 bytes).
    Removing main.o(.revsh_text), (4 bytes).
    Removing main.o(.rrx_text), (6 bytes).
    Removing main.o(.bss), (140 bytes).
    Removing main.o(.data), (1 bytes).
    Removing main.o(.data), (4 bytes).
    Removing main.o(.data), (4 bytes).
    Removing main.o(.data), (4 bytes).
    Removing atcmd.o(.rev16_text), (4 bytes).
    Removing atcmd.o(.revsh_text), (4 bytes).
    Removing atcmd.o(.rrx_text), (6 bytes).
    Removing instance.o(.rev16_text), (4 bytes).
    Removing instance.o(.revsh_text), (4 bytes).
    Removing instance.o(.rrx_text), (6 bytes).
    Removing instance_calib.o(.rev16_text), (4 bytes).
    Removing instance_calib.o(.revsh_text), (4 bytes).
    Removing instance_calib.o(.rrx_text), (6 bytes).
    Removing instance_common.o(.rev16_text), (4 bytes).
==============================================================================

Image Symbol Table

    Local Symbols

    Symbol Name                              Value     Ov Type        Size  Object(Section)

    ../clib/angel/boardlib.s                 0x00000000   Number         0  boardinit1.o ABSOLUTE
    ../clib/angel/boardlib.s                 0x00000000   Number         0  boardinit2.o ABSOLUTE
    ../clib/angel/boardlib.s                 0x00000000   Number         0  boardinit3.o ABSOLUTE
    ../clib/angel/boardlib.s                 0x00000000   Number         0  boardshut.o ABSOLUTE
    ../clib/angel/dczerorl2.s                0x00000000   Number         0  __dczerorl2.o ABSOLUTE
    ../clib/angel/handlers.s                 0x00000000   Number         0  __scatter_zi.o ABSOLUTE
    ../clib/angel/kernel.s                   0x00000000   Number         0  rtexit.o ABSOLUTE
    ../clib/angel/kernel.s                   0x00000000   Number         0  rtexit2.o ABSOLUTE
    ../clib/angel/kernel.s                   0x00000000   Number         0  __rtentry.o ABSOLUTE
    ../clib/angel/kernel.s                   0x00000000   Number         0  __rtentry4.o ABSOLUTE
    ../clib/angel/kernel.s                   0x00000000   Number         0  __rtentry2.o ABSOLUTE
    ../clib/angel/rt.s                       0x00000000   Number         0  rt_locale_intlibspace.o ABSOLUTE
    ../clib/angel/rt.s                       0x00000000   Number         0  rt_raise.o ABSOLUTE
    ../clib/angel/rt.s                       0x00000000   Number         0  rt_errno_addr_intlibspace.o ABSOLUTE
    ../clib/angel/rt.s                       0x00000000   Number         0  rt_errno_addr.o ABSOLUTE
    ../clib/angel/rt.s                       0x00000000   Number         0  rt_locale.o ABSOLUTE
    ../clib/angel/scatter.s                  0x00000000   Number         0  __scatter.o ABSOLUTE
    ../clib/angel/startup.s                  0x00000000   Number         0  __main.o ABSOLUTE
    ../clib/angel/sys.s                      0x00000000   Number         0  use_no_semi_2.o ABSOLUTE
    ../clib/angel/sys.s                      0x00000000   Number         0  sys_stackheap_outer.o ABSOLUTE
    ../clib/angel/sys.s                      0x00000000   Number         0  libspace.o ABSOLUTE
    ../clib/angel/sys.s                      0x00000000   Number         0  use_no_semi.o ABSOLUTE
    ../clib/angel/sys.s                      0x00000000   Number         0  indicate_semi.o ABSOLUTE
    ../clib/angel/sysapp.c                   0x00000000   Number         0  sys_wrch.o ABSOLUTE
    ../clib/angel/sysapp.c                   0x00000000   Number         0  sys_command.o ABSOLUTE
    ../clib/armsys.c                         0x00000000   Number         0  _get_argv_nomalloc.o ABSOLUTE
    ../clib/armsys.c                         0x00000000   Number         0  argv_veneer.o ABSOLUTE
    ../clib/armsys.c                         0x00000000   Number         0  no_argv.o ABSOLUTE
    ../clib/armsys.c                         0x00000000   Number         0  argv_veneer.o ABSOLUTE
    ../clib/bigflt.c                         0x00000000   Number         0  bigflt0.o ABSOLUTE
    ../clib/btod.s                           0x00000000   Number         0  btod.o ABSOLUTE
    ../clib/fenv.c                           0x00000000   Number         0  _rserrno.o ABSOLUTE
    ../clib/heapalloc.c                      0x00000000   Number         0  hrguard.o ABSOLUTE
    ../clib/heapaux.c                        0x00000000   Number         0  heapauxi.o ABSOLUTE
    ../clib/libinit.s                        0x00000000   Number         0  libinit2.o ABSOLUTE
    ../clib/libinit.s                        0x00000000   Number         0  libinit.o ABSOLUTE
    ../clib/libinit.s                        0x00000000   Number         0  libshutdown2.o ABSOLUTE
    ../clib/libinit.s                        0x00000000   Number         0  libshutdown.o ABSOLUTE
    ../clib/locale.s                         0x00000000   Number         0  lc_numeric_c.o ABSOLUTE
    ../clib/longlong.s                       0x00000000   Number         0  lludiv10.o ABSOLUTE
    ../clib/memcpset.s                       0x00000000   Number         0  rt_memcpy_v6.o ABSOLUTE
    ../clib/memcpset.s                       0x00000000   Number         0  rt_memcpy_w.o ABSOLUTE
    ../clib/memcpset.s                       0x00000000   Number         0  rt_memclr.o ABSOLUTE
    ../clib/memcpset.s                       0x00000000   Number         0  rt_memclr_w.o ABSOLUTE
    ../clib/memcpset.s                       0x00000000   Number         0  strcmpv7m.o ABSOLUTE
    ../clib/misc.s                           0x00000000   Number         0  printf_stubs.o ABSOLUTE
    ../clib/printf.c                         0x00000000   Number         0  _printf_hex_ptr.o ABSOLUTE
    ../clib/printf.c                         0x00000000   Number         0  _sputc.o ABSOLUTE
    ../clib/printf.c                         0x00000000   Number         0  _printf_char_common.o ABSOLUTE
    ../clib/printf.c                         0x00000000   Number         0  _printf_hex_int_ll.o ABSOLUTE
    ../clib/printf.c                         0x00000000   Number         0  __printf.o ABSOLUTE
    ../clib/printf.c                         0x00000000   Number         0  _printf_fp_dec.o ABSOLUTE
    ../clib/printf.c                         0x00000000   Number         0  _printf_intcommon.o ABSOLUTE
    ../clib/printf.c                         0x00000000   Number         0  __printf_flags_ss_wp.o ABSOLUTE
    ../clib/printf.c                         0x00000000   Number         0  __printf_ss_wp.o ABSOLUTE
    ../clib/printf.c                         0x00000000   Number         0  noretval__2printf.o ABSOLUTE
    ../clib/printf.c                         0x00000000   Number         0  _printf_pad.o ABSOLUTE
    ../clib/printf.c                         0x00000000   Number         0  __2sprintf.o ABSOLUTE
    ../clib/printf.c                         0x00000000   Number         0  _printf_hex_int_ptr.o ABSOLUTE
    ../clib/printf.c                         0x00000000   Number         0  __printf_flags_wp.o ABSOLUTE
    ../clib/printf.c                         0x00000000   Number         0  _printf_hex_int.o ABSOLUTE
    ../clib/printf.c                         0x00000000   Number         0  _printf_dec.o ABSOLUTE
    ../clib/printf.c                         0x00000000   Number         0  __printf_wp.o ABSOLUTE
    ../clib/printf.c                         0x00000000   Number         0  __printf_flags_ss.o ABSOLUTE
    ../clib/printf.c                         0x00000000   Number         0  __printf_ss.o ABSOLUTE
    ../clib/printf.c                         0x00000000   Number         0  __printf_flags.o ABSOLUTE
    ../clib/printf.c                         0x00000000   Number         0  __2printf.o ABSOLUTE
    ../clib/printf.c                         0x00000000   Number         0  _printf_hex_ll.o ABSOLUTE
    ../clib/printf.c                         0x00000000   Number         0  _printf_hex_int_ll_ptr.o ABSOLUTE
    ../clib/printf.c                         0x00000000   Number         0  _printf_hex_ll_ptr.o ABSOLUTE
    ../clib/printf.c                         0x00000000   Number         0  noretval__2sprintf.o ABSOLUTE
    ../clib/printf.c                         0x00000000   Number         0  _printf_fp_infnan.o ABSOLUTE
    ../clib/printf.c                         0x00000000   Number         0  __printf_nopercent.o ABSOLUTE
    ../clib/printf.c                         0x00000000   Number         0  _printf_char_file.o ABSOLUTE
    ../clib/printf_percent.s                 0x00000000   Number         0  _printf_d.o ABSOLUTE
    ../clib/printf_percent.s                 0x00000000   Number         0  _printf_x.o ABSOLUTE
    ../clib/printf_percent.s                 0x00000000   Number         0  _printf_f.o ABSOLUTE
    ../clib/printf_percent.s                 0x00000000   Number         0  _printf_percent_end.o ABSOLUTE
    ../clib/printf_percent.s                 0x00000000   Number         0  _printf_percent.o ABSOLUTE
    ../clib/signal.c                         0x00000000   Number         0  defsig_rtmem_outer.o ABSOLUTE
    ../clib/signal.c                         0x00000000   Number         0  defsig_exit.o ABSOLUTE
    ../clib/signal.c                         0x00000000   Number         0  defsig_abrt_inner.o ABSOLUTE
    ../clib/signal.c                         0x00000000   Number         0  defsig_rtmem_formal.o ABSOLUTE
    ../clib/signal.c                         0x00000000   Number         0  defsig_rtred_inner.o ABSOLUTE
    ../clib/signal.c                         0x00000000   Number         0  defsig_pvfn_inner.o ABSOLUTE
    ../clib/signal.c                         0x00000000   Number         0  defsig_general.o ABSOLUTE
    ../clib/signal.c                         0x00000000   Number         0  __raise.o ABSOLUTE
    ../clib/signal.c                         0x00000000   Number         0  defsig_stak_inner.o ABSOLUTE
    ../clib/signal.c                         0x00000000   Number         0  defsig_other.o ABSOLUTE
    ../clib/signal.c                         0x00000000   Number         0  defsig_rtmem_inner.o ABSOLUTE
    ../clib/signal.c                         0x00000000   Number         0  defsig_fpe_inner.o ABSOLUTE
    ../clib/signal.c                         0x00000000   Number         0  defsig_cppl_inner.o ABSOLUTE
    ../clib/signal.c                         0x00000000   Number         0  defsig_segv_inner.o ABSOLUTE
    ../clib/signal.s                         0x00000000   Number         0  defsig.o ABSOLUTE
    ../clib/stdio.c                          0x00000000   Number         0  ferror.o ABSOLUTE
    ../clib/stdio.c                          0x00000000   Number         0  ferror_locked.o ABSOLUTE
    ../clib/stdlib.c                         0x00000000   Number         0  exit.o ABSOLUTE
    ../clib/string.c                         0x00000000   Number         0  strstr.o ABSOLUTE
    ../fplib/d2f.s                           0x00000000   Number         0  d2f.o ABSOLUTE
    ../fplib/daddsub.s                       0x00000000   Number         0  daddsub_clz.o ABSOLUTE
    ../fplib/dcheck1.s                       0x00000000   Number         0  dcheck1.o ABSOLUTE
    ../fplib/dcmpi.s                         0x00000000   Number         0  dcmpi.o ABSOLUTE
    ../fplib/ddiv.s                          0x00000000   Number         0  ddiv.o ABSOLUTE
    ../fplib/dfix.s                          0x00000000   Number         0  dfix.o ABSOLUTE
    ../fplib/dfixull.s                       0x00000000   Number         0  dfixull.o ABSOLUTE
    ../fplib/dflt.s                          0x00000000   Number         0  dflt_clz.o ABSOLUTE
    ../fplib/dfltll.s                        0x00000000   Number         0  dfltll_clz.o ABSOLUTE
    ../fplib/dleqf.s                         0x00000000   Number         0  dleqf.o ABSOLUTE
    ../fplib/dmul.s                          0x00000000   Number         0  dmul.o ABSOLUTE
    ../fplib/dnaninf.s                       0x00000000   Number         0  dnaninf.o ABSOLUTE
    ../fplib/dretinf.s                       0x00000000   Number         0  dretinf.o ABSOLUTE
    ../fplib/drleqf.s                        0x00000000   Number         0  drleqf.o ABSOLUTE
    ../fplib/dsqrt.s                         0x00000000   Number         0  dsqrt_noumaal.o ABSOLUTE
    ../fplib/f2d.s                           0x00000000   Number         0  f2d.o ABSOLUTE
    ../fplib/faddsub.s                       0x00000000   Number         0  faddsub_clz.o ABSOLUTE
    ../fplib/fcheck1.s                       0x00000000   Number         0  fcheck1.o ABSOLUTE
    ../fplib/fdiv.s                          0x00000000   Number         0  fdiv.o ABSOLUTE
    ../fplib/fflt.s                          0x00000000   Number         0  fflt_clz.o ABSOLUTE
    ../fplib/fmul.s                          0x00000000   Number         0  fmul.o ABSOLUTE
    ../fplib/fnaninf.s                       0x00000000   Number         0  fnaninf.o ABSOLUTE
    ../fplib/fpinit.s                        0x00000000   Number         0  fpinit.o ABSOLUTE
    ../fplib/fretinf.s                       0x00000000   Number         0  fretinf.o ABSOLUTE
    ../fplib/istatus.s                       0x00000000   Number         0  istatus.o ABSOLUTE
    ../fplib/printf1.s                       0x00000000   Number         0  printf1.o ABSOLUTE
    ../fplib/retnan.s                        0x00000000   Number         0  retnan.o ABSOLUTE
    ../fplib/scalbn.s                        0x00000000   Number         0  scalbn.o ABSOLUTE
    ../fplib/scalbnf.s                       0x00000000   Number         0  scalbnf.o ABSOLUTE
    ../fplib/trapv.s                         0x00000000   Number         0  trapv.o ABSOLUTE
    ../fplib/usenofp.s                       0x00000000   Number         0  usenofp.o ABSOLUTE
    ../mathlib/ceil.c                        0x00000000   Number         0  ceil.o ABSOLUTE
    ../mathlib/fpclassify.c                  0x00000000   Number         0  fpclassify.o ABSOLUTE
    ../mathlib/sqrt.c                        0x00000000   Number         0  sqrt_x.o ABSOLUTE
    ../mathlib/sqrt.c                        0x00000000   Number         0  sqrt.o ABSOLUTE
    ..\HARDWARE\ADCS\adcs.c                  0x00000000   Number         0  adcs.o ABSOLUTE
    ..\HARDWARE\DMA\dma.c                    0x00000000   Number         0  dma.o ABSOLUTE
    ..\HARDWARE\IWDG\iwdg.c                  0x00000000   Number         0  iwdg.o ABSOLUTE
    ..\HARDWARE\LED\led.c                    0x00000000   Number         0  led.o ABSOLUTE
    ..\HARDWARE\PORT\port.c                  0x00000000   Number         0  port.o ABSOLUTE
    ..\HARDWARE\RTC\rtc.c                    0x00000000   Number         0  rtc.o ABSOLUTE
    ..\HARDWARE\TIMER\timer.c                0x00000000   Number         0  timer.o ABSOLUTE
    ..\HARDWARE\WKUP\wkup.c                  0x00000000   Number         0  wkup.o ABSOLUTE
    ..\HARDWARE\application\atcmd.c          0x00000000   Number         0  atcmd.o ABSOLUTE
    ..\HARDWARE\application\instance.c       0x00000000   Number         0  instance.o ABSOLUTE
    ..\HARDWARE\application\instance_calib.c 0x00000000   Number         0  instance_calib.o ABSOLUTE
    ..\HARDWARE\application\instance_common.c 0x00000000   Number         0  instance_common.o ABSOLUTE
    ..\HARDWARE\decadriver\deca_device.c     0x00000000   Number         0  deca_device.o ABSOLUTE
    ..\HARDWARE\decadriver\deca_params_init.c 0x00000000   Number         0  deca_params_init.o ABSOLUTE
    ..\HARDWARE\decadriver\deca_range_tables.c 0x00000000   Number         0  deca_range_tables.o ABSOLUTE
    ..\HARDWARE\myfile\myfile.c              0x00000000   Number         0  myfile.o ABSOLUTE
    ..\HARDWARE\platform\deca_mutex.c        0x00000000   Number         0  deca_mutex.o ABSOLUTE
    ..\HARDWARE\platform\deca_spi.c          0x00000000   Number         0  deca_spi.o ABSOLUTE
    ..\HARDWARE\platform\device_info.c       0x00000000   Number         0  device_info.o ABSOLUTE
    ..\HARDWARE\sensor\lis3mdl.c             0x00000000   Number         0  lis3mdl.o ABSOLUTE
    ..\HARDWARE\sensor\lps25h.c              0x00000000   Number         0  lps25h.o ABSOLUTE
    ..\HARDWARE\sensor\lsm6ds3.c             0x00000000   Number         0  lsm6ds3.o ABSOLUTE
    ..\HARDWARE\sensor\spi.c                 0x00000000   Number         0  spi.o ABSOLUTE
    ..\HARDWARE\stm32flash\stmflash.c        0x00000000   Number         0  stmflash.o ABSOLUTE
    ..\Public\Queue.c                        0x00000000   Number         0  queue.o ABSOLUTE
    ..\SYSTEM\delay\delay.c                  0x00000000   Number         0  delay.o ABSOLUTE
    ..\SYSTEM\sys\sys.c                      0x00000000   Number         0  sys.o ABSOLUTE
    ..\SYSTEM\usart\usart.c                  0x00000000   Number         0  usart.o ABSOLUTE
    ..\USB\lib\usb_core.c                    0x00000000   Number         0  usb_core.o ABSOLUTE
    ..\USB\lib\usb_init.c                    0x00000000   Number         0  usb_init.o ABSOLUTE
    ..\USB\lib\usb_int.c                     0x00000000   Number         0  usb_int.o ABSOLUTE
    ..\USB\lib\usb_mem.c                     0x00000000   Number         0  usb_mem.o ABSOLUTE
    ..\USB\lib\usb_regs.c                    0x00000000   Number         0  usb_regs.o ABSOLUTE
    ..\USB\lib\usb_sil.c                     0x00000000   Number         0  usb_sil.o ABSOLUTE
    ..\USB\src\hw_config.c                   0x00000000   Number         0  hw_config.o ABSOLUTE
    ..\USB\src\usb_desc.c                    0x00000000   Number         0  usb_desc.o ABSOLUTE
    ..\USB\src\usb_endp.c                    0x00000000   Number         0  usb_endp.o ABSOLUTE
    ..\USB\src\usb_istr.c                    0x00000000   Number         0  usb_istr.o ABSOLUTE
    ..\USB\src\usb_it.c                      0x00000000   Number         0  usb_it.o ABSOLUTE
    ..\USB\src\usb_prop.c                    0x00000000   Number         0  usb_prop.o ABSOLUTE
    ..\USB\src\usb_pwr.c                     0x00000000   Number         0  usb_pwr.o ABSOLUTE
    ..\\HARDWARE\\ADCS\\adcs.c               0x00000000   Number         0  adcs.o ABSOLUTE
    ..\\HARDWARE\\DMA\\dma.c                 0x00000000   Number         0  dma.o ABSOLUTE
    ..\\HARDWARE\\IWDG\\iwdg.c               0x00000000   Number         0  iwdg.o ABSOLUTE
    ..\\HARDWARE\\LED\\led.c                 0x00000000   Number         0  led.o ABSOLUTE
    ..\\HARDWARE\\PORT\\port.c               0x00000000   Number         0  port.o ABSOLUTE
    ..\\HARDWARE\\RTC\\rtc.c                 0x00000000   Number         0  rtc.o ABSOLUTE
    ..\\HARDWARE\\TIMER\\timer.c             0x00000000   Number         0  timer.o ABSOLUTE
    ..\\HARDWARE\\WKUP\\wkup.c               0x00000000   Number         0  wkup.o ABSOLUTE
    ..\\HARDWARE\\application\\atcmd.c       0x00000000   Number         0  atcmd.o ABSOLUTE
    ..\\HARDWARE\\application\\instance.c    0x00000000   Number         0  instance.o ABSOLUTE
    ..\\HARDWARE\\application\\instance_calib.c 0x00000000   Number         0  instance_calib.o ABSOLUTE
    ..\\HARDWARE\\application\\instance_common.c 0x00000000   Number         0  instance_common.o ABSOLUTE
    ..\\HARDWARE\\decadriver\\deca_device.c  0x00000000   Number         0  deca_device.o ABSOLUTE
    ..\\HARDWARE\\decadriver\\deca_params_init.c 0x00000000   Number         0  deca_params_init.o ABSOLUTE
    ..\\HARDWARE\\decadriver\\deca_range_tables.c 0x00000000   Number         0  deca_range_tables.o ABSOLUTE
    ..\\HARDWARE\\myfile\\myfile.c           0x00000000   Number         0  myfile.o ABSOLUTE
    ..\\HARDWARE\\platform\\deca_mutex.c     0x00000000   Number         0  deca_mutex.o ABSOLUTE
    ..\\HARDWARE\\platform\\deca_spi.c       0x00000000   Number         0  deca_spi.o ABSOLUTE
    ..\\HARDWARE\\platform\\device_info.c    0x00000000   Number         0  device_info.o ABSOLUTE
    ..\\HARDWARE\\sensor\\lis3mdl.c          0x00000000   Number         0  lis3mdl.o ABSOLUTE
    ..\\HARDWARE\\sensor\\lps25h.c           0x00000000   Number         0  lps25h.o ABSOLUTE
    ..\\HARDWARE\\sensor\\lsm6ds3.c          0x00000000   Number         0  lsm6ds3.o ABSOLUTE
    ..\\HARDWARE\\sensor\\spi.c              0x00000000   Number         0  spi.o ABSOLUTE
    ..\\HARDWARE\\stm32flash\\stmflash.c     0x00000000   Number         0  stmflash.o ABSOLUTE
    ..\\SYSTEM\\delay\\delay.c               0x00000000   Number         0  delay.o ABSOLUTE
    ..\\SYSTEM\\sys\\sys.c                   0x00000000   Number         0  sys.o ABSOLUTE
    ..\\SYSTEM\\usart\\usart.c               0x00000000   Number         0  usart.o ABSOLUTE
    ..\\USB\\lib\\usb_core.c                 0x00000000   Number         0  usb_core.o ABSOLUTE
    ..\\USB\\lib\\usb_init.c                 0x00000000   Number         0  usb_init.o ABSOLUTE
    ..\\USB\\lib\\usb_int.c                  0x00000000   Number         0  usb_int.o ABSOLUTE
    ..\\USB\\lib\\usb_mem.c                  0x00000000   Number         0  usb_mem.o ABSOLUTE
    ..\\USB\\lib\\usb_regs.c                 0x00000000   Number         0  usb_regs.o ABSOLUTE
    ..\\USB\\lib\\usb_sil.c                  0x00000000   Number         0  usb_sil.o ABSOLUTE
    ..\\USB\\src\\hw_config.c                0x00000000   Number         0  hw_config.o ABSOLUTE
    ..\\USB\\src\\usb_desc.c                 0x00000000   Number         0  usb_desc.o ABSOLUTE
    ..\\USB\\src\\usb_endp.c                 0x00000000   Number         0  usb_endp.o ABSOLUTE
    ..\\USB\\src\\usb_istr.c                 0x00000000   Number         0  usb_istr.o ABSOLUTE
    ..\\USB\\src\\usb_it.c                   0x00000000   Number         0  usb_it.o ABSOLUTE
    ..\\USB\\src\\usb_prop.c                 0x00000000   Number         0  usb_prop.o ABSOLUTE
    ..\\USB\\src\\usb_pwr.c                  0x00000000   Number         0  usb_pwr.o ABSOLUTE
    D:\Software\Keil5\ARM\PACK\Keil\STM32F1xx_DFP\2.2.0\Device\StdPeriph_Driver\src\misc.c 0x00000000   Number         0  misc.o ABSOLUTE
    D:\Software\Keil5\ARM\PACK\Keil\STM32F1xx_DFP\2.2.0\Device\StdPeriph_Driver\src\stm32f10x_adc.c 0x00000000   Number         0  stm32f10x_adc.o ABSOLUTE
    D:\Software\Keil5\ARM\PACK\Keil\STM32F1xx_DFP\2.2.0\Device\StdPeriph_Driver\src\stm32f10x_bkp.c 0x00000000   Number         0  stm32f10x_bkp.o ABSOLUTE
    D:\Software\Keil5\ARM\PACK\Keil\STM32F1xx_DFP\2.2.0\Device\StdPeriph_Driver\src\stm32f10x_dma.c 0x00000000   Number         0  stm32f10x_dma.o ABSOLUTE
    D:\Software\Keil5\ARM\PACK\Keil\STM32F1xx_DFP\2.2.0\Device\StdPeriph_Driver\src\stm32f10x_exti.c 0x00000000   Number         0  stm32f10x_exti.o ABSOLUTE
    D:\Software\Keil5\ARM\PACK\Keil\STM32F1xx_DFP\2.2.0\Device\StdPeriph_Driver\src\stm32f10x_flash.c 0x00000000   Number         0  stm32f10x_flash.o ABSOLUTE
    D:\Software\Keil5\ARM\PACK\Keil\STM32F1xx_DFP\2.2.0\Device\StdPeriph_Driver\src\stm32f10x_gpio.c 0x00000000   Number         0  stm32f10x_gpio.o ABSOLUTE
    D:\Software\Keil5\ARM\PACK\Keil\STM32F1xx_DFP\2.2.0\Device\StdPeriph_Driver\src\stm32f10x_iwdg.c 0x00000000   Number         0  stm32f10x_iwdg.o ABSOLUTE
    D:\Software\Keil5\ARM\PACK\Keil\STM32F1xx_DFP\2.2.0\Device\StdPeriph_Driver\src\stm32f10x_pwr.c 0x00000000   Number         0  stm32f10x_pwr.o ABSOLUTE
    D:\Software\Keil5\ARM\PACK\Keil\STM32F1xx_DFP\2.2.0\Device\StdPeriph_Driver\src\stm32f10x_rcc.c 0x00000000   Number         0  stm32f10x_rcc.o ABSOLUTE
    D:\Software\Keil5\ARM\PACK\Keil\STM32F1xx_DFP\2.2.0\Device\StdPeriph_Driver\src\stm32f10x_rtc.c 0x00000000   Number         0  stm32f10x_rtc.o ABSOLUTE
    D:\Software\Keil5\ARM\PACK\Keil\STM32F1xx_DFP\2.2.0\Device\StdPeriph_Driver\src\stm32f10x_spi.c 0x00000000   Number         0  stm32f10x_spi.o ABSOLUTE
    D:\Software\Keil5\ARM\PACK\Keil\STM32F1xx_DFP\2.2.0\Device\StdPeriph_Driver\src\stm32f10x_tim.c 0x00000000   Number         0  stm32f10x_tim.o ABSOLUTE
    D:\Software\Keil5\ARM\PACK\Keil\STM32F1xx_DFP\2.2.0\Device\StdPeriph_Driver\src\stm32f10x_usart.c 0x00000000   Number         0  stm32f10x_usart.o ABSOLUTE
    D:\\Software\\Keil5\\ARM\\PACK\\Keil\\STM32F1xx_DFP\\2.2.0\\Device\\StdPeriph_Driver\\src\\misc.c 0x00000000   Number         0  misc.o ABSOLUTE
    D:\\Software\\Keil5\\ARM\\PACK\\Keil\\STM32F1xx_DFP\\2.2.0\\Device\\StdPeriph_Driver\\src\\stm32f10x_adc.c 0x00000000   Number         0  stm32f10x_adc.o ABSOLUTE
    D:\\Software\\Keil5\\ARM\\PACK\\Keil\\STM32F1xx_DFP\\2.2.0\\Device\\StdPeriph_Driver\\src\\stm32f10x_bkp.c 0x00000000   Number         0  stm32f10x_bkp.o ABSOLUTE
    D:\\Software\\Keil5\\ARM\\PACK\\Keil\\STM32F1xx_DFP\\2.2.0\\Device\\StdPeriph_Driver\\src\\stm32f10x_dma.c 0x00000000   Number         0  stm32f10x_dma.o ABSOLUTE
    D:\\Software\\Keil5\\ARM\\PACK\\Keil\\STM32F1xx_DFP\\2.2.0\\Device\\StdPeriph_Driver\\src\\stm32f10x_exti.c 0x00000000   Number         0  stm32f10x_exti.o ABSOLUTE
    D:\\Software\\Keil5\\ARM\\PACK\\Keil\\STM32F1xx_DFP\\2.2.0\\Device\\StdPeriph_Driver\\src\\stm32f10x_flash.c 0x00000000   Number         0  stm32f10x_flash.o ABSOLUTE
    D:\\Software\\Keil5\\ARM\\PACK\\Keil\\STM32F1xx_DFP\\2.2.0\\Device\\StdPeriph_Driver\\src\\stm32f10x_gpio.c 0x00000000   Number         0  stm32f10x_gpio.o ABSOLUTE
    D:\\Software\\Keil5\\ARM\\PACK\\Keil\\STM32F1xx_DFP\\2.2.0\\Device\\StdPeriph_Driver\\src\\stm32f10x_iwdg.c 0x00000000   Number         0  stm32f10x_iwdg.o ABSOLUTE
    D:\\Software\\Keil5\\ARM\\PACK\\Keil\\STM32F1xx_DFP\\2.2.0\\Device\\StdPeriph_Driver\\src\\stm32f10x_pwr.c 0x00000000   Number         0  stm32f10x_pwr.o ABSOLUTE
    D:\\Software\\Keil5\\ARM\\PACK\\Keil\\STM32F1xx_DFP\\2.2.0\\Device\\StdPeriph_Driver\\src\\stm32f10x_rcc.c 0x00000000   Number         0  stm32f10x_rcc.o ABSOLUTE
    D:\\Software\\Keil5\\ARM\\PACK\\Keil\\STM32F1xx_DFP\\2.2.0\\Device\\StdPeriph_Driver\\src\\stm32f10x_rtc.c 0x00000000   Number         0  stm32f10x_rtc.o ABSOLUTE
    D:\\Software\\Keil5\\ARM\\PACK\\Keil\\STM32F1xx_DFP\\2.2.0\\Device\\StdPeriph_Driver\\src\\stm32f10x_spi.c 0x00000000   Number         0  stm32f10x_spi.o ABSOLUTE
    D:\\Software\\Keil5\\ARM\\PACK\\Keil\\STM32F1xx_DFP\\2.2.0\\Device\\StdPeriph_Driver\\src\\stm32f10x_tim.c 0x00000000   Number         0  stm32f10x_tim.o ABSOLUTE
    D:\\Software\\Keil5\\ARM\\PACK\\Keil\\STM32F1xx_DFP\\2.2.0\\Device\\StdPeriph_Driver\\src\\stm32f10x_usart.c 0x00000000   Number         0  stm32f10x_usart.o ABSOLUTE
    RTE\Device\STM32F103C8\startup_stm32f10x_md.s 0x00000000   Number         0  startup_stm32f10x_md.o ABSOLUTE
    RTE\Device\STM32F103C8\system_stm32f10x.c 0x00000000   Number         0  system_stm32f10x.o ABSOLUTE
    RTE\\Device\\STM32F103C8\\system_stm32f10x.c 0x00000000   Number         0  system_stm32f10x.o ABSOLUTE
    dc.s                                     0x00000000   Number         0  dc.o ABSOLUTE
    main.c                                   0x00000000   Number         0  main.o ABSOLUTE
    main.c                                   0x00000000   Number         0  main.o ABSOLUTE
    stm32f10x_it.c                           0x00000000   Number         0  stm32f10x_it.o ABSOLUTE
    stm32f10x_it.c                           0x00000000   Number         0  stm32f10x_it.o ABSOLUTE
    RESET                                    0x08000000   Section      236  startup_stm32f10x_md.o(RESET)
    !!!main                                  0x080000ec   Section        8  __main.o(!!!main)
    !!!scatter                               0x080000f4   Section       52  __scatter.o(!!!scatter)
    !!dczerorl2                              0x08000128   Section       90  __dczerorl2.o(!!dczerorl2)
    !!handler_zi                             0x08000184   Section       28  __scatter_zi.o(!!handler_zi)
    .ARM.Collect$$_printf_percent$$00000000  0x080001a0   Section        0  _printf_percent.o(.ARM.Collect$$_printf_percent$$00000000)
    .ARM.Collect$$_printf_percent$$00000003  0x080001a0   Section        6  _printf_f.o(.ARM.Collect$$_printf_percent$$00000003)
    .ARM.Collect$$_printf_percent$$00000009  0x080001a6   Section        6  _printf_d.o(.ARM.Collect$$_printf_percent$$00000009)
    .ARM.Collect$$_printf_percent$$0000000C  0x080001ac   Section        6  _printf_x.o(.ARM.Collect$$_printf_percent$$0000000C)
    .ARM.Collect$$_printf_percent$$00000017  0x080001b2   Section        4  _printf_percent_end.o(.ARM.Collect$$_printf_percent$$00000017)
    .ARM.Collect$$libinit$$00000000          0x080001b6   Section        2  libinit.o(.ARM.Collect$$libinit$$00000000)
    .ARM.Collect$$libinit$$00000002          0x080001b8   Section        0  libinit2.o(.ARM.Collect$$libinit$$00000002)
    .ARM.Collect$$libinit$$00000004          0x080001b8   Section        0  libinit2.o(.ARM.Collect$$libinit$$00000004)
    .ARM.Collect$$libinit$$0000000A          0x080001b8   Section        0  libinit2.o(.ARM.Collect$$libinit$$0000000A)
    .ARM.Collect$$libinit$$0000000C          0x080001b8   Section        0  libinit2.o(.ARM.Collect$$libinit$$0000000C)
    .ARM.Collect$$libinit$$0000000E          0x080001b8   Section        0  libinit2.o(.ARM.Collect$$libinit$$0000000E)
    .ARM.Collect$$libinit$$0000000F          0x080001b8   Section        6  libinit2.o(.ARM.Collect$$libinit$$0000000F)
    .ARM.Collect$$libinit$$00000011          0x080001be   Section        0  libinit2.o(.ARM.Collect$$libinit$$00000011)
    .ARM.Collect$$libinit$$00000013          0x080001be   Section        0  libinit2.o(.ARM.Collect$$libinit$$00000013)
    .ARM.Collect$$libinit$$00000015          0x080001be   Section        0  libinit2.o(.ARM.Collect$$libinit$$00000015)
    .ARM.Collect$$libinit$$00000016          0x080001be   Section       10  libinit2.o(.ARM.Collect$$libinit$$00000016)
    .ARM.Collect$$libinit$$00000017          0x080001c8   Section        0  libinit2.o(.ARM.Collect$$libinit$$00000017)
    .ARM.Collect$$libinit$$00000019          0x080001c8   Section        0  libinit2.o(.ARM.Collect$$libinit$$00000019)
    .ARM.Collect$$libinit$$0000001B          0x080001c8   Section        0  libinit2.o(.ARM.Collect$$libinit$$0000001B)
    .ARM.Collect$$libinit$$0000001D          0x080001c8   Section        0  libinit2.o(.ARM.Collect$$libinit$$0000001D)
    .ARM.Collect$$libinit$$0000001F          0x080001c8   Section        0  libinit2.o(.ARM.Collect$$libinit$$0000001F)
    .ARM.Collect$$libinit$$00000021          0x080001c8   Section        0  libinit2.o(.ARM.Collect$$libinit$$00000021)
    .ARM.Collect$$libinit$$00000023          0x080001c8   Section        0  libinit2.o(.ARM.Collect$$libinit$$00000023)
    .ARM.Collect$$libinit$$00000025          0x080001c8   Section        0  libinit2.o(.ARM.Collect$$libinit$$00000025)
    .ARM.Collect$$libinit$$0000002C          0x080001c8   Section        0  libinit2.o(.ARM.Collect$$libinit$$0000002C)
    .ARM.Collect$$libinit$$0000002E          0x080001c8   Section        0  libinit2.o(.ARM.Collect$$libinit$$0000002E)
    .ARM.Collect$$libinit$$00000030          0x080001c8   Section        0  libinit2.o(.ARM.Collect$$libinit$$00000030)
    .ARM.Collect$$libinit$$00000032          0x080001c8   Section        0  libinit2.o(.ARM.Collect$$libinit$$00000032)
    .ARM.Collect$$libinit$$00000033          0x080001c8   Section        2  libinit2.o(.ARM.Collect$$libinit$$00000033)
    .ARM.Collect$$libshutdown$$00000000      0x080001ca   Section        2  libshutdown.o(.ARM.Collect$$libshutdown$$00000000)
    .ARM.Collect$$libshutdown$$00000002      0x080001cc   Section        0  libshutdown2.o(.ARM.Collect$$libshutdown$$00000002)
    .ARM.Collect$$libshutdown$$00000004      0x080001cc   Section        0  libshutdown2.o(.ARM.Collect$$libshutdown$$00000004)
    .ARM.Collect$$libshutdown$$00000007      0x080001cc   Section        0  libshutdown2.o(.ARM.Collect$$libshutdown$$00000007)
    .ARM.Collect$$libshutdown$$0000000A      0x080001cc   Section        0  libshutdown2.o(.ARM.Collect$$libshutdown$$0000000A)
    .ARM.Collect$$libshutdown$$0000000C      0x080001cc   Section        0  libshutdown2.o(.ARM.Collect$$libshutdown$$0000000C)
    .ARM.Collect$$libshutdown$$0000000F      0x080001cc   Section        0  libshutdown2.o(.ARM.Collect$$libshutdown$$0000000F)
    .ARM.Collect$$libshutdown$$00000010      0x080001cc   Section        2  libshutdown2.o(.ARM.Collect$$libshutdown$$00000010)
    .ARM.Collect$$rtentry$$00000000          0x080001ce   Section        0  __rtentry.o(.ARM.Collect$$rtentry$$00000000)
    .ARM.Collect$$rtentry$$00000002          0x080001ce   Section        0  __rtentry2.o(.ARM.Collect$$rtentry$$00000002)
    .ARM.Collect$$rtentry$$00000004          0x080001ce   Section        6  __rtentry4.o(.ARM.Collect$$rtentry$$00000004)
    .ARM.Collect$$rtentry$$00000009          0x080001d4   Section        0  __rtentry2.o(.ARM.Collect$$rtentry$$00000009)
    .ARM.Collect$$rtentry$$0000000A          0x080001d4   Section        4  __rtentry2.o(.ARM.Collect$$rtentry$$0000000A)
    .ARM.Collect$$rtentry$$0000000C          0x080001d8   Section        0  __rtentry2.o(.ARM.Collect$$rtentry$$0000000C)
    .ARM.Collect$$rtentry$$0000000D          0x080001d8   Section        8  __rtentry2.o(.ARM.Collect$$rtentry$$0000000D)
    .ARM.Collect$$rtexit$$00000000           0x080001e0   Section        2  rtexit.o(.ARM.Collect$$rtexit$$00000000)
    .ARM.Collect$$rtexit$$00000002           0x080001e2   Section        0  rtexit2.o(.ARM.Collect$$rtexit$$00000002)
    .ARM.Collect$$rtexit$$00000003           0x080001e2   Section        4  rtexit2.o(.ARM.Collect$$rtexit$$00000003)
    .ARM.Collect$$rtexit$$00000004           0x080001e6   Section        6  rtexit2.o(.ARM.Collect$$rtexit$$00000004)
    .text                                    0x080001ec   Section        0  main.o(.text)
    .text                                    0x08000654   Section        0  atcmd.o(.text)
    __NVIC_SystemReset                       0x08000bfd   Thumb Code    26  atcmd.o(.text)
    .text                                    0x08000c34   Section        0  instance.o(.text)
    .text                                    0x0800183c   Section        0  instance_calib.o(.text)
    .text                                    0x0800187c   Section        0  instance_common.o(.text)
    __NVIC_EnableIRQ                         0x080029b9   Thumb Code    26  instance_common.o(.text)
    __NVIC_DisableIRQ                        0x080029d3   Thumb Code    34  instance_common.o(.text)
    .text                                    0x08002a04   Section        0  deca_device.o(.text)
    .text                                    0x08004224   Section        0  deca_range_tables.o(.text)
    .text                                    0x080042fc   Section        0  deca_mutex.o(.text)
    .text                                    0x08004330   Section        0  deca_spi.o(.text)
    .text                                    0x08004410   Section        0  device_info.o(.text)
    .text                                    0x0800456c   Section        0  led.o(.text)
    .text                                    0x08004688   Section        0  port.o(.text)
    __NVIC_SetPriority                       0x080049db   Thumb Code    32  port.o(.text)
    .text                                    0x08004a14   Section        0  timer.o(.text)
    .text                                    0x08004ae0   Section        0  stmflash.o(.text)
    .text                                    0x08004bf8   Section        0  rtc.o(.text)
    .text                                    0x08004cb8   Section        0  myfile.o(.text)
    .text                                    0x08004e08   Section        0  delay.o(.text)
    .text                                    0x08004eb4   Section        0  usart.o(.text)
    .text                                    0x08005008   Section        0  dma.o(.text)
    .text                                    0x08005080   Section        0  queue.o(.text)
    .text                                    0x08005458   Section        0  stm32f10x_it.o(.text)
    .text                                    0x080054b8   Section        0  hw_config.o(.text)
    IntToUnicode                             0x080055d3   Thumb Code    54  hw_config.o(.text)
    .text                                    0x08005654   Section        0  usb_endp.o(.text)
    .text                                    0x08005708   Section        0  usb_istr.o(.text)
    .text                                    0x08005858   Section        0  usb_it.o(.text)
    .text                                    0x08005864   Section        0  usb_prop.o(.text)
    .text                                    0x08005a58   Section        0  usb_pwr.o(.text)
    .text                                    0x08005c08   Section        0  usb_core.o(.text)
    DataStageIn                              0x08005ebd   Thumb Code   158  usb_core.o(.text)
    NoData_Setup0                            0x08005f5b   Thumb Code   236  usb_core.o(.text)
    Data_Setup0                              0x08006047   Thumb Code   380  usb_core.o(.text)
    DataStageOut                             0x08006319   Thumb Code   140  usb_core.o(.text)
    .text                                    0x080063d0   Section        0  usb_init.o(.text)
    .text                                    0x080063f8   Section        0  usb_int.o(.text)
    .text                                    0x080065bc   Section        0  usb_mem.o(.text)
    .text                                    0x08006604   Section        0  usb_regs.o(.text)
    .text                                    0x08006cb4   Section        0  usb_sil.o(.text)
    .text                                    0x08006d20   Section        0  misc.o(.text)
    .text                                    0x08006dd0   Section        0  stm32f10x_bkp.o(.text)
    .text                                    0x08006e68   Section        0  stm32f10x_dma.o(.text)
    .text                                    0x08007030   Section        0  stm32f10x_exti.o(.text)
    .text                                    0x08007118   Section        0  stm32f10x_flash.o(.text)
    .text                                    0x08007594   Section        0  stm32f10x_gpio.o(.text)
    .text                                    0x08007800   Section        0  stm32f10x_pwr.o(.text)
    .text                                    0x080078ac   Section        0  stm32f10x_rcc.o(.text)
    .text                                    0x08007b60   Section        0  stm32f10x_rtc.o(.text)
    .text                                    0x08007c70   Section        0  stm32f10x_spi.o(.text)
    .text                                    0x08007ee4   Section        0  stm32f10x_tim.o(.text)
    TI2_Config                               0x08008277   Thumb Code   166  stm32f10x_tim.o(.text)
    TI1_Config                               0x0800832d   Thumb Code    88  stm32f10x_tim.o(.text)
    .text                                    0x080089d8   Section        0  stm32f10x_usart.o(.text)
    .text                                    0x08008d00   Section       64  startup_stm32f10x_md.o(.text)
    .text                                    0x08008d40   Section        0  system_stm32f10x.o(.text)
    SetSysClockTo72                          0x08008d41   Thumb Code   160  system_stm32f10x.o(.text)
    .text                                    0x08008e94   Section        2  use_no_semi_2.o(.text)
    .text                                    0x08008e98   Section        0  __2printf.o(.text)
    .text                                    0x08008eb0   Section        0  __2sprintf.o(.text)
    .text                                    0x08008edc   Section        0  _printf_pad.o(.text)
    .text                                    0x08008f2c   Section        0  _printf_dec.o(.text)
    .text                                    0x08008fa4   Section        0  _printf_hex_int.o(.text)
    .text                                    0x08008ffc   Section        0  __printf_flags_ss_wp.o(.text)
    .text                                    0x08009184   Section        0  strstr.o(.text)
    .text                                    0x080091a8   Section      138  rt_memcpy_v6.o(.text)
    .text                                    0x08009232   Section      100  rt_memcpy_w.o(.text)
    .text                                    0x08009296   Section       68  rt_memclr.o(.text)
    .text                                    0x080092da   Section       78  rt_memclr_w.o(.text)
    .text                                    0x08009328   Section        0  heapauxi.o(.text)
    .text                                    0x0800932e   Section        2  use_no_semi.o(.text)
    .text                                    0x08009330   Section        0  _rserrno.o(.text)
    .text                                    0x08009346   Section        0  _printf_intcommon.o(.text)
    .text                                    0x080093f8   Section        0  _printf_fp_dec.o(.text)
    _fp_digits                               0x080093fb   Thumb Code   432  _printf_fp_dec.o(.text)
    .text                                    0x08009818   Section        0  _printf_char_common.o(.text)
    _printf_input_char                       0x08009819   Thumb Code    10  _printf_char_common.o(.text)
    .text                                    0x08009848   Section        0  _sputc.o(.text)
    .text                                    0x08009854   Section        0  _printf_char_file.o(.text)
    .text                                    0x08009878   Section        8  rt_locale_intlibspace.o(.text)
    .text                                    0x08009880   Section        8  rt_errno_addr_intlibspace.o(.text)
    .text                                    0x08009888   Section      138  lludiv10.o(.text)
    .text                                    0x08009914   Section        0  _printf_fp_infnan.o(.text)
    .text                                    0x08009994   Section        0  bigflt0.o(.text)
    .text                                    0x08009a78   Section        0  ferror.o(.text)
    .text                                    0x08009a80   Section        8  libspace.o(.text)
    .text                                    0x08009a88   Section       74  sys_stackheap_outer.o(.text)
    .text                                    0x08009ad2   Section        0  exit.o(.text)
    .text                                    0x08009ae4   Section      128  strcmpv7m.o(.text)
    CL$$btod_d2e                             0x08009b64   Section       62  btod.o(CL$$btod_d2e)
    CL$$btod_d2e_denorm_low                  0x08009ba2   Section       70  btod.o(CL$$btod_d2e_denorm_low)
    CL$$btod_d2e_norm_op1                    0x08009be8   Section       96  btod.o(CL$$btod_d2e_norm_op1)
    CL$$btod_div_common                      0x08009c48   Section      824  btod.o(CL$$btod_div_common)
    CL$$btod_e2e                             0x08009f80   Section      220  btod.o(CL$$btod_e2e)
    CL$$btod_ediv                            0x0800a05c   Section       42  btod.o(CL$$btod_ediv)
    CL$$btod_emul                            0x0800a086   Section       42  btod.o(CL$$btod_emul)
    CL$$btod_mult_common                     0x0800a0b0   Section      580  btod.o(CL$$btod_mult_common)
    i.__ARM_fpclassify                       0x0800a2f4   Section        0  fpclassify.o(i.__ARM_fpclassify)
    i._is_digit                              0x0800a31c   Section        0  __printf_wp.o(i._is_digit)
    i.ceil                                   0x0800a32c   Section        0  ceil.o(i.ceil)
    i.sqrt                                   0x0800a408   Section        0  sqrt.o(i.sqrt)
    locale$$code                             0x0800a454   Section       44  lc_numeric_c.o(locale$$code)
    x$fpl$d2f                                0x0800a480   Section       98  d2f.o(x$fpl$d2f)
    x$fpl$dadd                               0x0800a4e4   Section      336  daddsub_clz.o(x$fpl$dadd)
    _dadd1                                   0x0800a4f5   Thumb Code     0  daddsub_clz.o(x$fpl$dadd)
    x$fpl$dcheck1                            0x0800a634   Section       16  dcheck1.o(x$fpl$dcheck1)
    x$fpl$dcmpinf                            0x0800a644   Section       24  dcmpi.o(x$fpl$dcmpinf)
    x$fpl$ddiv                               0x0800a65c   Section      688  ddiv.o(x$fpl$ddiv)
    ddiv_entry                               0x0800a663   Thumb Code     0  ddiv.o(x$fpl$ddiv)
    x$fpl$dfix                               0x0800a90c   Section       94  dfix.o(x$fpl$dfix)
    x$fpl$dflt                               0x0800a96a   Section       46  dflt_clz.o(x$fpl$dflt)
    x$fpl$dfltll                             0x0800a998   Section      162  dfltll_clz.o(x$fpl$dfltll)
    x$fpl$dfltu                              0x0800aa3a   Section       38  dflt_clz.o(x$fpl$dfltu)
    x$fpl$dleqf                              0x0800aa60   Section      120  dleqf.o(x$fpl$dleqf)
    x$fpl$dmul                               0x0800aad8   Section      340  dmul.o(x$fpl$dmul)
    x$fpl$dnaninf                            0x0800ac2c   Section      156  dnaninf.o(x$fpl$dnaninf)
    x$fpl$dretinf                            0x0800acc8   Section       12  dretinf.o(x$fpl$dretinf)
    x$fpl$drleqf                             0x0800acd4   Section      108  drleqf.o(x$fpl$drleqf)
    x$fpl$drsb                               0x0800ad40   Section       22  daddsub_clz.o(x$fpl$drsb)
    x$fpl$dsqrt                              0x0800ad58   Section      460  dsqrt_noumaal.o(x$fpl$dsqrt)
    x$fpl$dsub                               0x0800af24   Section      468  daddsub_clz.o(x$fpl$dsub)
    _dsub1                                   0x0800af35   Thumb Code     0  daddsub_clz.o(x$fpl$dsub)
    x$fpl$f2d                                0x0800b0f8   Section       86  f2d.o(x$fpl$f2d)
    x$fpl$fadd                               0x0800b150   Section      196  faddsub_clz.o(x$fpl$fadd)
    _fadd1                                   0x0800b15f   Thumb Code     0  faddsub_clz.o(x$fpl$fadd)
    x$fpl$fcheck1                            0x0800b214   Section       12  fcheck1.o(x$fpl$fcheck1)
    x$fpl$fdiv                               0x0800b220   Section      388  fdiv.o(x$fpl$fdiv)
    _fdiv1                                   0x0800b221   Thumb Code     0  fdiv.o(x$fpl$fdiv)
    x$fpl$fflt                               0x0800b3a4   Section       48  fflt_clz.o(x$fpl$fflt)
    x$fpl$fmul                               0x0800b3d4   Section      258  fmul.o(x$fpl$fmul)
    x$fpl$fnaninf                            0x0800b4d6   Section      140  fnaninf.o(x$fpl$fnaninf)
    x$fpl$fretinf                            0x0800b562   Section       10  fretinf.o(x$fpl$fretinf)
    x$fpl$fsub                               0x0800b56c   Section      234  faddsub_clz.o(x$fpl$fsub)
    _fsub1                                   0x0800b57b   Thumb Code     0  faddsub_clz.o(x$fpl$fsub)
    x$fpl$llufromd                           0x0800b658   Section      120  dfixull.o(x$fpl$llufromd)
    x$fpl$printf1                            0x0800b6d0   Section        4  printf1.o(x$fpl$printf1)
    x$fpl$retnan                             0x0800b6d4   Section      100  retnan.o(x$fpl$retnan)
    x$fpl$scalbn                             0x0800b738   Section       92  scalbn.o(x$fpl$scalbn)
    x$fpl$scalbnf                            0x0800b794   Section       76  scalbnf.o(x$fpl$scalbnf)
    x$fpl$trapveneer                         0x0800b7e0   Section       48  trapv.o(x$fpl$trapveneer)
    .constdata                               0x0800b810   Section       96  instance_calib.o(.constdata)
    x$fpl$usenofp                            0x0800b810   Section        0  usenofp.o(x$fpl$usenofp)
    .constdata                               0x0800b870   Section        4  instance_calib.o(.constdata)
    .constdata                               0x0800b874   Section        4  instance_calib.o(.constdata)
    .constdata                               0x0800b878   Section        8  deca_params_init.o(.constdata)
    .constdata                               0x0800b880   Section       24  deca_params_init.o(.constdata)
    .constdata                               0x0800b898   Section       30  deca_params_init.o(.constdata)
    .constdata                               0x0800b8b6   Section        1  deca_params_init.o(.constdata)
    .constdata                               0x0800b8b7   Section        2  deca_params_init.o(.constdata)
    .constdata                               0x0800b8bc   Section        8  deca_params_init.o(.constdata)
    .constdata                               0x0800b8c4   Section        3  deca_params_init.o(.constdata)
    .constdata                               0x0800b8c8   Section       12  deca_params_init.o(.constdata)
    .constdata                               0x0800b8d4   Section        4  deca_params_init.o(.constdata)
    .constdata                               0x0800b8d8   Section       32  deca_params_init.o(.constdata)
    .constdata                               0x0800b8f8   Section       50  deca_params_init.o(.constdata)
    .constdata                               0x0800b92a   Section      522  deca_range_tables.o(.constdata)
    .constdata                               0x0800bb34   Section       18  usb_desc.o(.constdata)
    .constdata                               0x0800bb46   Section       67  usb_desc.o(.constdata)
    .constdata                               0x0800bb89   Section        4  usb_desc.o(.constdata)
    .constdata                               0x0800bb8d   Section       24  usb_desc.o(.constdata)
    .constdata                               0x0800bba5   Section       38  usb_desc.o(.constdata)
    .constdata                               0x0800bbcb   Section       40  _printf_hex_int.o(.constdata)
    uc_hextab                                0x0800bbcb   Data          20  _printf_hex_int.o(.constdata)
    lc_hextab                                0x0800bbdf   Data          20  _printf_hex_int.o(.constdata)
    .constdata                               0x0800bbf3   Section       17  __printf_flags_ss_wp.o(.constdata)
    maptable                                 0x0800bbf3   Data          17  __printf_flags_ss_wp.o(.constdata)
    .constdata                               0x0800bc04   Section      148  bigflt0.o(.constdata)
    tenpwrs_x                                0x0800bc04   Data          60  bigflt0.o(.constdata)
    tenpwrs_i                                0x0800bc40   Data          64  bigflt0.o(.constdata)
    .conststring                             0x0800bc98   Section      357  atcmd.o(.conststring)
    .conststring                             0x0800be00   Section      127  instance_calib.o(.conststring)
    .conststring                             0x0800be80   Section       75  deca_device.o(.conststring)
    locale$$data                             0x0800beec   Section       28  lc_numeric_c.o(locale$$data)
    __lcnum_c_name                           0x0800bef0   Data           2  lc_numeric_c.o(locale$$data)
    __lcnum_c_start                          0x0800bef8   Data           0  lc_numeric_c.o(locale$$data)
    __lcnum_c_point                          0x0800bf04   Data           0  lc_numeric_c.o(locale$$data)
    __lcnum_c_thousands                      0x0800bf06   Data           0  lc_numeric_c.o(locale$$data)
    __lcnum_c_grouping                       0x0800bf07   Data           0  lc_numeric_c.o(locale$$data)
    __lcnum_c_end                            0x0800bf08   Data           0  lc_numeric_c.o(locale$$data)
    .data                                    0x20000000   Section      104  main.o(.data)
    .data                                    0x20000068   Section        1  atcmd.o(.data)
    .data                                    0x2000006c   Section        4  deca_device.o(.data)
    .data                                    0x20000070   Section       19  device_info.o(.data)
    .data                                    0x20000083   Section        4  timer.o(.data)
    .data                                    0x20000088   Section        6  adcs.o(.data)
    .data                                    0x20000090   Section        4  myfile.o(.data)
    .data                                    0x20000094   Section        4  myfile.o(.data)
    .data                                    0x20000098   Section        4  myfile.o(.data)
    .data                                    0x2000009c   Section       32  myfile.o(.data)
    baseStation1                             0x2000009c   Data           8  myfile.o(.data)
    baseStation2                             0x200000a4   Data           8  myfile.o(.data)
    baseStation3                             0x200000ac   Data           8  myfile.o(.data)
    .data                                    0x200000bc   Section        4  myfile.o(.data)
    .data                                    0x200000c0   Section        4  myfile.o(.data)
    .data                                    0x200000c4   Section        4  myfile.o(.data)
    .data                                    0x200000c8   Section        4  delay.o(.data)
    fac_us                                   0x200000c8   Data           1  delay.o(.data)
    fac_ms                                   0x200000ca   Data           2  delay.o(.data)
    .data                                    0x200000cc   Section        4  usart.o(.data)
    .data                                    0x200000d0   Section        4  usart.o(.data)
    .data                                    0x200000d4   Section        2  dma.o(.data)
    .data                                    0x200000d8   Section        4  stm32f10x_it.o(.data)
    .data                                    0x200000dc   Section        8  hw_config.o(.data)
    .data                                    0x200000e4   Section       38  usb_desc.o(.data)
    .data                                    0x2000010c   Section        8  usb_endp.o(.data)
    txFlg                                    0x2000010c   Data           1  usb_endp.o(.data)
    FrameCount                               0x20000110   Data           4  usb_endp.o(.data)
    .data                                    0x20000114   Section       12  usb_istr.o(.data)
    .data                                    0x20000120   Section       28  usb_istr.o(.data)
    .data                                    0x2000013c   Section       28  usb_istr.o(.data)
    .data                                    0x20000158   Section      108  usb_prop.o(.data)
    .data                                    0x200001c4   Section        2  usb_prop.o(.data)
    .data                                    0x200001c8   Section       36  usb_prop.o(.data)
    .data                                    0x200001ec   Section        4  usb_pwr.o(.data)
    .data                                    0x200001f0   Section        1  usb_pwr.o(.data)
    .data                                    0x200001f4   Section        8  usb_pwr.o(.data)
    .data                                    0x200001fc   Section        4  usb_core.o(.data)
    .data                                    0x20000200   Section        1  usb_init.o(.data)
    .data                                    0x20000204   Section       12  usb_init.o(.data)
    .data                                    0x20000210   Section        2  usb_init.o(.data)
    .data                                    0x20000212   Section        4  usb_int.o(.data)
    .data                                    0x20000216   Section       20  stm32f10x_rcc.o(.data)
    ADCPrescTable                            0x20000216   Data           4  stm32f10x_rcc.o(.data)
    APBAHBPrescTable                         0x2000021a   Data          16  stm32f10x_rcc.o(.data)
    .data                                    0x2000022c   Section       20  system_stm32f10x.o(.data)
    .bss                                     0x20000240   Section      160  atcmd.o(.bss)
    .bss                                     0x200002e0   Section     2016  instance_common.o(.bss)
    .bss                                     0x20000ac0   Section      184  deca_device.o(.bss)
    dw1000local                              0x20000ac0   Data         144  deca_device.o(.bss)
    .bss                                     0x20000b78   Section       66  device_info.o(.bss)
    .bss                                     0x20000bba   Section     1024  stmflash.o(.bss)
    .bss                                     0x20000fba   Section      200  usart.o(.bss)
    .bss                                     0x20001084   Section       44  dma.o(.bss)
    .bss                                     0x200010b0   Section     2592  hw_config.o(.bss)
    m_QueueUsbComRx                          0x200010b0   Data          16  hw_config.o(.bss)
    m_QueueUsbComTx                          0x200010c0   Data          16  hw_config.o(.bss)
    m_UsbComRxBuf                            0x200010d0   Data        1280  hw_config.o(.bss)
    m_UsbComTxBuf                            0x200015d0   Data        1280  hw_config.o(.bss)
    .bss                                     0x20001ad0   Section      128  usb_endp.o(.bss)
    txBuffter                                0x20001ad0   Data          64  usb_endp.o(.bss)
    buffter                                  0x20001b10   Data          64  usb_endp.o(.bss)
    .bss                                     0x20001b50   Section       32  usb_pwr.o(.bss)
    .bss                                     0x20001b70   Section       28  usb_init.o(.bss)
    .bss                                     0x20001b8c   Section       96  libspace.o(.bss)
    HEAP                                     0x20001bf0   Section      512  startup_stm32f10x_md.o(HEAP)
    Heap_Mem                                 0x20001bf0   Data         512  startup_stm32f10x_md.o(HEAP)
    STACK                                    0x20001df0   Section     1024  startup_stm32f10x_md.o(STACK)
    Stack_Mem                                0x20001df0   Data        1024  startup_stm32f10x_md.o(STACK)
    __initial_sp                             0x200021f0   Data           0  startup_stm32f10x_md.o(STACK)

    Global Symbols

    Symbol Name                              Value     Ov Type        Size  Object(Section)

    BuildAttributes$$THM_ISAv4$P$D$K$B$S$PE$A:L22UL41UL21$X:L11$S22US41US21$IEEE1$IW$USESV6$~STKCKD$USESV7$~SHL$OTIME$ROPI$IEEEJ$EBA8$UX$STANDARDLIB$REQ8$PRES8$EABIv2 0x00000000   Number         0  anon$$obj.o ABSOLUTE
    __ARM_use_no_argv                        0x00000000   Number         0  main.o ABSOLUTE
    _printf_flags                            0x00000000   Number         0  printf_stubs.o ABSOLUTE
    _printf_return_value                     0x00000000   Number         0  printf_stubs.o ABSOLUTE
    _printf_sizespec                         0x00000000   Number         0  printf_stubs.o ABSOLUTE
    _printf_widthprec                        0x00000000   Number         0  printf_stubs.o ABSOLUTE
    __ARM_exceptions_init                     - Undefined Weak Reference
    __alloca_initialize                       - Undefined Weak Reference
    __arm_preinit_                            - Undefined Weak Reference
    __cpp_initialize__aeabi_                  - Undefined Weak Reference
    __cxa_finalize                            - Undefined Weak Reference
    __sigvec_lookup                           - Undefined Weak Reference
    _atexit_init                              - Undefined Weak Reference
    _call_atexit_fns                          - Undefined Weak Reference
    _clock_init                               - Undefined Weak Reference
    _fp_trap_init                             - Undefined Weak Reference
    _fp_trap_shutdown                         - Undefined Weak Reference
    _get_lc_collate                           - Undefined Weak Reference
    _get_lc_ctype                             - Undefined Weak Reference
    _get_lc_monetary                          - Undefined Weak Reference
    _get_lc_time                              - Undefined Weak Reference
    _getenv_init                              - Undefined Weak Reference
    _handle_redirection                       - Undefined Weak Reference
    _init_alloc                               - Undefined Weak Reference
    _init_user_alloc                          - Undefined Weak Reference
    _initio                                   - Undefined Weak Reference
    _mutex_acquire                            - Undefined Weak Reference
    _mutex_release                            - Undefined Weak Reference
    _printf_truncate_signed                   - Undefined Weak Reference
    _printf_truncate_unsigned                 - Undefined Weak Reference
    _rand_init                                - Undefined Weak Reference
    _signal_finish                            - Undefined Weak Reference
    _signal_init                              - Undefined Weak Reference
    _terminate_alloc                          - Undefined Weak Reference
    _terminate_user_alloc                     - Undefined Weak Reference
    _terminateio                              - Undefined Weak Reference
    button_callback                           - Undefined Weak Reference
    __Vectors_Size                           0x000000ec   Number         0  startup_stm32f10x_md.o ABSOLUTE
    __Vectors                                0x08000000   Data           4  startup_stm32f10x_md.o(RESET)
    __Vectors_End                            0x080000ec   Data           0  startup_stm32f10x_md.o(RESET)
    __main                                   0x080000ed   Thumb Code     8  __main.o(!!!main)
    __scatterload                            0x080000f5   Thumb Code     0  __scatter.o(!!!scatter)
    __scatterload_rt2                        0x080000f5   Thumb Code    44  __scatter.o(!!!scatter)
    __scatterload_rt2_thumb_only             0x080000f5   Thumb Code     0  __scatter.o(!!!scatter)
    __scatterload_null                       0x08000103   Thumb Code     0  __scatter.o(!!!scatter)
    __decompress                             0x08000129   Thumb Code    90  __dczerorl2.o(!!dczerorl2)
    __decompress1                            0x08000129   Thumb Code     0  __dczerorl2.o(!!dczerorl2)
    __scatterload_zeroinit                   0x08000185   Thumb Code    28  __scatter_zi.o(!!handler_zi)
    _printf_f                                0x080001a1   Thumb Code     0  _printf_f.o(.ARM.Collect$$_printf_percent$$00000003)
    _printf_percent                          0x080001a1   Thumb Code     0  _printf_percent.o(.ARM.Collect$$_printf_percent$$00000000)
    _printf_d                                0x080001a7   Thumb Code     0  _printf_d.o(.ARM.Collect$$_printf_percent$$00000009)
    _printf_x                                0x080001ad   Thumb Code     0  _printf_x.o(.ARM.Collect$$_printf_percent$$0000000C)
    _printf_percent_end                      0x080001b3   Thumb Code     0  _printf_percent_end.o(.ARM.Collect$$_printf_percent$$00000017)
    __rt_lib_init                            0x080001b7   Thumb Code     0  libinit.o(.ARM.Collect$$libinit$$00000000)
    __rt_lib_init_fp_1                       0x080001b9   Thumb Code     0  libinit2.o(.ARM.Collect$$libinit$$00000002)
    __rt_lib_init_heap_1                     0x080001b9   Thumb Code     0  libinit2.o(.ARM.Collect$$libinit$$0000000A)
    __rt_lib_init_lc_common                  0x080001b9   Thumb Code     0  libinit2.o(.ARM.Collect$$libinit$$0000000F)
    __rt_lib_init_preinit_1                  0x080001b9   Thumb Code     0  libinit2.o(.ARM.Collect$$libinit$$00000004)
    __rt_lib_init_rand_1                     0x080001b9   Thumb Code     0  libinit2.o(.ARM.Collect$$libinit$$0000000E)
    __rt_lib_init_user_alloc_1               0x080001b9   Thumb Code     0  libinit2.o(.ARM.Collect$$libinit$$0000000C)
    __rt_lib_init_lc_collate_1               0x080001bf   Thumb Code     0  libinit2.o(.ARM.Collect$$libinit$$00000011)
    __rt_lib_init_lc_ctype_1                 0x080001bf   Thumb Code     0  libinit2.o(.ARM.Collect$$libinit$$00000013)
    __rt_lib_init_lc_monetary_1              0x080001bf   Thumb Code     0  libinit2.o(.ARM.Collect$$libinit$$00000015)
    __rt_lib_init_lc_numeric_2               0x080001bf   Thumb Code     0  libinit2.o(.ARM.Collect$$libinit$$00000016)
    __rt_lib_init_alloca_1                   0x080001c9   Thumb Code     0  libinit2.o(.ARM.Collect$$libinit$$0000002E)
    __rt_lib_init_argv_1                     0x080001c9   Thumb Code     0  libinit2.o(.ARM.Collect$$libinit$$0000002C)
    __rt_lib_init_atexit_1                   0x080001c9   Thumb Code     0  libinit2.o(.ARM.Collect$$libinit$$0000001B)
    __rt_lib_init_clock_1                    0x080001c9   Thumb Code     0  libinit2.o(.ARM.Collect$$libinit$$00000021)
    __rt_lib_init_cpp_1                      0x080001c9   Thumb Code     0  libinit2.o(.ARM.Collect$$libinit$$00000032)
    __rt_lib_init_exceptions_1               0x080001c9   Thumb Code     0  libinit2.o(.ARM.Collect$$libinit$$00000030)
    __rt_lib_init_fp_trap_1                  0x080001c9   Thumb Code     0  libinit2.o(.ARM.Collect$$libinit$$0000001F)
    __rt_lib_init_getenv_1                   0x080001c9   Thumb Code     0  libinit2.o(.ARM.Collect$$libinit$$00000023)
    __rt_lib_init_lc_numeric_1               0x080001c9   Thumb Code     0  libinit2.o(.ARM.Collect$$libinit$$00000017)
    __rt_lib_init_lc_time_1                  0x080001c9   Thumb Code     0  libinit2.o(.ARM.Collect$$libinit$$00000019)
    __rt_lib_init_return                     0x080001c9   Thumb Code     0  libinit2.o(.ARM.Collect$$libinit$$00000033)
    __rt_lib_init_signal_1                   0x080001c9   Thumb Code     0  libinit2.o(.ARM.Collect$$libinit$$0000001D)
    __rt_lib_init_stdio_1                    0x080001c9   Thumb Code     0  libinit2.o(.ARM.Collect$$libinit$$00000025)
    __rt_lib_shutdown                        0x080001cb   Thumb Code     0  libshutdown.o(.ARM.Collect$$libshutdown$$00000000)
    __rt_lib_shutdown_cpp_1                  0x080001cd   Thumb Code     0  libshutdown2.o(.ARM.Collect$$libshutdown$$00000002)
    __rt_lib_shutdown_fp_trap_1              0x080001cd   Thumb Code     0  libshutdown2.o(.ARM.Collect$$libshutdown$$00000007)
    __rt_lib_shutdown_heap_1                 0x080001cd   Thumb Code     0  libshutdown2.o(.ARM.Collect$$libshutdown$$0000000F)
    __rt_lib_shutdown_return                 0x080001cd   Thumb Code     0  libshutdown2.o(.ARM.Collect$$libshutdown$$00000010)
    __rt_lib_shutdown_signal_1               0x080001cd   Thumb Code     0  libshutdown2.o(.ARM.Collect$$libshutdown$$0000000A)
    __rt_lib_shutdown_stdio_1                0x080001cd   Thumb Code     0  libshutdown2.o(.ARM.Collect$$libshutdown$$00000004)
    __rt_lib_shutdown_user_alloc_1           0x080001cd   Thumb Code     0  libshutdown2.o(.ARM.Collect$$libshutdown$$0000000C)
    __rt_entry                               0x080001cf   Thumb Code     0  __rtentry.o(.ARM.Collect$$rtentry$$00000000)
    __rt_entry_presh_1                       0x080001cf   Thumb Code     0  __rtentry2.o(.ARM.Collect$$rtentry$$00000002)
    __rt_entry_sh                            0x080001cf   Thumb Code     0  __rtentry4.o(.ARM.Collect$$rtentry$$00000004)
    __rt_entry_li                            0x080001d5   Thumb Code     0  __rtentry2.o(.ARM.Collect$$rtentry$$0000000A)
    __rt_entry_postsh_1                      0x080001d5   Thumb Code     0  __rtentry2.o(.ARM.Collect$$rtentry$$00000009)
    __rt_entry_main                          0x080001d9   Thumb Code     0  __rtentry2.o(.ARM.Collect$$rtentry$$0000000D)
    __rt_entry_postli_1                      0x080001d9   Thumb Code     0  __rtentry2.o(.ARM.Collect$$rtentry$$0000000C)
    __rt_exit                                0x080001e1   Thumb Code     0  rtexit.o(.ARM.Collect$$rtexit$$00000000)
    __rt_exit_ls                             0x080001e3   Thumb Code     0  rtexit2.o(.ARM.Collect$$rtexit$$00000003)
    __rt_exit_prels_1                        0x080001e3   Thumb Code     0  rtexit2.o(.ARM.Collect$$rtexit$$00000002)
    __rt_exit_exit                           0x080001e7   Thumb Code     0  rtexit2.o(.ARM.Collect$$rtexit$$00000004)
    addressconfigure                         0x080001ed   Thumb Code    30  main.o(.text)
    decarangingmode                          0x0800020b   Thumb Code    18  main.o(.text)
    inittestapplication                      0x0800021d   Thumb Code   226  main.o(.text)
    process_dwRSTn_irq                       0x080002ff   Thumb Code     6  main.o(.text)
    process_deca_irq                         0x08000305   Thumb Code    22  main.o(.text)
    configure_continuous_txspectrum_mode     0x0800031b   Thumb Code    16  main.o(.text)
    main                                     0x0800032b   Thumb Code   630  main.o(.text)
    Check_cmd                                0x08000655   Thumb Code   230  atcmd.o(.text)
    Display_DeviceInfo                       0x0800073b   Thumb Code   216  atcmd.o(.text)
    Display_UWBInfo                          0x08000813   Thumb Code   138  atcmd.o(.text)
    Process_ATCMD                            0x0800089d   Thumb Code   864  atcmd.o(.text)
    instanceconfigframeheader16              0x08000c35   Thumb Code    26  instance.o(.text)
    instancesenddlypacket                    0x08000c4f   Thumb Code    74  instance.o(.text)
    instance_calcranges                      0x08000c99   Thumb Code    88  instance.o(.text)
    testapprun                               0x08000cf1   Thumb Code  2404  instance.o(.text)
    instancesetreplydelay                    0x08001655   Thumb Code   474  instance.o(.text)
    instancesetaddresses                     0x0800182f   Thumb Code     6  instance.o(.text)
    instance_starttxtest                     0x0800183d   Thumb Code    58  instance_calib.o(.text)
    convertmicrosectodevicetimeu             0x0800187d   Thumb Code    26  instance_common.o(.text)
    convertdevicetimetosec                   0x08001897   Thumb Code    18  instance_common.o(.text)
    reportTOF                                0x080018a9   Thumb Code   156  instance_common.o(.text)
    setTagDist                               0x08001945   Thumb Code    26  instance_common.o(.text)
    getTagDist                               0x0800195f   Thumb Code    14  instance_common.o(.text)
    clearDistTable                           0x0800196d   Thumb Code    26  instance_common.o(.text)
    instancecleardisttableall                0x08001987   Thumb Code    38  instance_common.o(.text)
    instancesetrole                          0x080019ad   Thumb Code     8  instance_common.o(.text)
    instancegetrole                          0x080019b5   Thumb Code     8  instance_common.o(.text)
    instancenewrange                         0x080019bd   Thumb Code    16  instance_common.o(.text)
    instancenewrangeancadd                   0x080019cd   Thumb Code    10  instance_common.o(.text)
    instancenewrangetagadd                   0x080019d7   Thumb Code    10  instance_common.o(.text)
    instancenewrangetim                      0x080019e1   Thumb Code    10  instance_common.o(.text)
    instanceclearcounts                      0x080019eb   Thumb Code    74  instance_common.o(.text)
    instance_putevent                        0x08001a35   Thumb Code    82  instance_common.o(.text)
    tagrxreenable                            0x08001a87   Thumb Code    56  instance_common.o(.text)
    ancenablerx                              0x08001abf   Thumb Code    68  instance_common.o(.text)
    anctxorrxreenable                        0x08001b03   Thumb Code   250  instance_common.o(.text)
    handle_error_unknownframe                0x08001bfd   Thumb Code   178  instance_common.o(.text)
    ancsendfinalorrxreenable                 0x08001caf   Thumb Code    74  instance_common.o(.text)
    ancprepareresponse                       0x08001cf9   Thumb Code   254  instance_common.o(.text)
    ancprepareresponse2                      0x08001df7   Thumb Code   130  instance_common.o(.text)
    instance_rxcallback                      0x08001e79   Thumb Code  1034  instance_common.o(.text)
    instance_txcallback                      0x08002283   Thumb Code   212  instance_common.o(.text)
    instance_clearevents                     0x08002357   Thumb Code    58  instance_common.o(.text)
    instance_init                            0x08002391   Thumb Code   158  instance_common.o(.text)
    instancereaddeviceid                     0x0800242f   Thumb Code     4  instance_common.o(.text)
    instancesettagsleepdelay                 0x08002433   Thumb Code     6  instance_common.o(.text)
    instance_config                          0x08002439   Thumb Code   316  instance_common.o(.text)
    instancegetrnum                          0x08002575   Thumb Code     8  instance_common.o(.text)
    instancegetrnuma                         0x0800257d   Thumb Code    10  instance_common.o(.text)
    instancegetrnumanc                       0x08002587   Thumb Code    10  instance_common.o(.text)
    instancegetlcount                        0x08002591   Thumb Code     8  instance_common.o(.text)
    instancegetidist                         0x08002599   Thumb Code    18  instance_common.o(.text)
    instancegetidistraw                      0x080025ab   Thumb Code    18  instance_common.o(.text)
    instancegetidist_mm                      0x080025bd   Thumb Code    34  instance_common.o(.text)
    instancegetidistraw_mm                   0x080025df   Thumb Code    34  instance_common.o(.text)
    instance_backtoanchor                    0x08002601   Thumb Code    32  instance_common.o(.text)
    inst_processrxtimeout                    0x08002621   Thumb Code   164  instance_common.o(.text)
    instance_peekevent                       0x080026c5   Thumb Code    20  instance_common.o(.text)
    instance_saveevent                       0x080026d9   Thumb Code    30  instance_common.o(.text)
    instance_getsavedevent                   0x080026f7   Thumb Code     8  instance_common.o(.text)
    instance_getevent                        0x080026ff   Thumb Code   142  instance_common.o(.text)
    instance_run                             0x0800278d   Thumb Code   386  instance_common.o(.text)
    instance_close                           0x0800290f   Thumb Code    50  instance_common.o(.text)
    instance_notify_DW1000_inIDLE            0x08002941   Thumb Code     8  instance_common.o(.text)
    instanceconfigtxpower                    0x08002949   Thumb Code    12  instance_common.o(.text)
    instancesettxpower                       0x08002955   Thumb Code    30  instance_common.o(.text)
    instanceconfigantennadelays              0x08002973   Thumb Code    14  instance_common.o(.text)
    instancesetantennadelays                 0x08002981   Thumb Code    32  instance_common.o(.text)
    instancetxantdly                         0x080029a1   Thumb Code     6  instance_common.o(.text)
    instancerxantdly                         0x080029a7   Thumb Code     6  instance_common.o(.text)
    instancevalidranges                      0x080029ad   Thumb Code    12  instance_common.o(.text)
    dwt_writetodevice                        0x08002a05   Thumb Code    62  deca_device.o(.text)
    dwt_write16bitoffsetreg                  0x08002a43   Thumb Code    26  deca_device.o(.text)
    dwt_write32bitoffsetreg                  0x08002a5d   Thumb Code    30  deca_device.o(.text)
    dwt_readfromdevice                       0x08002a7b   Thumb Code    58  deca_device.o(.text)
    dwt_read32bitoffsetreg                   0x08002ab5   Thumb Code    38  deca_device.o(.text)
    _dwt_enableclocks                        0x08002adb   Thumb Code   194  deca_device.o(.text)
    dwt_read16bitoffsetreg                   0x08002b9d   Thumb Code    38  deca_device.o(.text)
    _dwt_loaducodefromrom                    0x08002bc3   Thumb Code    54  deca_device.o(.text)
    _dwt_otpread                             0x08002bf9   Thumb Code    70  deca_device.o(.text)
    dwt_readdevid                            0x08002c3f   Thumb Code     6  deca_device.o(.text)
    dwt_initialise                           0x08002c45   Thumb Code   392  deca_device.o(.text)
    dwt_getTREKOTPantennadelay               0x08002dcd   Thumb Code    56  deca_device.o(.text)
    dwt_otprevision                          0x08002e05   Thumb Code     6  deca_device.o(.text)
    dwt_setGPIOforEXTTRX                     0x08002e0b   Thumb Code    40  deca_device.o(.text)
    dwt_setGPIOdirection                     0x08002e33   Thumb Code    34  deca_device.o(.text)
    dwt_setGPIOvalue                         0x08002e55   Thumb Code    34  deca_device.o(.text)
    dwt_getldotune                           0x08002e77   Thumb Code     8  deca_device.o(.text)
    dwt_getpartid                            0x08002e7f   Thumb Code     6  deca_device.o(.text)
    dwt_getlotid                             0x08002e85   Thumb Code     6  deca_device.o(.text)
    dwt_configuretxrf                        0x08002e8b   Thumb Code    28  deca_device.o(.text)
    dwt_getotptxpower                        0x08002ea7   Thumb Code    18  deca_device.o(.text)
    dwt_settxantennadelay                    0x08002eb9   Thumb Code    12  deca_device.o(.text)
    dwt_setrxantennadelay                    0x08002ec5   Thumb Code    14  deca_device.o(.text)
    dwt_xtaltrim                             0x08002ed3   Thumb Code    48  deca_device.o(.text)
    _dwt_configlde                           0x08002f03   Thumb Code    48  deca_device.o(.text)
    dwt_configure                            0x08002f33   Thumb Code   600  deca_device.o(.text)
    dwt_readantennadelay                     0x0800318b   Thumb Code    14  deca_device.o(.text)
    dwt_writetxdata                          0x08003199   Thumb Code    34  deca_device.o(.text)
    dwt_writetxfctrl                         0x080031bb   Thumb Code    24  deca_device.o(.text)
    dwt_readrxdata                           0x080031d3   Thumb Code    16  deca_device.o(.text)
    dwt_readaccdata                          0x080031e3   Thumb Code    34  deca_device.o(.text)
    dwt_readdignostics                       0x08003205   Thumb Code    92  deca_device.o(.text)
    dwt_readtxtimestamp                      0x08003261   Thumb Code    10  deca_device.o(.text)
    dwt_readtxtimestamphi32                  0x0800326b   Thumb Code     6  deca_device.o(.text)
    dwt_readtxtimestamplo32                  0x08003271   Thumb Code     6  deca_device.o(.text)
    dwt_readrxtimestamp                      0x08003277   Thumb Code    12  deca_device.o(.text)
    dwt_readrxtimestamphi32                  0x08003283   Thumb Code     6  deca_device.o(.text)
    dwt_readrxtimestamplo32                  0x08003289   Thumb Code     6  deca_device.o(.text)
    dwt_readsystimestamphi32                 0x0800328f   Thumb Code     6  deca_device.o(.text)
    dwt_readsystime                          0x08003295   Thumb Code    12  deca_device.o(.text)
    dwt_enableframefilter                    0x080032a1   Thumb Code    54  deca_device.o(.text)
    dwt_setpanid                             0x080032d7   Thumb Code    10  deca_device.o(.text)
    dwt_setaddress16                         0x080032e1   Thumb Code    10  deca_device.o(.text)
    dwt_seteui                               0x080032eb   Thumb Code    12  deca_device.o(.text)
    dwt_geteui                               0x080032f7   Thumb Code    12  deca_device.o(.text)
    _dwt_otpsetmrregs                        0x08003303   Thumb Code   546  deca_device.o(.text)
    _dwt_otpprogword32                       0x08003525   Thumb Code   162  deca_device.o(.text)
    dwt_otpwriteandverify                    0x080035c7   Thumb Code    90  deca_device.o(.text)
    _dwt_aonconfigupload                     0x08003621   Thumb Code    40  deca_device.o(.text)
    _dwt_aonarrayupload                      0x08003649   Thumb Code    40  deca_device.o(.text)
    dwt_entersleep                           0x08003671   Thumb Code     2  deca_device.o(.text)
    dwt_configuresleepcnt                    0x08003673   Thumb Code   124  deca_device.o(.text)
    dwt_calibratesleepcnt                    0x080036ef   Thumb Code   252  deca_device.o(.text)
    dwt_configuresleep                       0x080037eb   Thumb Code    32  deca_device.o(.text)
    dwt_entersleepaftertx                    0x0800380b   Thumb Code    36  deca_device.o(.text)
    dwt_spicswakeup                          0x0800382f   Thumb Code    50  deca_device.o(.text)
    dwt_loadopsettabfromotp                  0x08003861   Thumb Code    52  deca_device.o(.text)
    dwt_setsmarttxpower                      0x08003895   Thumb Code    44  deca_device.o(.text)
    dwt_enableautoack                        0x080038c1   Thumb Code    36  deca_device.o(.text)
    dwt_setdblrxbuffmode                     0x080038e5   Thumb Code    38  deca_device.o(.text)
    dwt_setautorxreenable                    0x0800390b   Thumb Code    60  deca_device.o(.text)
    dwt_setrxaftertxdelay                    0x08003947   Thumb Code    34  deca_device.o(.text)
    dwt_setcallbacks                         0x08003969   Thumb Code     8  deca_device.o(.text)
    dwt_checkIRQ                             0x08003971   Thumb Code    24  deca_device.o(.text)
    dwt_rxreset                              0x08003989   Thumb Code    40  deca_device.o(.text)
    dwt_syncrxbufptrs                        0x080039b1   Thumb Code    52  deca_device.o(.text)
    dwt_forcetrxoff                          0x080039e5   Thumb Code    86  deca_device.o(.text)
    dwt_checkoverrun                         0x08003a3b   Thumb Code    16  deca_device.o(.text)
    dwt_isr                                  0x08003a4b   Thumb Code   646  deca_device.o(.text)
    dwt_setleds                              0x08003cd1   Thumb Code   202  deca_device.o(.text)
    _dwt_disablesequencing                   0x08003d9b   Thumb Code    22  deca_device.o(.text)
    dwt_setdelayedtrxtime                    0x08003db1   Thumb Code    10  deca_device.o(.text)
    dwt_starttx                              0x08003dbb   Thumb Code   142  deca_device.o(.text)
    dwt_setrxmode                            0x08003e49   Thumb Code    24  deca_device.o(.text)
    dwt_rxenable                             0x08003e61   Thumb Code    76  deca_device.o(.text)
    dwt_setrxtimeout                         0x08003ead   Thumb Code    84  deca_device.o(.text)
    dwt_setpreambledetecttimeout             0x08003f01   Thumb Code    10  deca_device.o(.text)
    dwt_setinterrupt                         0x08003f0b   Thumb Code    48  deca_device.o(.text)
    dwt_configeventcounters                  0x08003f3b   Thumb Code    46  deca_device.o(.text)
    dwt_readeventcounters                    0x08003f69   Thumb Code   126  deca_device.o(.text)
    dwt_softreset                            0x08003fe7   Thumb Code   110  deca_device.o(.text)
    dwt_configcwmode                         0x08004055   Thumb Code   148  deca_device.o(.text)
    dwt_configcontinuousframemode            0x080040e9   Thumb Code    78  deca_device.o(.text)
    dwt_readtempvbat                         0x08004137   Thumb Code   198  deca_device.o(.text)
    dwt_readwakeuptemp                       0x080041fd   Thumb Code    20  deca_device.o(.text)
    dwt_readwakeupvbat                       0x08004211   Thumb Code    20  deca_device.o(.text)
    dwt_getrangebias                         0x08004225   Thumb Code   200  deca_range_tables.o(.text)
    decamutexon                              0x080042fd   Thumb Code    34  deca_mutex.o(.text)
    decamutexoff                             0x0800431f   Thumb Code    18  deca_mutex.o(.text)
    openspi                                  0x08004331   Thumb Code     4  deca_spi.o(.text)
    closespi                                 0x08004335   Thumb Code    28  deca_spi.o(.text)
    writetospi_serial                        0x08004351   Thumb Code    90  deca_spi.o(.text)
    readfromspi_serial                       0x080043ab   Thumb Code    92  deca_spi.o(.text)
    Get_UniqueID                             0x08004411   Thumb Code    28  device_info.o(.text)
    Check_Switch_Status                      0x0800442d   Thumb Code    16  device_info.o(.text)
    Flash_Configuration                      0x0800443d   Thumb Code   142  device_info.o(.text)
    RouterInfo_Write_to_Flash                0x080044cb   Thumb Code     4  device_info.o(.text)
    My_STMFLASH_Write                        0x080044cf   Thumb Code    12  device_info.o(.text)
    Load_UWB_para_from_USB                   0x080044db   Thumb Code   106  device_info.o(.text)
    GPIO_Configuration                       0x0800456d   Thumb Code   134  led.o(.text)
    led_off                                  0x080045f3   Thumb Code    48  led.o(.text)
    led_on                                   0x08004623   Thumb Code    48  led.o(.text)
    led1_dw                                  0x08004653   Thumb Code    20  led.o(.text)
    led0_dw                                  0x08004667   Thumb Code    20  led.o(.text)
    No_Configuration                         0x08004689   Thumb Code     6  port.o(.text)
    portGetTickCnt                           0x0800468f   Thumb Code     6  port.o(.text)
    SysTick_Configuration                    0x08004695   Thumb Code    60  port.o(.text)
    NVIC_DisableDECAIRQ                      0x080046d1   Thumb Code    32  port.o(.text)
    NVIC_Configuration                       0x080046f1   Thumb Code    96  port.o(.text)
    EXTI_GetITEnStatus                       0x08004751   Thumb Code    16  port.o(.text)
    RCC_Configuration                        0x08004761   Thumb Code   136  port.o(.text)
    SPI_ChangeRate                           0x080047e9   Thumb Code    14  port.o(.text)
    SPI_ConfigFastRate                       0x080047f7   Thumb Code    80  port.o(.text)
    SPI_Configuration                        0x08004847   Thumb Code   166  port.o(.text)
    reset_DW1000                             0x080048ed   Thumb Code    68  port.o(.text)
    setup_DW1000RSTnIRQ                      0x08004931   Thumb Code   134  port.o(.text)
    is_IRQ_enabled                           0x080049b7   Thumb Code    14  port.o(.text)
    peripherals_init                         0x080049c5   Thumb Code    22  port.o(.text)
    TIM2_Int_Init                            0x08004a15   Thumb Code    92  timer.o(.text)
    TIM2_IRQHandler                          0x08004a71   Thumb Code   108  timer.o(.text)
    STMFLASH_ReadHalfWord                    0x08004ae1   Thumb Code     4  stmflash.o(.text)
    STMFLASH_Write_NoCheck                   0x08004ae5   Thumb Code    40  stmflash.o(.text)
    STMFLASH_Read                            0x08004b0d   Thumb Code    26  stmflash.o(.text)
    STMFLASH_Write                           0x08004b27   Thumb Code   192  stmflash.o(.text)
    Test_Write                               0x08004be7   Thumb Code    12  stmflash.o(.text)
    RTC_Alarm_Configuration                  0x08004bf9   Thumb Code   132  rtc.o(.text)
    RTC_Enter_StandbyMode                    0x08004c7d   Thumb Code    26  rtc.o(.text)
    RTC_IRQHandler                           0x08004c97   Thumb Code    28  rtc.o(.text)
    positioninit                             0x08004cb9   Thumb Code    10  myfile.o(.text)
    calculateDistance                        0x08004cc3   Thumb Code    60  myfile.o(.text)
    calculateTagCoordinate                   0x08004cff   Thumb Code   252  myfile.o(.text)
    delay_init                               0x08004e09   Thumb Code    46  delay.o(.text)
    delay_us                                 0x08004e37   Thumb Code    46  delay.o(.text)
    delay_ms                                 0x08004e65   Thumb Code    46  delay.o(.text)
    Sleep                                    0x08004e93   Thumb Code    22  delay.o(.text)
    _sys_exit                                0x08004eb5   Thumb Code     2  usart.o(.text)
    fputc                                    0x08004eb7   Thumb Code    18  usart.o(.text)
    uart_init                                0x08004ec9   Thumb Code   156  usart.o(.text)
    USART1_Send_Hex                          0x08004f65   Thumb Code    26  usart.o(.text)
    USART1_Send_PartialCommand               0x08004f7f   Thumb Code    20  usart.o(.text)
    USART1_IRQHandler                        0x08004f93   Thumb Code   100  usart.o(.text)
    MYDMA_Config                             0x08005009   Thumb Code    74  dma.o(.text)
    MYDMA_Enable                             0x08005053   Thumb Code    32  dma.o(.text)
    QUEUE_PacketCreate                       0x08005081   Thumb Code    12  queue.o(.text)
    QUEUE_PacketIn                           0x0800508d   Thumb Code    48  queue.o(.text)
    QUEUE_PacketOut                          0x080050bd   Thumb Code    56  queue.o(.text)
    QUEUE_PacketLengthGet                    0x080050f5   Thumb Code    40  queue.o(.text)
    QUEUE_PacketStartEndDifferentCharSplit   0x0800511d   Thumb Code   182  queue.o(.text)
    QUEUE_PacketStartEndCharSplit            0x080051d3   Thumb Code   198  queue.o(.text)
    QUEUE_PacketCharSplit                    0x08005299   Thumb Code   116  queue.o(.text)
    QUEUE_PacketDoubleEndCharSplit           0x0800530d   Thumb Code   132  queue.o(.text)
    QUEUE_StructCreate                       0x08005391   Thumb Code    20  queue.o(.text)
    QUEUE_StructIn                           0x080053a5   Thumb Code    68  queue.o(.text)
    QUEUE_StructOut                          0x080053e9   Thumb Code    76  queue.o(.text)
    QUEUE_StructCountGet                     0x08005435   Thumb Code    34  queue.o(.text)
    NMI_Handler                              0x08005459   Thumb Code     2  stm32f10x_it.o(.text)
    HardFault_Handler                        0x0800545b   Thumb Code     2  stm32f10x_it.o(.text)
    MemManage_Handler                        0x0800545d   Thumb Code     2  stm32f10x_it.o(.text)
    BusFault_Handler                         0x0800545f   Thumb Code     2  stm32f10x_it.o(.text)
    UsageFault_Handler                       0x08005461   Thumb Code     2  stm32f10x_it.o(.text)
    SVC_Handler                              0x08005463   Thumb Code     2  stm32f10x_it.o(.text)
    DebugMon_Handler                         0x08005465   Thumb Code     2  stm32f10x_it.o(.text)
    PendSV_Handler                           0x08005467   Thumb Code     2  stm32f10x_it.o(.text)
    SysTick_Handler                          0x08005469   Thumb Code    10  stm32f10x_it.o(.text)
    EXTI15_10_IRQHandler                     0x08005473   Thumb Code    18  stm32f10x_it.o(.text)
    EXTI0_IRQHandler                         0x08005485   Thumb Code    16  stm32f10x_it.o(.text)
    EXTI3_IRQHandler                         0x08005495   Thumb Code    16  stm32f10x_it.o(.text)
    EXTI9_5_IRQHandler                       0x080054a5   Thumb Code    16  stm32f10x_it.o(.text)
    Set_System                               0x080054b9   Thumb Code    96  hw_config.o(.text)
    Set_USBClock                             0x08005519   Thumb Code    20  hw_config.o(.text)
    Enter_LowPowerMode                       0x0800552d   Thumb Code     8  hw_config.o(.text)
    Leave_LowPowerMode                       0x08005535   Thumb Code    18  hw_config.o(.text)
    USB_Interrupts_Config                    0x08005547   Thumb Code    50  hw_config.o(.text)
    USB_Cable_Config                         0x08005579   Thumb Code    20  hw_config.o(.text)
    USB_Config                               0x0800558d   Thumb Code    22  hw_config.o(.text)
    USB_RxRead                               0x080055a3   Thumb Code    12  hw_config.o(.text)
    USB_RxWrite                              0x080055af   Thumb Code    12  hw_config.o(.text)
    USB_TxRead                               0x080055bb   Thumb Code    12  hw_config.o(.text)
    USB_TxWrite                              0x080055c7   Thumb Code    12  hw_config.o(.text)
    Get_SerialNum                            0x08005609   Thumb Code    42  hw_config.o(.text)
    EP1_IN_Callback                          0x08005655   Thumb Code    60  usb_endp.o(.text)
    EP3_OUT_Callback                         0x08005691   Thumb Code    32  usb_endp.o(.text)
    SOF_Callback                             0x080056b1   Thumb Code    76  usb_endp.o(.text)
    USB_Istr                                 0x08005709   Thumb Code   310  usb_istr.o(.text)
    USB_LP_CAN1_RX0_IRQHandler               0x08005859   Thumb Code     4  usb_it.o(.text)
    USBWakeUp_IRQHandler                     0x0800585d   Thumb Code     8  usb_it.o(.text)
    Virtual_Com_Port_init                    0x08005865   Thumb Code    28  usb_prop.o(.text)
    Virtual_Com_Port_Reset                   0x08005881   Thumb Code   208  usb_prop.o(.text)
    Virtual_Com_Port_SetConfiguration        0x08005951   Thumb Code    16  usb_prop.o(.text)
    Virtual_Com_Port_SetDeviceAddress        0x08005961   Thumb Code     8  usb_prop.o(.text)
    Virtual_Com_Port_Status_In               0x08005969   Thumb Code    16  usb_prop.o(.text)
    Virtual_Com_Port_Status_Out              0x08005979   Thumb Code     2  usb_prop.o(.text)
    Virtual_Com_Port_SetLineCoding           0x0800597b   Thumb Code    20  usb_prop.o(.text)
    Virtual_Com_Port_GetLineCoding           0x0800598f   Thumb Code    20  usb_prop.o(.text)
    Virtual_Com_Port_Data_Setup              0x080059a3   Thumb Code    74  usb_prop.o(.text)
    Virtual_Com_Port_NoData_Setup            0x080059ed   Thumb Code    30  usb_prop.o(.text)
    Virtual_Com_Port_GetDeviceDescriptor     0x08005a0b   Thumb Code     8  usb_prop.o(.text)
    Virtual_Com_Port_GetConfigDescriptor     0x08005a13   Thumb Code     8  usb_prop.o(.text)
    Virtual_Com_Port_GetStringDescriptor     0x08005a1b   Thumb Code    26  usb_prop.o(.text)
    Virtual_Com_Port_Get_Interface_Setting   0x08005a35   Thumb Code    14  usb_prop.o(.text)
    PowerOn                                  0x08005a59   Thumb Code    36  usb_pwr.o(.text)
    PowerOff                                 0x08005a7d   Thumb Code    26  usb_pwr.o(.text)
    Suspend                                  0x08005a97   Thumb Code   174  usb_pwr.o(.text)
    Resume_Init                              0x08005b45   Thumb Code    26  usb_pwr.o(.text)
    Resume                                   0x08005b5f   Thumb Code   140  usb_pwr.o(.text)
    Standard_GetConfiguration                0x08005c09   Thumb Code    30  usb_core.o(.text)
    Standard_SetConfiguration                0x08005c27   Thumb Code    42  usb_core.o(.text)
    Standard_GetInterface                    0x08005c51   Thumb Code    30  usb_core.o(.text)
    Standard_SetInterface                    0x08005c6f   Thumb Code    60  usb_core.o(.text)
    Standard_GetStatus                       0x08005cab   Thumb Code   130  usb_core.o(.text)
    Standard_ClearFeature                    0x08005d2d   Thumb Code   232  usb_core.o(.text)
    Standard_SetEndPointFeature              0x08005e15   Thumb Code   118  usb_core.o(.text)
    Standard_SetDeviceFeature                0x08005e8b   Thumb Code    26  usb_core.o(.text)
    Standard_GetDescriptorData               0x08005ea5   Thumb Code    24  usb_core.o(.text)
    Post0_Process                            0x080061c3   Thumb Code    52  usb_core.o(.text)
    Setup0_Process                           0x080061f7   Thumb Code    90  usb_core.o(.text)
    SetDeviceAddress                         0x08006251   Thumb Code    60  usb_core.o(.text)
    In0_Process                              0x0800628d   Thumb Code    78  usb_core.o(.text)
    Out0_Process                             0x080062db   Thumb Code    60  usb_core.o(.text)
    NOP_Process                              0x08006317   Thumb Code     2  usb_core.o(.text)
    USB_Init                                 0x080063d1   Thumb Code    22  usb_init.o(.text)
    CTR_LP                                   0x080063f9   Thumb Code   318  usb_int.o(.text)
    CTR_HP                                   0x08006537   Thumb Code   106  usb_int.o(.text)
    UserToPMABufferCopy                      0x080065bd   Thumb Code    38  usb_mem.o(.text)
    PMAToUserBufferCopy                      0x080065e3   Thumb Code    28  usb_mem.o(.text)
    SetCNTR                                  0x08006605   Thumb Code     6  usb_regs.o(.text)
    GetCNTR                                  0x0800660b   Thumb Code     8  usb_regs.o(.text)
    SetISTR                                  0x08006613   Thumb Code     8  usb_regs.o(.text)
    GetISTR                                  0x0800661b   Thumb Code    10  usb_regs.o(.text)
    GetFNR                                   0x08006625   Thumb Code    10  usb_regs.o(.text)
    SetDADDR                                 0x0800662f   Thumb Code     8  usb_regs.o(.text)
    GetDADDR                                 0x08006637   Thumb Code    10  usb_regs.o(.text)
    SetBTABLE                                0x08006641   Thumb Code    12  usb_regs.o(.text)
    GetBTABLE                                0x0800664d   Thumb Code    10  usb_regs.o(.text)
    SetENDPOINT                              0x08006657   Thumb Code    12  usb_regs.o(.text)
    GetENDPOINT                              0x08006663   Thumb Code    14  usb_regs.o(.text)
    SetEPType                                0x08006671   Thumb Code    24  usb_regs.o(.text)
    GetEPType                                0x08006689   Thumb Code    18  usb_regs.o(.text)
    SetEPTxStatus                            0x0800669b   Thumb Code    44  usb_regs.o(.text)
    SetEPRxStatus                            0x080066c7   Thumb Code    44  usb_regs.o(.text)
    SetDouBleBuffEPStall                     0x080066f3   Thumb Code    42  usb_regs.o(.text)
    GetEPTxStatus                            0x0800671d   Thumb Code    18  usb_regs.o(.text)
    GetEPRxStatus                            0x0800672f   Thumb Code    18  usb_regs.o(.text)
    SetEPTxValid                             0x08006741   Thumb Code    32  usb_regs.o(.text)
    SetEPRxValid                             0x08006761   Thumb Code    32  usb_regs.o(.text)
    SetEP_KIND                               0x08006781   Thumb Code    28  usb_regs.o(.text)
    ClearEP_KIND                             0x0800679d   Thumb Code    28  usb_regs.o(.text)
    Clear_Status_Out                         0x080067b9   Thumb Code    28  usb_regs.o(.text)
    Set_Status_Out                           0x080067d5   Thumb Code    28  usb_regs.o(.text)
    SetEPDoubleBuff                          0x080067f1   Thumb Code    28  usb_regs.o(.text)
    ClearEPDoubleBuff                        0x0800680d   Thumb Code    28  usb_regs.o(.text)
    GetTxStallStatus                         0x08006829   Thumb Code    22  usb_regs.o(.text)
    GetRxStallStatus                         0x0800683f   Thumb Code    22  usb_regs.o(.text)
    ClearEP_CTR_RX                           0x08006855   Thumb Code    22  usb_regs.o(.text)
    ClearEP_CTR_TX                           0x0800686b   Thumb Code    22  usb_regs.o(.text)
    ToggleDTOG_RX                            0x08006881   Thumb Code    28  usb_regs.o(.text)
    ToggleDTOG_TX                            0x0800689d   Thumb Code    28  usb_regs.o(.text)
    ClearDTOG_RX                             0x080068b9   Thumb Code    36  usb_regs.o(.text)
    ClearDTOG_TX                             0x080068dd   Thumb Code    36  usb_regs.o(.text)
    SetEPAddress                             0x08006901   Thumb Code    30  usb_regs.o(.text)
    GetEPAddress                             0x0800691f   Thumb Code    16  usb_regs.o(.text)
    SetEPTxAddr                              0x0800692f   Thumb Code    24  usb_regs.o(.text)
    SetEPRxAddr                              0x08006947   Thumb Code    26  usb_regs.o(.text)
    GetEPTxAddr                              0x08006961   Thumb Code    22  usb_regs.o(.text)
    GetEPRxAddr                              0x08006977   Thumb Code    24  usb_regs.o(.text)
    SetEPTxCount                             0x0800698f   Thumb Code    22  usb_regs.o(.text)
    SetEPCountRxReg                          0x080069a5   Thumb Code    38  usb_regs.o(.text)
    SetEPRxCount                             0x080069cb   Thumb Code    72  usb_regs.o(.text)
    GetEPTxCount                             0x08006a13   Thumb Code    24  usb_regs.o(.text)
    GetEPRxCount                             0x08006a2b   Thumb Code    24  usb_regs.o(.text)
    SetEPDblBuffAddr                         0x08006a43   Thumb Code    42  usb_regs.o(.text)
    SetEPDblBuf0Addr                         0x08006a6d   Thumb Code    22  usb_regs.o(.text)
    SetEPDblBuf1Addr                         0x08006a83   Thumb Code    24  usb_regs.o(.text)
    GetEPDblBuf0Addr                         0x08006a9b   Thumb Code    20  usb_regs.o(.text)
    GetEPDblBuf1Addr                         0x08006aaf   Thumb Code    22  usb_regs.o(.text)
    SetEPDblBuffCount                        0x08006ac5   Thumb Code   156  usb_regs.o(.text)
    SetEPDblBuf0Count                        0x08006b61   Thumb Code    82  usb_regs.o(.text)
    SetEPDblBuf1Count                        0x08006bb3   Thumb Code    82  usb_regs.o(.text)
    GetEPDblBuf0Count                        0x08006c05   Thumb Code    24  usb_regs.o(.text)
    GetEPDblBuf1Count                        0x08006c1d   Thumb Code    24  usb_regs.o(.text)
    GetEPDblBufDir                           0x08006c35   Thumb Code    50  usb_regs.o(.text)
    FreeUserBuffer                           0x08006c67   Thumb Code    48  usb_regs.o(.text)
    ToWord                                   0x08006c97   Thumb Code     6  usb_regs.o(.text)
    ByteSwap                                 0x08006c9d   Thumb Code    10  usb_regs.o(.text)
    USB_SIL_Init                             0x08006cb5   Thumb Code    24  usb_sil.o(.text)
    USB_SIL_Write                            0x08006ccd   Thumb Code    38  usb_sil.o(.text)
    USB_SIL_Read                             0x08006cf3   Thumb Code    36  usb_sil.o(.text)
    NVIC_PriorityGroupConfig                 0x08006d21   Thumb Code    10  misc.o(.text)
    NVIC_Init                                0x08006d2b   Thumb Code    94  misc.o(.text)
    NVIC_SetVectorTable                      0x08006d89   Thumb Code    14  misc.o(.text)
    NVIC_SystemLPConfig                      0x08006d97   Thumb Code    20  misc.o(.text)
    SysTick_CLKSourceConfig                  0x08006dab   Thumb Code    24  misc.o(.text)
    BKP_DeInit                               0x08006dd1   Thumb Code    18  stm32f10x_bkp.o(.text)
    BKP_TamperPinLevelConfig                 0x08006de3   Thumb Code     6  stm32f10x_bkp.o(.text)
    BKP_TamperPinCmd                         0x08006de9   Thumb Code     8  stm32f10x_bkp.o(.text)
    BKP_ITConfig                             0x08006df1   Thumb Code     8  stm32f10x_bkp.o(.text)
    BKP_RTCOutputConfig                      0x08006df9   Thumb Code    14  stm32f10x_bkp.o(.text)
    BKP_SetRTCCalibrationValue               0x08006e07   Thumb Code    14  stm32f10x_bkp.o(.text)
    BKP_WriteBackupRegister                  0x08006e15   Thumb Code    14  stm32f10x_bkp.o(.text)
    BKP_ReadBackupRegister                   0x08006e23   Thumb Code    14  stm32f10x_bkp.o(.text)
    BKP_GetFlagStatus                        0x08006e31   Thumb Code    10  stm32f10x_bkp.o(.text)
    BKP_ClearFlag                            0x08006e3b   Thumb Code    14  stm32f10x_bkp.o(.text)
    BKP_GetITStatus                          0x08006e49   Thumb Code    10  stm32f10x_bkp.o(.text)
    BKP_ClearITPendingBit                    0x08006e53   Thumb Code    14  stm32f10x_bkp.o(.text)
    DMA_DeInit                               0x08006e69   Thumb Code   218  stm32f10x_dma.o(.text)
    DMA_Init                                 0x08006f43   Thumb Code    58  stm32f10x_dma.o(.text)
    DMA_StructInit                           0x08006f7d   Thumb Code    26  stm32f10x_dma.o(.text)
    DMA_Cmd                                  0x08006f97   Thumb Code    22  stm32f10x_dma.o(.text)
    DMA_ITConfig                             0x08006fad   Thumb Code    16  stm32f10x_dma.o(.text)
    DMA_SetCurrDataCounter                   0x08006fbd   Thumb Code     4  stm32f10x_dma.o(.text)
    DMA_GetCurrDataCounter                   0x08006fc1   Thumb Code     6  stm32f10x_dma.o(.text)
    DMA_GetFlagStatus                        0x08006fc7   Thumb Code    28  stm32f10x_dma.o(.text)
    DMA_ClearFlag                            0x08006fe3   Thumb Code    20  stm32f10x_dma.o(.text)
    DMA_GetITStatus                          0x08006ff7   Thumb Code    28  stm32f10x_dma.o(.text)
    DMA_ClearITPendingBit                    0x08007013   Thumb Code    20  stm32f10x_dma.o(.text)
    EXTI_DeInit                              0x08007031   Thumb Code    28  stm32f10x_exti.o(.text)
    EXTI_Init                                0x0800704d   Thumb Code   108  stm32f10x_exti.o(.text)
    EXTI_StructInit                          0x080070b9   Thumb Code    14  stm32f10x_exti.o(.text)
    EXTI_GenerateSWInterrupt                 0x080070c7   Thumb Code    12  stm32f10x_exti.o(.text)
    EXTI_GetFlagStatus                       0x080070d3   Thumb Code    18  stm32f10x_exti.o(.text)
    EXTI_ClearFlag                           0x080070e5   Thumb Code     8  stm32f10x_exti.o(.text)
    EXTI_GetITStatus                         0x080070ed   Thumb Code    28  stm32f10x_exti.o(.text)
    EXTI_ClearITPendingBit                   0x08007109   Thumb Code     8  stm32f10x_exti.o(.text)
    FLASH_SetLatency                         0x08007119   Thumb Code    14  stm32f10x_flash.o(.text)
    FLASH_HalfCycleAccessCmd                 0x08007127   Thumb Code    18  stm32f10x_flash.o(.text)
    FLASH_PrefetchBufferCmd                  0x08007139   Thumb Code    18  stm32f10x_flash.o(.text)
    FLASH_Unlock                             0x0800714b   Thumb Code    12  stm32f10x_flash.o(.text)
    FLASH_UnlockBank1                        0x08007157   Thumb Code    12  stm32f10x_flash.o(.text)
    FLASH_Lock                               0x08007163   Thumb Code    12  stm32f10x_flash.o(.text)
    FLASH_LockBank1                          0x0800716f   Thumb Code    12  stm32f10x_flash.o(.text)
    FLASH_GetBank1Status                     0x0800717b   Thumb Code    34  stm32f10x_flash.o(.text)
    FLASH_WaitForLastOperation               0x0800719d   Thumb Code    36  stm32f10x_flash.o(.text)
    FLASH_ErasePage                          0x080071c1   Thumb Code    56  stm32f10x_flash.o(.text)
    FLASH_EraseAllPages                      0x080071f9   Thumb Code    52  stm32f10x_flash.o(.text)
    FLASH_WaitForLastBank1Operation          0x0800722d   Thumb Code    36  stm32f10x_flash.o(.text)
    FLASH_EraseAllBank1Pages                 0x08007251   Thumb Code    52  stm32f10x_flash.o(.text)
    FLASH_GetReadOutProtectionStatus         0x08007285   Thumb Code    14  stm32f10x_flash.o(.text)
    FLASH_EraseOptionBytes                   0x08007293   Thumb Code   108  stm32f10x_flash.o(.text)
    FLASH_ProgramWord                        0x080072ff   Thumb Code    72  stm32f10x_flash.o(.text)
    FLASH_ProgramHalfWord                    0x08007347   Thumb Code    48  stm32f10x_flash.o(.text)
    FLASH_ProgramOptionByteData              0x08007377   Thumb Code    62  stm32f10x_flash.o(.text)
    FLASH_EnableWriteProtection              0x080073b5   Thumb Code   150  stm32f10x_flash.o(.text)
    FLASH_ReadOutProtection                  0x0800744b   Thumb Code   118  stm32f10x_flash.o(.text)
    FLASH_UserOptionByteConfig               0x080074c1   Thumb Code    92  stm32f10x_flash.o(.text)
    FLASH_GetUserOptionByte                  0x0800751d   Thumb Code     8  stm32f10x_flash.o(.text)
    FLASH_GetWriteProtectionOptionByte       0x08007525   Thumb Code     6  stm32f10x_flash.o(.text)
    FLASH_GetPrefetchBufferStatus            0x0800752b   Thumb Code    14  stm32f10x_flash.o(.text)
    FLASH_ITConfig                           0x08007539   Thumb Code    18  stm32f10x_flash.o(.text)
    FLASH_GetFlagStatus                      0x0800754b   Thumb Code    28  stm32f10x_flash.o(.text)
    FLASH_ClearFlag                          0x08007567   Thumb Code     6  stm32f10x_flash.o(.text)
    FLASH_GetStatus                          0x0800756d   Thumb Code    34  stm32f10x_flash.o(.text)
    GPIO_DeInit                              0x08007595   Thumb Code   152  stm32f10x_gpio.o(.text)
    GPIO_AFIODeInit                          0x0800762d   Thumb Code    22  stm32f10x_gpio.o(.text)
    GPIO_Init                                0x08007643   Thumb Code   164  stm32f10x_gpio.o(.text)
    GPIO_StructInit                          0x080076e7   Thumb Code    16  stm32f10x_gpio.o(.text)
    GPIO_ReadInputDataBit                    0x080076f7   Thumb Code    14  stm32f10x_gpio.o(.text)
    GPIO_ReadInputData                       0x08007705   Thumb Code     6  stm32f10x_gpio.o(.text)
    GPIO_ReadOutputDataBit                   0x0800770b   Thumb Code    14  stm32f10x_gpio.o(.text)
    GPIO_ReadOutputData                      0x08007719   Thumb Code     6  stm32f10x_gpio.o(.text)
    GPIO_SetBits                             0x0800771f   Thumb Code     4  stm32f10x_gpio.o(.text)
    GPIO_ResetBits                           0x08007723   Thumb Code     4  stm32f10x_gpio.o(.text)
    GPIO_WriteBit                            0x08007727   Thumb Code    10  stm32f10x_gpio.o(.text)
    GPIO_Write                               0x08007731   Thumb Code     4  stm32f10x_gpio.o(.text)
    GPIO_PinLockConfig                       0x08007735   Thumb Code    16  stm32f10x_gpio.o(.text)
    GPIO_EventOutputConfig                   0x08007745   Thumb Code    22  stm32f10x_gpio.o(.text)
    GPIO_EventOutputCmd                      0x0800775b   Thumb Code     6  stm32f10x_gpio.o(.text)
    GPIO_PinRemapConfig                      0x08007761   Thumb Code    82  stm32f10x_gpio.o(.text)
    GPIO_EXTILineConfig                      0x080077b3   Thumb Code    34  stm32f10x_gpio.o(.text)
    GPIO_ETH_MediaInterfaceConfig            0x080077d5   Thumb Code     8  stm32f10x_gpio.o(.text)
    PWR_DeInit                               0x08007801   Thumb Code    24  stm32f10x_pwr.o(.text)
    PWR_BackupAccessCmd                      0x08007819   Thumb Code     6  stm32f10x_pwr.o(.text)
    PWR_PVDCmd                               0x0800781f   Thumb Code     6  stm32f10x_pwr.o(.text)
    PWR_PVDLevelConfig                       0x08007825   Thumb Code    14  stm32f10x_pwr.o(.text)
    PWR_WakeUpPinCmd                         0x08007833   Thumb Code     8  stm32f10x_pwr.o(.text)
    PWR_EnterSTOPMode                        0x0800783b   Thumb Code    42  stm32f10x_pwr.o(.text)
    PWR_EnterSTANDBYMode                     0x08007865   Thumb Code    32  stm32f10x_pwr.o(.text)
    PWR_GetFlagStatus                        0x08007885   Thumb Code    16  stm32f10x_pwr.o(.text)
    PWR_ClearFlag                            0x08007895   Thumb Code    12  stm32f10x_pwr.o(.text)
    RCC_DeInit                               0x080078ad   Thumb Code    50  stm32f10x_rcc.o(.text)
    RCC_HSEConfig                            0x080078df   Thumb Code    48  stm32f10x_rcc.o(.text)
    RCC_GetFlagStatus                        0x0800790f   Thumb Code    42  stm32f10x_rcc.o(.text)
    RCC_WaitForHSEStartUp                    0x08007939   Thumb Code    44  stm32f10x_rcc.o(.text)
    RCC_AdjustHSICalibrationValue            0x08007965   Thumb Code    16  stm32f10x_rcc.o(.text)
    RCC_HSICmd                               0x08007975   Thumb Code     6  stm32f10x_rcc.o(.text)
    RCC_PLLConfig                            0x0800797b   Thumb Code    16  stm32f10x_rcc.o(.text)
    RCC_PLLCmd                               0x0800798b   Thumb Code     6  stm32f10x_rcc.o(.text)
    RCC_SYSCLKConfig                         0x08007991   Thumb Code    14  stm32f10x_rcc.o(.text)
    RCC_GetSYSCLKSource                      0x0800799f   Thumb Code    10  stm32f10x_rcc.o(.text)
    RCC_HCLKConfig                           0x080079a9   Thumb Code    14  stm32f10x_rcc.o(.text)
    RCC_PCLK1Config                          0x080079b7   Thumb Code    14  stm32f10x_rcc.o(.text)
    RCC_PCLK2Config                          0x080079c5   Thumb Code    16  stm32f10x_rcc.o(.text)
    RCC_ITConfig                             0x080079d5   Thumb Code    18  stm32f10x_rcc.o(.text)
    RCC_USBCLKConfig                         0x080079e7   Thumb Code     8  stm32f10x_rcc.o(.text)
    RCC_ADCCLKConfig                         0x080079ef   Thumb Code    14  stm32f10x_rcc.o(.text)
    RCC_LSEConfig                            0x080079fd   Thumb Code    28  stm32f10x_rcc.o(.text)
    RCC_LSICmd                               0x08007a19   Thumb Code     6  stm32f10x_rcc.o(.text)
    RCC_RTCCLKConfig                         0x08007a1f   Thumb Code    10  stm32f10x_rcc.o(.text)
    RCC_RTCCLKCmd                            0x08007a29   Thumb Code     8  stm32f10x_rcc.o(.text)
    RCC_GetClocksFreq                        0x08007a31   Thumb Code   128  stm32f10x_rcc.o(.text)
    RCC_AHBPeriphClockCmd                    0x08007ab1   Thumb Code    18  stm32f10x_rcc.o(.text)
    RCC_APB2PeriphClockCmd                   0x08007ac3   Thumb Code    18  stm32f10x_rcc.o(.text)
    RCC_APB1PeriphClockCmd                   0x08007ad5   Thumb Code    18  stm32f10x_rcc.o(.text)
    RCC_APB2PeriphResetCmd                   0x08007ae7   Thumb Code    18  stm32f10x_rcc.o(.text)
    RCC_APB1PeriphResetCmd                   0x08007af9   Thumb Code    18  stm32f10x_rcc.o(.text)
    RCC_BackupResetCmd                       0x08007b0b   Thumb Code     8  stm32f10x_rcc.o(.text)
    RCC_ClockSecuritySystemCmd               0x08007b13   Thumb Code     6  stm32f10x_rcc.o(.text)
    RCC_MCOConfig                            0x08007b19   Thumb Code     6  stm32f10x_rcc.o(.text)
    RCC_ClearFlag                            0x08007b1f   Thumb Code    12  stm32f10x_rcc.o(.text)
    RCC_GetITStatus                          0x08007b2b   Thumb Code    16  stm32f10x_rcc.o(.text)
    RCC_ClearITPendingBit                    0x08007b3b   Thumb Code     6  stm32f10x_rcc.o(.text)
    RTC_ITConfig                             0x08007b61   Thumb Code    18  stm32f10x_rtc.o(.text)
    RTC_EnterConfigMode                      0x08007b73   Thumb Code    14  stm32f10x_rtc.o(.text)
    RTC_ExitConfigMode                       0x08007b81   Thumb Code    14  stm32f10x_rtc.o(.text)
    RTC_GetCounter                           0x08007b8f   Thumb Code    18  stm32f10x_rtc.o(.text)
    RTC_SetCounter                           0x08007ba1   Thumb Code    26  stm32f10x_rtc.o(.text)
    RTC_SetPrescaler                         0x08007bbb   Thumb Code    28  stm32f10x_rtc.o(.text)
    RTC_SetAlarm                             0x08007bd7   Thumb Code    26  stm32f10x_rtc.o(.text)
    RTC_GetDivider                           0x08007bf1   Thumb Code    20  stm32f10x_rtc.o(.text)
    RTC_WaitForLastTask                      0x08007c05   Thumb Code    12  stm32f10x_rtc.o(.text)
    RTC_WaitForSynchro                       0x08007c11   Thumb Code    20  stm32f10x_rtc.o(.text)
    RTC_GetFlagStatus                        0x08007c25   Thumb Code    18  stm32f10x_rtc.o(.text)
    RTC_ClearFlag                            0x08007c37   Thumb Code    12  stm32f10x_rtc.o(.text)
    RTC_GetITStatus                          0x08007c43   Thumb Code    28  stm32f10x_rtc.o(.text)
    RTC_ClearITPendingBit                    0x08007c5f   Thumb Code    12  stm32f10x_rtc.o(.text)
    SPI_I2S_DeInit                           0x08007c71   Thumb Code    72  stm32f10x_spi.o(.text)
    SPI_Init                                 0x08007cb9   Thumb Code    56  stm32f10x_spi.o(.text)
    I2S_Init                                 0x08007cf1   Thumb Code   152  stm32f10x_spi.o(.text)
    SPI_StructInit                           0x08007d89   Thumb Code    24  stm32f10x_spi.o(.text)
    I2S_StructInit                           0x08007da1   Thumb Code    18  stm32f10x_spi.o(.text)
    SPI_Cmd                                  0x08007db3   Thumb Code    20  stm32f10x_spi.o(.text)
    I2S_Cmd                                  0x08007dc7   Thumb Code    20  stm32f10x_spi.o(.text)
    SPI_I2S_ITConfig                         0x08007ddb   Thumb Code    24  stm32f10x_spi.o(.text)
    SPI_I2S_DMACmd                           0x08007df3   Thumb Code    16  stm32f10x_spi.o(.text)
    SPI_I2S_SendData                         0x08007e03   Thumb Code     4  stm32f10x_spi.o(.text)
    SPI_I2S_ReceiveData                      0x08007e07   Thumb Code     4  stm32f10x_spi.o(.text)
    SPI_NSSInternalSoftwareConfig            0x08007e0b   Thumb Code    24  stm32f10x_spi.o(.text)
    SPI_SSOutputCmd                          0x08007e23   Thumb Code    20  stm32f10x_spi.o(.text)
    SPI_DataSizeConfig                       0x08007e37   Thumb Code    16  stm32f10x_spi.o(.text)
    SPI_TransmitCRC                          0x08007e47   Thumb Code    10  stm32f10x_spi.o(.text)
    SPI_CalculateCRC                         0x08007e51   Thumb Code    20  stm32f10x_spi.o(.text)
    SPI_GetCRC                               0x08007e65   Thumb Code    12  stm32f10x_spi.o(.text)
    SPI_GetCRCPolynomial                     0x08007e71   Thumb Code     4  stm32f10x_spi.o(.text)
    SPI_BiDirectionalLineConfig              0x08007e75   Thumb Code    22  stm32f10x_spi.o(.text)
    SPI_I2S_GetFlagStatus                    0x08007e8b   Thumb Code    14  stm32f10x_spi.o(.text)
    SPI_I2S_ClearFlag                        0x08007e99   Thumb Code     6  stm32f10x_spi.o(.text)
    SPI_I2S_GetITStatus                      0x08007e9f   Thumb Code    42  stm32f10x_spi.o(.text)
    SPI_I2S_ClearITPendingBit                0x08007ec9   Thumb Code    14  stm32f10x_spi.o(.text)
    TIM_DeInit                               0x08007ee5   Thumb Code   304  stm32f10x_tim.o(.text)
    TIM_TimeBaseInit                         0x08008015   Thumb Code   114  stm32f10x_tim.o(.text)
    TIM_OC1Init                              0x08008087   Thumb Code   106  stm32f10x_tim.o(.text)
    TIM_OC2Init                              0x080080f1   Thumb Code   120  stm32f10x_tim.o(.text)
    TIM_OC3Init                              0x08008169   Thumb Code   116  stm32f10x_tim.o(.text)
    TIM_OC4Init                              0x080081dd   Thumb Code    90  stm32f10x_tim.o(.text)
    TIM_SetIC4Prescaler                      0x08008237   Thumb Code    24  stm32f10x_tim.o(.text)
    TIM_SetIC3Prescaler                      0x0800824f   Thumb Code    16  stm32f10x_tim.o(.text)
    TIM_SetIC2Prescaler                      0x0800825f   Thumb Code    24  stm32f10x_tim.o(.text)
    TIM_SetIC1Prescaler                      0x0800831d   Thumb Code    16  stm32f10x_tim.o(.text)
    TIM_ICInit                               0x08008385   Thumb Code   272  stm32f10x_tim.o(.text)
    TIM_PWMIConfig                           0x08008495   Thumb Code   104  stm32f10x_tim.o(.text)
    TIM_BDTRConfig                           0x080084fd   Thumb Code    34  stm32f10x_tim.o(.text)
    TIM_TimeBaseStructInit                   0x0800851f   Thumb Code    18  stm32f10x_tim.o(.text)
    TIM_OCStructInit                         0x08008531   Thumb Code    20  stm32f10x_tim.o(.text)
    TIM_ICStructInit                         0x08008545   Thumb Code    16  stm32f10x_tim.o(.text)
    TIM_BDTRStructInit                       0x08008555   Thumb Code    18  stm32f10x_tim.o(.text)
    TIM_Cmd                                  0x08008567   Thumb Code    20  stm32f10x_tim.o(.text)
    TIM_CtrlPWMOutputs                       0x0800857b   Thumb Code    22  stm32f10x_tim.o(.text)
    TIM_ITConfig                             0x08008591   Thumb Code    16  stm32f10x_tim.o(.text)
    TIM_GenerateEvent                        0x080085a1   Thumb Code     4  stm32f10x_tim.o(.text)
    TIM_DMAConfig                            0x080085a5   Thumb Code     8  stm32f10x_tim.o(.text)
    TIM_DMACmd                               0x080085ad   Thumb Code    16  stm32f10x_tim.o(.text)
    TIM_InternalClockConfig                  0x080085bd   Thumb Code    10  stm32f10x_tim.o(.text)
    TIM_SelectInputTrigger                   0x080085c7   Thumb Code    12  stm32f10x_tim.o(.text)
    TIM_ITRxExternalClockConfig              0x080085d3   Thumb Code    18  stm32f10x_tim.o(.text)
    TIM_TIxExternalClockConfig               0x080085e5   Thumb Code    46  stm32f10x_tim.o(.text)
    TIM_ETRConfig                            0x08008613   Thumb Code    24  stm32f10x_tim.o(.text)
    TIM_ETRClockMode1Config                  0x0800862b   Thumb Code    18  stm32f10x_tim.o(.text)
    TIM_ETRClockMode2Config                  0x0800863d   Thumb Code    18  stm32f10x_tim.o(.text)
    TIM_PrescalerConfig                      0x0800864f   Thumb Code     6  stm32f10x_tim.o(.text)
    TIM_CounterModeConfig                    0x08008655   Thumb Code    12  stm32f10x_tim.o(.text)
    TIM_EncoderInterfaceConfig               0x08008661   Thumb Code    50  stm32f10x_tim.o(.text)
    TIM_ForcedOC1Config                      0x08008693   Thumb Code    12  stm32f10x_tim.o(.text)
    TIM_ForcedOC2Config                      0x0800869f   Thumb Code    20  stm32f10x_tim.o(.text)
    TIM_ForcedOC3Config                      0x080086b3   Thumb Code    12  stm32f10x_tim.o(.text)
    TIM_ForcedOC4Config                      0x080086bf   Thumb Code    20  stm32f10x_tim.o(.text)
    TIM_ARRPreloadConfig                     0x080086d3   Thumb Code    20  stm32f10x_tim.o(.text)
    TIM_SelectCOM                            0x080086e7   Thumb Code    20  stm32f10x_tim.o(.text)
    TIM_SelectCCDMA                          0x080086fb   Thumb Code    20  stm32f10x_tim.o(.text)
    TIM_CCPreloadControl                     0x0800870f   Thumb Code    20  stm32f10x_tim.o(.text)
    TIM_OC1PreloadConfig                     0x08008723   Thumb Code    34  stm32f10x_tim.o(.text)
    TIM_OC2PreloadConfig                     0x08008745   Thumb Code    20  stm32f10x_tim.o(.text)
    TIM_OC3PreloadConfig                     0x08008759   Thumb Code    12  stm32f10x_tim.o(.text)
    TIM_OC4PreloadConfig                     0x08008765   Thumb Code    20  stm32f10x_tim.o(.text)
    TIM_OC1FastConfig                        0x08008779   Thumb Code    12  stm32f10x_tim.o(.text)
    TIM_OC2FastConfig                        0x08008785   Thumb Code    20  stm32f10x_tim.o(.text)
    TIM_OC3FastConfig                        0x08008799   Thumb Code    12  stm32f10x_tim.o(.text)
    TIM_OC4FastConfig                        0x080087a5   Thumb Code    20  stm32f10x_tim.o(.text)
    TIM_ClearOC1Ref                          0x080087b9   Thumb Code    12  stm32f10x_tim.o(.text)
    TIM_ClearOC2Ref                          0x080087c5   Thumb Code    20  stm32f10x_tim.o(.text)
    TIM_ClearOC3Ref                          0x080087d9   Thumb Code    12  stm32f10x_tim.o(.text)
    TIM_ClearOC4Ref                          0x080087e5   Thumb Code    20  stm32f10x_tim.o(.text)
    TIM_OC1PolarityConfig                    0x080087f9   Thumb Code    12  stm32f10x_tim.o(.text)
    TIM_OC1NPolarityConfig                   0x08008805   Thumb Code    12  stm32f10x_tim.o(.text)
    TIM_OC2PolarityConfig                    0x08008811   Thumb Code    20  stm32f10x_tim.o(.text)
    TIM_OC2NPolarityConfig                   0x08008825   Thumb Code    20  stm32f10x_tim.o(.text)
    TIM_OC3PolarityConfig                    0x08008839   Thumb Code    20  stm32f10x_tim.o(.text)
    TIM_OC3NPolarityConfig                   0x0800884d   Thumb Code    20  stm32f10x_tim.o(.text)
    TIM_OC4PolarityConfig                    0x08008861   Thumb Code    20  stm32f10x_tim.o(.text)
    TIM_CCxCmd                               0x08008875   Thumb Code    22  stm32f10x_tim.o(.text)
    TIM_CCxNCmd                              0x0800888b   Thumb Code    22  stm32f10x_tim.o(.text)
    TIM_SelectOCxM                           0x080088a1   Thumb Code    70  stm32f10x_tim.o(.text)
    TIM_UpdateDisableConfig                  0x080088e7   Thumb Code    20  stm32f10x_tim.o(.text)
    TIM_UpdateRequestConfig                  0x080088fb   Thumb Code    20  stm32f10x_tim.o(.text)
    TIM_SelectHallSensor                     0x0800890f   Thumb Code    20  stm32f10x_tim.o(.text)
    TIM_SelectOnePulseMode                   0x08008923   Thumb Code    16  stm32f10x_tim.o(.text)
    TIM_SelectOutputTrigger                  0x08008933   Thumb Code    16  stm32f10x_tim.o(.text)
    TIM_SelectSlaveMode                      0x08008943   Thumb Code    16  stm32f10x_tim.o(.text)
    TIM_SelectMasterSlaveMode                0x08008953   Thumb Code    16  stm32f10x_tim.o(.text)
    TIM_SetCounter                           0x08008963   Thumb Code     4  stm32f10x_tim.o(.text)
    TIM_SetAutoreload                        0x08008967   Thumb Code     4  stm32f10x_tim.o(.text)
    TIM_SetCompare1                          0x0800896b   Thumb Code     4  stm32f10x_tim.o(.text)
    TIM_SetCompare2                          0x0800896f   Thumb Code     4  stm32f10x_tim.o(.text)
    TIM_SetCompare3                          0x08008973   Thumb Code     4  stm32f10x_tim.o(.text)
    TIM_SetCompare4                          0x08008977   Thumb Code     6  stm32f10x_tim.o(.text)
    TIM_SetClockDivision                     0x0800897d   Thumb Code    16  stm32f10x_tim.o(.text)
    TIM_GetCapture1                          0x0800898d   Thumb Code     4  stm32f10x_tim.o(.text)
    TIM_GetCapture2                          0x08008991   Thumb Code     4  stm32f10x_tim.o(.text)
    TIM_GetCapture3                          0x08008995   Thumb Code     4  stm32f10x_tim.o(.text)
    TIM_GetCapture4                          0x08008999   Thumb Code     6  stm32f10x_tim.o(.text)
    TIM_GetCounter                           0x0800899f   Thumb Code     4  stm32f10x_tim.o(.text)
    TIM_GetPrescaler                         0x080089a3   Thumb Code     4  stm32f10x_tim.o(.text)
    TIM_GetFlagStatus                        0x080089a7   Thumb Code    14  stm32f10x_tim.o(.text)
    TIM_ClearFlag                            0x080089b5   Thumb Code     6  stm32f10x_tim.o(.text)
    TIM_GetITStatus                          0x080089bb   Thumb Code    24  stm32f10x_tim.o(.text)
    TIM_ClearITPendingBit                    0x080089d3   Thumb Code     6  stm32f10x_tim.o(.text)
    USART_DeInit                             0x080089d9   Thumb Code    96  stm32f10x_usart.o(.text)
    USART_Init                               0x08008a39   Thumb Code   166  stm32f10x_usart.o(.text)
    USART_StructInit                         0x08008adf   Thumb Code    22  stm32f10x_usart.o(.text)
    USART_ClockInit                          0x08008af5   Thumb Code    30  stm32f10x_usart.o(.text)
    USART_ClockStructInit                    0x08008b13   Thumb Code    12  stm32f10x_usart.o(.text)
    USART_Cmd                                0x08008b1f   Thumb Code    20  stm32f10x_usart.o(.text)
    USART_ITConfig                           0x08008b33   Thumb Code    48  stm32f10x_usart.o(.text)
    USART_DMACmd                             0x08008b63   Thumb Code    16  stm32f10x_usart.o(.text)
    USART_SetAddress                         0x08008b73   Thumb Code    16  stm32f10x_usart.o(.text)
    USART_WakeUpConfig                       0x08008b83   Thumb Code    16  stm32f10x_usart.o(.text)
    USART_ReceiverWakeUpCmd                  0x08008b93   Thumb Code    20  stm32f10x_usart.o(.text)
    USART_LINBreakDetectLengthConfig         0x08008ba7   Thumb Code    16  stm32f10x_usart.o(.text)
    USART_LINCmd                             0x08008bb7   Thumb Code    20  stm32f10x_usart.o(.text)
    USART_SendData                           0x08008bcb   Thumb Code     8  stm32f10x_usart.o(.text)
    USART_ReceiveData                        0x08008bd3   Thumb Code     8  stm32f10x_usart.o(.text)
    USART_SendBreak                          0x08008bdb   Thumb Code    10  stm32f10x_usart.o(.text)
    USART_SetGuardTime                       0x08008be5   Thumb Code    16  stm32f10x_usart.o(.text)
    USART_SetPrescaler                       0x08008bf5   Thumb Code    16  stm32f10x_usart.o(.text)
    USART_SmartCardCmd                       0x08008c05   Thumb Code    20  stm32f10x_usart.o(.text)
    USART_SmartCardNACKCmd                   0x08008c19   Thumb Code    20  stm32f10x_usart.o(.text)
    USART_HalfDuplexCmd                      0x08008c2d   Thumb Code    20  stm32f10x_usart.o(.text)
    USART_OverSampling8Cmd                   0x08008c41   Thumb Code    20  stm32f10x_usart.o(.text)
    USART_OneBitMethodCmd                    0x08008c55   Thumb Code    20  stm32f10x_usart.o(.text)
    USART_IrDAConfig                         0x08008c69   Thumb Code    16  stm32f10x_usart.o(.text)
    USART_IrDACmd                            0x08008c79   Thumb Code    20  stm32f10x_usart.o(.text)
    USART_GetFlagStatus                      0x08008c8d   Thumb Code    14  stm32f10x_usart.o(.text)
    USART_ClearFlag                          0x08008c9b   Thumb Code     6  stm32f10x_usart.o(.text)
    USART_GetITStatus                        0x08008ca1   Thumb Code    62  stm32f10x_usart.o(.text)
    USART_ClearITPendingBit                  0x08008cdf   Thumb Code    12  stm32f10x_usart.o(.text)
    Reset_Handler                            0x08008d01   Thumb Code     8  startup_stm32f10x_md.o(.text)
    ADC1_2_IRQHandler                        0x08008d1b   Thumb Code     0  startup_stm32f10x_md.o(.text)
    CAN1_RX1_IRQHandler                      0x08008d1b   Thumb Code     0  startup_stm32f10x_md.o(.text)
    CAN1_SCE_IRQHandler                      0x08008d1b   Thumb Code     0  startup_stm32f10x_md.o(.text)
    DMA1_Channel1_IRQHandler                 0x08008d1b   Thumb Code     0  startup_stm32f10x_md.o(.text)
    DMA1_Channel2_IRQHandler                 0x08008d1b   Thumb Code     0  startup_stm32f10x_md.o(.text)
    DMA1_Channel3_IRQHandler                 0x08008d1b   Thumb Code     0  startup_stm32f10x_md.o(.text)
    DMA1_Channel4_IRQHandler                 0x08008d1b   Thumb Code     0  startup_stm32f10x_md.o(.text)
    DMA1_Channel5_IRQHandler                 0x08008d1b   Thumb Code     0  startup_stm32f10x_md.o(.text)
    DMA1_Channel6_IRQHandler                 0x08008d1b   Thumb Code     0  startup_stm32f10x_md.o(.text)
    DMA1_Channel7_IRQHandler                 0x08008d1b   Thumb Code     0  startup_stm32f10x_md.o(.text)
    EXTI1_IRQHandler                         0x08008d1b   Thumb Code     0  startup_stm32f10x_md.o(.text)
    EXTI2_IRQHandler                         0x08008d1b   Thumb Code     0  startup_stm32f10x_md.o(.text)
    EXTI4_IRQHandler                         0x08008d1b   Thumb Code     0  startup_stm32f10x_md.o(.text)
    FLASH_IRQHandler                         0x08008d1b   Thumb Code     0  startup_stm32f10x_md.o(.text)
    I2C1_ER_IRQHandler                       0x08008d1b   Thumb Code     0  startup_stm32f10x_md.o(.text)
    I2C1_EV_IRQHandler                       0x08008d1b   Thumb Code     0  startup_stm32f10x_md.o(.text)
    I2C2_ER_IRQHandler                       0x08008d1b   Thumb Code     0  startup_stm32f10x_md.o(.text)
    I2C2_EV_IRQHandler                       0x08008d1b   Thumb Code     0  startup_stm32f10x_md.o(.text)
    PVD_IRQHandler                           0x08008d1b   Thumb Code     0  startup_stm32f10x_md.o(.text)
    RCC_IRQHandler                           0x08008d1b   Thumb Code     0  startup_stm32f10x_md.o(.text)
    RTCAlarm_IRQHandler                      0x08008d1b   Thumb Code     0  startup_stm32f10x_md.o(.text)
    SPI1_IRQHandler                          0x08008d1b   Thumb Code     0  startup_stm32f10x_md.o(.text)
    SPI2_IRQHandler                          0x08008d1b   Thumb Code     0  startup_stm32f10x_md.o(.text)
    TAMPER_IRQHandler                        0x08008d1b   Thumb Code     0  startup_stm32f10x_md.o(.text)
    TIM1_BRK_IRQHandler                      0x08008d1b   Thumb Code     0  startup_stm32f10x_md.o(.text)
    TIM1_CC_IRQHandler                       0x08008d1b   Thumb Code     0  startup_stm32f10x_md.o(.text)
    TIM1_TRG_COM_IRQHandler                  0x08008d1b   Thumb Code     0  startup_stm32f10x_md.o(.text)
    TIM1_UP_IRQHandler                       0x08008d1b   Thumb Code     0  startup_stm32f10x_md.o(.text)
    TIM3_IRQHandler                          0x08008d1b   Thumb Code     0  startup_stm32f10x_md.o(.text)
    TIM4_IRQHandler                          0x08008d1b   Thumb Code     0  startup_stm32f10x_md.o(.text)
    USART2_IRQHandler                        0x08008d1b   Thumb Code     0  startup_stm32f10x_md.o(.text)
    USART3_IRQHandler                        0x08008d1b   Thumb Code     0  startup_stm32f10x_md.o(.text)
    USB_HP_CAN1_TX_IRQHandler                0x08008d1b   Thumb Code     0  startup_stm32f10x_md.o(.text)
    WWDG_IRQHandler                          0x08008d1b   Thumb Code     0  startup_stm32f10x_md.o(.text)
    __user_initial_stackheap                 0x08008d1d   Thumb Code     0  startup_stm32f10x_md.o(.text)
    SystemInit                               0x08008de1   Thumb Code    64  system_stm32f10x.o(.text)
    SystemCoreClockUpdate                    0x08008e21   Thumb Code    84  system_stm32f10x.o(.text)
    __use_no_semihosting                     0x08008e95   Thumb Code     2  use_no_semi_2.o(.text)
    __2printf                                0x08008e99   Thumb Code    20  __2printf.o(.text)
    __2sprintf                               0x08008eb1   Thumb Code    38  __2sprintf.o(.text)
    _printf_pre_padding                      0x08008edd   Thumb Code    44  _printf_pad.o(.text)
    _printf_post_padding                     0x08008f09   Thumb Code    34  _printf_pad.o(.text)
    _printf_int_dec                          0x08008f2d   Thumb Code   104  _printf_dec.o(.text)
    _printf_int_hex                          0x08008fa5   Thumb Code    84  _printf_hex_int.o(.text)
    _printf_longlong_hex                     0x08008fa5   Thumb Code     0  _printf_hex_int.o(.text)
    __printf                                 0x08008ffd   Thumb Code   388  __printf_flags_ss_wp.o(.text)
    strstr                                   0x08009185   Thumb Code    36  strstr.o(.text)
    __aeabi_memcpy                           0x080091a9   Thumb Code     0  rt_memcpy_v6.o(.text)
    __rt_memcpy                              0x080091a9   Thumb Code   138  rt_memcpy_v6.o(.text)
    _memcpy_lastbytes                        0x0800920f   Thumb Code     0  rt_memcpy_v6.o(.text)
    __aeabi_memcpy4                          0x08009233   Thumb Code     0  rt_memcpy_w.o(.text)
    __aeabi_memcpy8                          0x08009233   Thumb Code     0  rt_memcpy_w.o(.text)
    __rt_memcpy_w                            0x08009233   Thumb Code   100  rt_memcpy_w.o(.text)
    _memcpy_lastbytes_aligned                0x0800927b   Thumb Code     0  rt_memcpy_w.o(.text)
    __aeabi_memclr                           0x08009297   Thumb Code     0  rt_memclr.o(.text)
    __rt_memclr                              0x08009297   Thumb Code    68  rt_memclr.o(.text)
    _memset                                  0x0800929b   Thumb Code     0  rt_memclr.o(.text)
    __aeabi_memclr4                          0x080092db   Thumb Code     0  rt_memclr_w.o(.text)
    __aeabi_memclr8                          0x080092db   Thumb Code     0  rt_memclr_w.o(.text)
    __rt_memclr_w                            0x080092db   Thumb Code    78  rt_memclr_w.o(.text)
    _memset_w                                0x080092df   Thumb Code     0  rt_memclr_w.o(.text)
    __use_two_region_memory                  0x08009329   Thumb Code     2  heapauxi.o(.text)
    __rt_heap_escrow$2region                 0x0800932b   Thumb Code     2  heapauxi.o(.text)
    __rt_heap_expand$2region                 0x0800932d   Thumb Code     2  heapauxi.o(.text)
    __I$use$semihosting                      0x0800932f   Thumb Code     0  use_no_semi.o(.text)
    __use_no_semihosting_swi                 0x0800932f   Thumb Code     2  use_no_semi.o(.text)
    __read_errno                             0x08009331   Thumb Code    10  _rserrno.o(.text)
    __set_errno                              0x0800933b   Thumb Code    12  _rserrno.o(.text)
    _printf_int_common                       0x08009347   Thumb Code   178  _printf_intcommon.o(.text)
    __lib_sel_fp_printf                      0x080093f9   Thumb Code     2  _printf_fp_dec.o(.text)
    _printf_fp_dec_real                      0x080095ab   Thumb Code   620  _printf_fp_dec.o(.text)
    _printf_char_common                      0x08009823   Thumb Code    32  _printf_char_common.o(.text)
    _sputc                                   0x08009849   Thumb Code    10  _sputc.o(.text)
    _printf_char_file                        0x08009855   Thumb Code    32  _printf_char_file.o(.text)
    __rt_locale                              0x08009879   Thumb Code     8  rt_locale_intlibspace.o(.text)
    __aeabi_errno_addr                       0x08009881   Thumb Code     8  rt_errno_addr_intlibspace.o(.text)
    __errno$intlibspace                      0x08009881   Thumb Code     0  rt_errno_addr_intlibspace.o(.text)
    __rt_errno_addr$intlibspace              0x08009881   Thumb Code     0  rt_errno_addr_intlibspace.o(.text)
    _ll_udiv10                               0x08009889   Thumb Code   138  lludiv10.o(.text)
    _printf_fp_infnan                        0x08009915   Thumb Code   112  _printf_fp_infnan.o(.text)
    _btod_etento                             0x08009995   Thumb Code   224  bigflt0.o(.text)
    ferror                                   0x08009a79   Thumb Code     8  ferror.o(.text)
    __user_libspace                          0x08009a81   Thumb Code     8  libspace.o(.text)
    __user_perproc_libspace                  0x08009a81   Thumb Code     0  libspace.o(.text)
    __user_perthread_libspace                0x08009a81   Thumb Code     0  libspace.o(.text)
    __user_setup_stackheap                   0x08009a89   Thumb Code    74  sys_stackheap_outer.o(.text)
    exit                                     0x08009ad3   Thumb Code    18  exit.o(.text)
    strcmp                                   0x08009ae5   Thumb Code   128  strcmpv7m.o(.text)
    _btod_d2e                                0x08009b65   Thumb Code    62  btod.o(CL$$btod_d2e)
    _d2e_denorm_low                          0x08009ba3   Thumb Code    70  btod.o(CL$$btod_d2e_denorm_low)
    _d2e_norm_op1                            0x08009be9   Thumb Code    96  btod.o(CL$$btod_d2e_norm_op1)
    __btod_div_common                        0x08009c49   Thumb Code   696  btod.o(CL$$btod_div_common)
    _e2e                                     0x08009f81   Thumb Code   220  btod.o(CL$$btod_e2e)
    _btod_ediv                               0x0800a05d   Thumb Code    42  btod.o(CL$$btod_ediv)
    _btod_emul                               0x0800a087   Thumb Code    42  btod.o(CL$$btod_emul)
    __btod_mult_common                       0x0800a0b1   Thumb Code   580  btod.o(CL$$btod_mult_common)
    __ARM_fpclassify                         0x0800a2f5   Thumb Code    40  fpclassify.o(i.__ARM_fpclassify)
    _is_digit                                0x0800a31d   Thumb Code    14  __printf_wp.o(i._is_digit)
    ceil                                     0x0800a32d   Thumb Code   204  ceil.o(i.ceil)
    sqrt                                     0x0800a409   Thumb Code    76  sqrt.o(i.sqrt)
    _get_lc_numeric                          0x0800a455   Thumb Code    44  lc_numeric_c.o(locale$$code)
    __aeabi_d2f                              0x0800a481   Thumb Code     0  d2f.o(x$fpl$d2f)
    _d2f                                     0x0800a481   Thumb Code    98  d2f.o(x$fpl$d2f)
    __aeabi_dadd                             0x0800a4e5   Thumb Code     0  daddsub_clz.o(x$fpl$dadd)
    _dadd                                    0x0800a4e5   Thumb Code   332  daddsub_clz.o(x$fpl$dadd)
    __fpl_dcheck_NaN1                        0x0800a635   Thumb Code    10  dcheck1.o(x$fpl$dcheck1)
    __fpl_dcmp_Inf                           0x0800a645   Thumb Code    24  dcmpi.o(x$fpl$dcmpinf)
    __aeabi_ddiv                             0x0800a65d   Thumb Code     0  ddiv.o(x$fpl$ddiv)
    _ddiv                                    0x0800a65d   Thumb Code   552  ddiv.o(x$fpl$ddiv)
    __aeabi_d2iz                             0x0800a90d   Thumb Code     0  dfix.o(x$fpl$dfix)
    _dfix                                    0x0800a90d   Thumb Code    94  dfix.o(x$fpl$dfix)
    __aeabi_i2d                              0x0800a96b   Thumb Code     0  dflt_clz.o(x$fpl$dflt)
    _dflt                                    0x0800a96b   Thumb Code    46  dflt_clz.o(x$fpl$dflt)
    __aeabi_l2d                              0x0800a999   Thumb Code     0  dfltll_clz.o(x$fpl$dfltll)
    _ll_sto_d                                0x0800a999   Thumb Code   162  dfltll_clz.o(x$fpl$dfltll)
    __aeabi_ui2d                             0x0800aa3b   Thumb Code     0  dflt_clz.o(x$fpl$dfltu)
    _dfltu                                   0x0800aa3b   Thumb Code    38  dflt_clz.o(x$fpl$dfltu)
    __aeabi_cdcmple                          0x0800aa61   Thumb Code     0  dleqf.o(x$fpl$dleqf)
    _dcmple                                  0x0800aa61   Thumb Code   120  dleqf.o(x$fpl$dleqf)
    __fpl_dcmple_InfNaN                      0x0800aac3   Thumb Code     0  dleqf.o(x$fpl$dleqf)
    __aeabi_dmul                             0x0800aad9   Thumb Code     0  dmul.o(x$fpl$dmul)
    _dmul                                    0x0800aad9   Thumb Code   332  dmul.o(x$fpl$dmul)
    __fpl_dnaninf                            0x0800ac2d   Thumb Code   156  dnaninf.o(x$fpl$dnaninf)
    __fpl_dretinf                            0x0800acc9   Thumb Code    12  dretinf.o(x$fpl$dretinf)
    __aeabi_cdrcmple                         0x0800acd5   Thumb Code     0  drleqf.o(x$fpl$drleqf)
    _drcmple                                 0x0800acd5   Thumb Code   108  drleqf.o(x$fpl$drleqf)
    __aeabi_drsub                            0x0800ad41   Thumb Code     0  daddsub_clz.o(x$fpl$drsb)
    _drsb                                    0x0800ad41   Thumb Code    22  daddsub_clz.o(x$fpl$drsb)
    _dsqrt                                   0x0800ad59   Thumb Code   456  dsqrt_noumaal.o(x$fpl$dsqrt)
    __aeabi_dsub                             0x0800af25   Thumb Code     0  daddsub_clz.o(x$fpl$dsub)
    _dsub                                    0x0800af25   Thumb Code   464  daddsub_clz.o(x$fpl$dsub)
    __aeabi_f2d                              0x0800b0f9   Thumb Code     0  f2d.o(x$fpl$f2d)
    _f2d                                     0x0800b0f9   Thumb Code    86  f2d.o(x$fpl$f2d)
    __aeabi_fadd                             0x0800b151   Thumb Code     0  faddsub_clz.o(x$fpl$fadd)
    _fadd                                    0x0800b151   Thumb Code   196  faddsub_clz.o(x$fpl$fadd)
    __fpl_fcheck_NaN1                        0x0800b215   Thumb Code     6  fcheck1.o(x$fpl$fcheck1)
    __aeabi_fdiv                             0x0800b221   Thumb Code     0  fdiv.o(x$fpl$fdiv)
    _fdiv                                    0x0800b221   Thumb Code   384  fdiv.o(x$fpl$fdiv)
    __aeabi_i2f                              0x0800b3a5   Thumb Code     0  fflt_clz.o(x$fpl$fflt)
    _fflt                                    0x0800b3a5   Thumb Code    48  fflt_clz.o(x$fpl$fflt)
    __aeabi_fmul                             0x0800b3d5   Thumb Code     0  fmul.o(x$fpl$fmul)
    _fmul                                    0x0800b3d5   Thumb Code   258  fmul.o(x$fpl$fmul)
    __fpl_fnaninf                            0x0800b4d7   Thumb Code   140  fnaninf.o(x$fpl$fnaninf)
    __fpl_fretinf                            0x0800b563   Thumb Code    10  fretinf.o(x$fpl$fretinf)
    __aeabi_fsub                             0x0800b56d   Thumb Code     0  faddsub_clz.o(x$fpl$fsub)
    _fsub                                    0x0800b56d   Thumb Code   234  faddsub_clz.o(x$fpl$fsub)
    __aeabi_d2ulz                            0x0800b659   Thumb Code     0  dfixull.o(x$fpl$llufromd)
    _ll_ufrom_d                              0x0800b659   Thumb Code   120  dfixull.o(x$fpl$llufromd)
    _printf_fp_dec                           0x0800b6d1   Thumb Code     4  printf1.o(x$fpl$printf1)
    __fpl_return_NaN                         0x0800b6d5   Thumb Code   100  retnan.o(x$fpl$retnan)
    __ARM_scalbn                             0x0800b739   Thumb Code    92  scalbn.o(x$fpl$scalbn)
    __ARM_scalbnf                            0x0800b795   Thumb Code    76  scalbnf.o(x$fpl$scalbnf)
    __fpl_cmpreturn                          0x0800b7e1   Thumb Code    48  trapv.o(x$fpl$trapveneer)
    __I$use$fp                               0x0800b810   Number         0  usenofp.o(x$fpl$usenofp)
    txSpectrumConfig                         0x0800b810   Data          96  instance_calib.o(.constdata)
    rfDelays                                 0x0800b870   Data           4  instance_calib.o(.constdata)
    rfDelaysTREK                             0x0800b874   Data           4  instance_calib.o(.constdata)
    chan_idx                                 0x0800b878   Data           8  deca_params_init.o(.constdata)
    tx_config                                0x0800b880   Data          24  deca_params_init.o(.constdata)
    pll2_config                              0x0800b898   Data          30  deca_params_init.o(.constdata)
    pll2calcfg                               0x0800b8b6   Data           1  deca_params_init.o(.constdata)
    rx_config                                0x0800b8b7   Data           2  deca_params_init.o(.constdata)
    agc_config                               0x0800b8bc   Data           8  deca_params_init.o(.constdata)
    dwnsSFDlen                               0x0800b8c4   Data           3  deca_params_init.o(.constdata)
    sftsh                                    0x0800b8c8   Data          12  deca_params_init.o(.constdata)
    dtune1                                   0x0800b8d4   Data           4  deca_params_init.o(.constdata)
    digital_bb_config                        0x0800b8d8   Data          32  deca_params_init.o(.constdata)
    lde_replicaCoeff                         0x0800b8f8   Data          50  deca_params_init.o(.constdata)
    chan_idxnb                               0x0800b92a   Data           8  deca_range_tables.o(.constdata)
    chan_idxwb                               0x0800b932   Data           8  deca_range_tables.o(.constdata)
    range25cm16PRFnb                         0x0800b93a   Data         148  deca_range_tables.o(.constdata)
    range25cm16PRFwb                         0x0800b9ce   Data         136  deca_range_tables.o(.constdata)
    range25cm64PRFnb                         0x0800ba56   Data         104  deca_range_tables.o(.constdata)
    range25cm64PRFwb                         0x0800babe   Data         118  deca_range_tables.o(.constdata)
    Virtual_Com_Port_DeviceDescriptor        0x0800bb34   Data          18  usb_desc.o(.constdata)
    Virtual_Com_Port_ConfigDescriptor        0x0800bb46   Data          67  usb_desc.o(.constdata)
    Virtual_Com_Port_StringLangID            0x0800bb89   Data           4  usb_desc.o(.constdata)
    Virtual_Com_Port_StringVendor            0x0800bb8d   Data          24  usb_desc.o(.constdata)
    Virtual_Com_Port_StringProduct           0x0800bba5   Data          38  usb_desc.o(.constdata)
    Region$$Table$$Base                      0x0800becc   Number         0  anon$$obj.o(Region$$Table)
    Region$$Table$$Limit                     0x0800beec   Number         0  anon$$obj.o(Region$$Table)
    s1switch                                 0x20000000   Data           1  main.o(.data)
    temp_switch                              0x20000001   Data           1  main.o(.data)
    instance_anchaddr                        0x20000004   Data           4  main.o(.data)
    dr_mode                                  0x20000008   Data           4  main.o(.data)
    instance_mode                            0x2000000c   Data           4  main.o(.data)
    pauseTWRReports                          0x20000010   Data           4  main.o(.data)
    chan                                     0x20000014   Data           4  main.o(.data)
    chConfig                                 0x20000018   Data          40  main.o(.data)
    sfConfig                                 0x20000040   Data          40  main.o(.data)
    n                                        0x20000068   Data           1  atcmd.o(.data)
    status_idx                               0x2000006c   Data           4  deca_device.o(.data)
    buff_version                             0x20000070   Data          19  device_info.o(.data)
    timer2_sysrun                            0x20000083   Data           1  timer.o(.data)
    timer2_cfgrun                            0x20000084   Data           1  timer.o(.data)
    timer2_cfgcount                          0x20000085   Data           1  timer.o(.data)
    LED0                                     0x20000086   Data           1  timer.o(.data)
    ADCConvertedValue                        0x20000088   Data           6  adcs.o(.data)
    Dis_Ahg1                                 0x20000090   Data           4  myfile.o(.data)
    Dis_Ahg2                                 0x20000094   Data           4  myfile.o(.data)
    Dis_Ahg3                                 0x20000098   Data           4  myfile.o(.data)
    myPosition                               0x200000b4   Data           8  myfile.o(.data)
    Dis_Tag1                                 0x200000bc   Data           4  myfile.o(.data)
    Dis_Tag2                                 0x200000c0   Data           4  myfile.o(.data)
    Dis_Tag3                                 0x200000c4   Data           4  myfile.o(.data)
    len                                      0x200000cc   Data           1  usart.o(.data)
    USART_RX_STA                             0x200000ce   Data           2  usart.o(.data)
    __stdout                                 0x200000d0   Data           4  usart.o(.data)
    DMA1_MEM_LEN                             0x200000d4   Data           2  dma.o(.data)
    time32_incr                              0x200000d8   Data           4  stm32f10x_it.o(.data)
    EXTI_InitStructure                       0x200000dc   Data           8  hw_config.o(.data)
    Virtual_Com_Port_StringSerial            0x200000e4   Data          38  usb_desc.o(.data)
    bIntPackSOF                              0x20000114   Data           1  usb_istr.o(.data)
    wIstr                                    0x20000116   Data           2  usb_istr.o(.data)
    esof_counter                             0x20000118   Data           4  usb_istr.o(.data)
    wCNTR                                    0x2000011c   Data           4  usb_istr.o(.data)
    pEpInt_IN                                0x20000120   Data          28  usb_istr.o(.data)
    pEpInt_OUT                               0x2000013c   Data          28  usb_istr.o(.data)
    Request                                  0x20000158   Data           1  usb_prop.o(.data)
    linecoding                               0x2000015c   Data           8  usb_prop.o(.data)
    Device_Descriptor                        0x20000164   Data           8  usb_prop.o(.data)
    Config_Descriptor                        0x2000016c   Data           8  usb_prop.o(.data)
    Device_Property                          0x20000174   Data          48  usb_prop.o(.data)
    String_Descriptor                        0x200001a4   Data          32  usb_prop.o(.data)
    Device_Table                             0x200001c4   Data           2  usb_prop.o(.data)
    User_Standard_Requests                   0x200001c8   Data          36  usb_prop.o(.data)
    bDeviceState                             0x200001ec   Data           4  usb_pwr.o(.data)
    fSuspendEnabled                          0x200001f0   Data           1  usb_pwr.o(.data)
    ResumeS                                  0x200001f4   Data           2  usb_pwr.o(.data)
    remotewakeupon                           0x200001f8   Data           4  usb_pwr.o(.data)
    Data_Mul_MaxPacketSize                   0x200001fc   Data           1  usb_core.o(.data)
    StatusInfo                               0x200001fe   Data           2  usb_core.o(.data)
    EPindex                                  0x20000200   Data           1  usb_init.o(.data)
    pInformation                             0x20000204   Data           4  usb_init.o(.data)
    pProperty                                0x20000208   Data           4  usb_init.o(.data)
    pUser_Standard_Requests                  0x2000020c   Data           4  usb_init.o(.data)
    wInterrupt_Mask                          0x20000210   Data           2  usb_init.o(.data)
    SaveRState                               0x20000212   Data           2  usb_int.o(.data)
    SaveTState                               0x20000214   Data           2  usb_int.o(.data)
    SystemCoreClock                          0x2000022c   Data           4  system_stm32f10x.o(.data)
    AHBPrescTable                            0x20000230   Data          16  system_stm32f10x.o(.data)
    SendBuff                                 0x20000240   Data         130  atcmd.o(.bss)
    USB_RxBuff                               0x200002c2   Data          30  atcmd.o(.bss)
    inst_tdist                               0x200002e0   Data          24  instance_common.o(.bss)
    inst_idist                               0x200002f8   Data          32  instance_common.o(.bss)
    inst_idistraw                            0x20000318   Data          32  instance_common.o(.bss)
    instance_data                            0x20000338   Data        1768  instance_common.o(.bss)
    dw_event_g                               0x20000a20   Data         160  instance_common.o(.bss)
    last_status                              0x20000b50   Data          40  deca_device.o(.bss)
    CpuID                                    0x20000b78   Data          12  device_info.o(.bss)
    sys_para                                 0x20000b84   Data          22  device_info.o(.bss)
    FLAH_BUFF0                               0x20000b9a   Data          32  device_info.o(.bss)
    STMFLASH_BUF                             0x20000bba   Data        1024  stmflash.o(.bss)
    USART_RX_BUF                             0x20000fba   Data         200  usart.o(.bss)
    DMA_InitStructure                        0x20001084   Data          44  dma.o(.bss)
    EP                                       0x20001b50   Data          32  usb_pwr.o(.bss)
    Device_Info                              0x20001b70   Data          28  usb_init.o(.bss)
    __libspace_start                         0x20001b8c   Data          96  libspace.o(.bss)
    __temporary_stack_top$libspace           0x20001bec   Data           0  libspace.o(.bss)



==============================================================================

Memory Map of the image

  Image Entry point : 0x080000ed

  Load Region LR_IROM1 (Base: 0x08000000, Size: 0x0000c148, Max: 0x00010000, ABSOLUTE, COMPRESSED[0x0000c004])

    Execution Region ER_IROM1 (Exec base: 0x08000000, Load base: 0x08000000, Size: 0x0000bf08, Max: 0x00010000, ABSOLUTE)

    Exec Addr    Load Addr    Size         Type   Attr      Idx    E Section Name        Object

    0x08000000   0x08000000   0x000000ec   Data   RO         1930    RESET               startup_stm32f10x_md.o
    0x080000ec   0x080000ec   0x00000008   Code   RO         2040  * !!!main             c_w.l(__main.o)
    0x080000f4   0x080000f4   0x00000034   Code   RO         2359    !!!scatter          c_w.l(__scatter.o)
    0x08000128   0x08000128   0x0000005a   Code   RO         2357    !!dczerorl2         c_w.l(__dczerorl2.o)
    0x08000182   0x08000182   0x00000002   PAD
    0x08000184   0x08000184   0x0000001c   Code   RO         2361    !!handler_zi        c_w.l(__scatter_zi.o)
    0x080001a0   0x080001a0   0x00000000   Code   RO         2027    .ARM.Collect$$_printf_percent$$00000000  c_w.l(_printf_percent.o)
    0x080001a0   0x080001a0   0x00000006   Code   RO         2026    .ARM.Collect$$_printf_percent$$00000003  c_w.l(_printf_f.o)
    0x080001a6   0x080001a6   0x00000006   Code   RO         2025    .ARM.Collect$$_printf_percent$$00000009  c_w.l(_printf_d.o)
    0x080001ac   0x080001ac   0x00000006   Code   RO         2024    .ARM.Collect$$_printf_percent$$0000000C  c_w.l(_printf_x.o)
    0x080001b2   0x080001b2   0x00000004   Code   RO         2131    .ARM.Collect$$_printf_percent$$00000017  c_w.l(_printf_percent_end.o)
    0x080001b6   0x080001b6   0x00000002   Code   RO         2232    .ARM.Collect$$libinit$$00000000  c_w.l(libinit.o)
    0x080001b8   0x080001b8   0x00000000   Code   RO         2234    .ARM.Collect$$libinit$$00000002  c_w.l(libinit2.o)
    0x080001b8   0x080001b8   0x00000000   Code   RO         2236    .ARM.Collect$$libinit$$00000004  c_w.l(libinit2.o)
    0x080001b8   0x080001b8   0x00000000   Code   RO         2239    .ARM.Collect$$libinit$$0000000A  c_w.l(libinit2.o)
    0x080001b8   0x080001b8   0x00000000   Code   RO         2241    .ARM.Collect$$libinit$$0000000C  c_w.l(libinit2.o)
    0x080001b8   0x080001b8   0x00000000   Code   RO         2243    .ARM.Collect$$libinit$$0000000E  c_w.l(libinit2.o)
    0x080001b8   0x080001b8   0x00000006   Code   RO         2244    .ARM.Collect$$libinit$$0000000F  c_w.l(libinit2.o)
    0x080001be   0x080001be   0x00000000   Code   RO         2246    .ARM.Collect$$libinit$$00000011  c_w.l(libinit2.o)
    0x080001be   0x080001be   0x00000000   Code   RO         2248    .ARM.Collect$$libinit$$00000013  c_w.l(libinit2.o)
    0x080001be   0x080001be   0x00000000   Code   RO         2250    .ARM.Collect$$libinit$$00000015  c_w.l(libinit2.o)
    0x080001be   0x080001be   0x0000000a   Code   RO         2251    .ARM.Collect$$libinit$$00000016  c_w.l(libinit2.o)
    0x080001c8   0x080001c8   0x00000000   Code   RO         2252    .ARM.Collect$$libinit$$00000017  c_w.l(libinit2.o)
    0x080001c8   0x080001c8   0x00000000   Code   RO         2254    .ARM.Collect$$libinit$$00000019  c_w.l(libinit2.o)
    0x080001c8   0x080001c8   0x00000000   Code   RO         2256    .ARM.Collect$$libinit$$0000001B  c_w.l(libinit2.o)
    0x080001c8   0x080001c8   0x00000000   Code   RO         2258    .ARM.Collect$$libinit$$0000001D  c_w.l(libinit2.o)
    0x080001c8   0x080001c8   0x00000000   Code   RO         2260    .ARM.Collect$$libinit$$0000001F  c_w.l(libinit2.o)
    0x080001c8   0x080001c8   0x00000000   Code   RO         2262    .ARM.Collect$$libinit$$00000021  c_w.l(libinit2.o)
    0x080001c8   0x080001c8   0x00000000   Code   RO         2264    .ARM.Collect$$libinit$$00000023  c_w.l(libinit2.o)
    0x080001c8   0x080001c8   0x00000000   Code   RO         2266    .ARM.Collect$$libinit$$00000025  c_w.l(libinit2.o)
    0x080001c8   0x080001c8   0x00000000   Code   RO         2270    .ARM.Collect$$libinit$$0000002C  c_w.l(libinit2.o)
    0x080001c8   0x080001c8   0x00000000   Code   RO         2272    .ARM.Collect$$libinit$$0000002E  c_w.l(libinit2.o)
    0x080001c8   0x080001c8   0x00000000   Code   RO         2274    .ARM.Collect$$libinit$$00000030  c_w.l(libinit2.o)
    0x080001c8   0x080001c8   0x00000000   Code   RO         2276    .ARM.Collect$$libinit$$00000032  c_w.l(libinit2.o)
    0x080001c8   0x080001c8   0x00000002   Code   RO         2277    .ARM.Collect$$libinit$$00000033  c_w.l(libinit2.o)
    0x080001ca   0x080001ca   0x00000002   Code   RO         2307    .ARM.Collect$$libshutdown$$00000000  c_w.l(libshutdown.o)
    0x080001cc   0x080001cc   0x00000000   Code   RO         2316    .ARM.Collect$$libshutdown$$00000002  c_w.l(libshutdown2.o)
    0x080001cc   0x080001cc   0x00000000   Code   RO         2318    .ARM.Collect$$libshutdown$$00000004  c_w.l(libshutdown2.o)
    0x080001cc   0x080001cc   0x00000000   Code   RO         2321    .ARM.Collect$$libshutdown$$00000007  c_w.l(libshutdown2.o)
    0x080001cc   0x080001cc   0x00000000   Code   RO         2324    .ARM.Collect$$libshutdown$$0000000A  c_w.l(libshutdown2.o)
    0x080001cc   0x080001cc   0x00000000   Code   RO         2326    .ARM.Collect$$libshutdown$$0000000C  c_w.l(libshutdown2.o)
    0x080001cc   0x080001cc   0x00000000   Code   RO         2329    .ARM.Collect$$libshutdown$$0000000F  c_w.l(libshutdown2.o)
    0x080001cc   0x080001cc   0x00000002   Code   RO         2330    .ARM.Collect$$libshutdown$$00000010  c_w.l(libshutdown2.o)
    0x080001ce   0x080001ce   0x00000000   Code   RO         2118    .ARM.Collect$$rtentry$$00000000  c_w.l(__rtentry.o)
    0x080001ce   0x080001ce   0x00000000   Code   RO         2150    .ARM.Collect$$rtentry$$00000002  c_w.l(__rtentry2.o)
    0x080001ce   0x080001ce   0x00000006   Code   RO         2162    .ARM.Collect$$rtentry$$00000004  c_w.l(__rtentry4.o)
    0x080001d4   0x080001d4   0x00000000   Code   RO         2152    .ARM.Collect$$rtentry$$00000009  c_w.l(__rtentry2.o)
    0x080001d4   0x080001d4   0x00000004   Code   RO         2153    .ARM.Collect$$rtentry$$0000000A  c_w.l(__rtentry2.o)
    0x080001d8   0x080001d8   0x00000000   Code   RO         2155    .ARM.Collect$$rtentry$$0000000C  c_w.l(__rtentry2.o)
    0x080001d8   0x080001d8   0x00000008   Code   RO         2156    .ARM.Collect$$rtentry$$0000000D  c_w.l(__rtentry2.o)
    0x080001e0   0x080001e0   0x00000002   Code   RO         2280    .ARM.Collect$$rtexit$$00000000  c_w.l(rtexit.o)
    0x080001e2   0x080001e2   0x00000000   Code   RO         2287    .ARM.Collect$$rtexit$$00000002  c_w.l(rtexit2.o)
    0x080001e2   0x080001e2   0x00000004   Code   RO         2288    .ARM.Collect$$rtexit$$00000003  c_w.l(rtexit2.o)
    0x080001e6   0x080001e6   0x00000006   Code   RO         2289    .ARM.Collect$$rtexit$$00000004  c_w.l(rtexit2.o)
    0x080001ec   0x080001ec   0x00000468   Code   RO            4    .text               main.o
    0x08000654   0x08000654   0x000005e0   Code   RO          252    .text               atcmd.o
    0x08000c34   0x08000c34   0x00000c08   Code   RO          289    .text               instance.o
    0x0800183c   0x0800183c   0x00000040   Code   RO          334    .text               instance_calib.o
    0x0800187c   0x0800187c   0x00001188   Code   RO          368    .text               instance_common.o
    0x08002a04   0x08002a04   0x00001820   Code   RO          400    .text               deca_device.o
    0x08004224   0x08004224   0x000000d8   Code   RO          474    .text               deca_range_tables.o
    0x080042fc   0x080042fc   0x00000034   Code   RO          505    .text               deca_mutex.o
    0x08004330   0x08004330   0x000000e0   Code   RO          529    .text               deca_spi.o
    0x08004410   0x08004410   0x0000015c   Code   RO          553    .text               device_info.o
    0x0800456c   0x0800456c   0x0000011c   Code   RO          585    .text               led.o
    0x08004688   0x08004688   0x0000038c   Code   RO          609    .text               port.o
    0x08004a14   0x08004a14   0x000000cc   Code   RO          638    .text               timer.o
    0x08004ae0   0x08004ae0   0x00000118   Code   RO          699    .text               stmflash.o
    0x08004bf8   0x08004bf8   0x000000c0   Code   RO          847    .text               rtc.o
    0x08004cb8   0x08004cb8   0x00000150   Code   RO          896    .text               myfile.o
    0x08004e08   0x08004e08   0x000000ac   Code   RO          936    .text               delay.o
    0x08004eb4   0x08004eb4   0x00000154   Code   RO          990    .text               usart.o
    0x08005008   0x08005008   0x00000078   Code   RO         1052    .text               dma.o
    0x08005080   0x08005080   0x000003d6   Code   RO         1077    .text               queue.o
    0x08005456   0x08005456   0x00000002   PAD
    0x08005458   0x08005458   0x00000060   Code   RO         1098    .text               stm32f10x_it.o
    0x080054b8   0x080054b8   0x0000019c   Code   RO         1154    .text               hw_config.o
    0x08005654   0x08005654   0x000000b4   Code   RO         1258    .text               usb_endp.o
    0x08005708   0x08005708   0x00000150   Code   RO         1288    .text               usb_istr.o
    0x08005858   0x08005858   0x0000000c   Code   RO         1320    .text               usb_it.o
    0x08005864   0x08005864   0x000001f4   Code   RO         1344    .text               usb_prop.o
    0x08005a58   0x08005a58   0x000001b0   Code   RO         1381    .text               usb_pwr.o
    0x08005c08   0x08005c08   0x000007c8   Code   RO         1415    .text               usb_core.o
    0x080063d0   0x080063d0   0x00000028   Code   RO         1443    .text               usb_init.o
    0x080063f8   0x080063f8   0x000001c4   Code   RO         1481    .text               usb_int.o
    0x080065bc   0x080065bc   0x00000048   Code   RO         1517    .text               usb_mem.o
    0x08006604   0x08006604   0x000006b0   Code   RO         1541    .text               usb_regs.o
    0x08006cb4   0x08006cb4   0x0000006c   Code   RO         1566    .text               usb_sil.o
    0x08006d20   0x08006d20   0x000000b0   Code   RO         1590    .text               misc.o
    0x08006dd0   0x08006dd0   0x00000098   Code   RO         1638    .text               stm32f10x_bkp.o
    0x08006e68   0x08006e68   0x000001c8   Code   RO         1662    .text               stm32f10x_dma.o
    0x08007030   0x08007030   0x000000e8   Code   RO         1686    .text               stm32f10x_exti.o
    0x08007118   0x08007118   0x0000047c   Code   RO         1710    .text               stm32f10x_flash.o
    0x08007594   0x08007594   0x0000026c   Code   RO         1735    .text               stm32f10x_gpio.o
    0x08007800   0x08007800   0x000000ac   Code   RO         1783    .text               stm32f10x_pwr.o
    0x080078ac   0x080078ac   0x000002b4   Code   RO         1807    .text               stm32f10x_rcc.o
    0x08007b60   0x08007b60   0x00000110   Code   RO         1833    .text               stm32f10x_rtc.o
    0x08007c70   0x08007c70   0x00000274   Code   RO         1858    .text               stm32f10x_spi.o
    0x08007ee4   0x08007ee4   0x00000af4   Code   RO         1882    .text               stm32f10x_tim.o
    0x080089d8   0x080089d8   0x00000328   Code   RO         1907    .text               stm32f10x_usart.o
    0x08008d00   0x08008d00   0x00000040   Code   RO         1931    .text               startup_stm32f10x_md.o
    0x08008d40   0x08008d40   0x00000154   Code   RO         1938    .text               system_stm32f10x.o
    0x08008e94   0x08008e94   0x00000002   Code   RO         1967    .text               c_w.l(use_no_semi_2.o)
    0x08008e96   0x08008e96   0x00000002   PAD
    0x08008e98   0x08008e98   0x00000018   Code   RO         1969    .text               c_w.l(__2printf.o)
    0x08008eb0   0x08008eb0   0x0000002c   Code   RO         1971    .text               c_w.l(__2sprintf.o)
    0x08008edc   0x08008edc   0x0000004e   Code   RO         1979    .text               c_w.l(_printf_pad.o)
    0x08008f2a   0x08008f2a   0x00000002   PAD
    0x08008f2c   0x08008f2c   0x00000078   Code   RO         1981    .text               c_w.l(_printf_dec.o)
    0x08008fa4   0x08008fa4   0x00000058   Code   RO         1986    .text               c_w.l(_printf_hex_int.o)
    0x08008ffc   0x08008ffc   0x00000188   Code   RO         2021    .text               c_w.l(__printf_flags_ss_wp.o)
    0x08009184   0x08009184   0x00000024   Code   RO         2028    .text               c_w.l(strstr.o)
    0x080091a8   0x080091a8   0x0000008a   Code   RO         2030    .text               c_w.l(rt_memcpy_v6.o)
    0x08009232   0x08009232   0x00000064   Code   RO         2032    .text               c_w.l(rt_memcpy_w.o)
    0x08009296   0x08009296   0x00000044   Code   RO         2034    .text               c_w.l(rt_memclr.o)
    0x080092da   0x080092da   0x0000004e   Code   RO         2036    .text               c_w.l(rt_memclr_w.o)
    0x08009328   0x08009328   0x00000006   Code   RO         2038    .text               c_w.l(heapauxi.o)
    0x0800932e   0x0800932e   0x00000002   Code   RO         2116    .text               c_w.l(use_no_semi.o)
    0x08009330   0x08009330   0x00000016   Code   RO         2119    .text               c_w.l(_rserrno.o)
    0x08009346   0x08009346   0x000000b2   Code   RO         2121    .text               c_w.l(_printf_intcommon.o)
    0x080093f8   0x080093f8   0x0000041e   Code   RO         2123    .text               c_w.l(_printf_fp_dec.o)
    0x08009816   0x08009816   0x00000002   PAD
    0x08009818   0x08009818   0x00000030   Code   RO         2125    .text               c_w.l(_printf_char_common.o)
    0x08009848   0x08009848   0x0000000a   Code   RO         2127    .text               c_w.l(_sputc.o)
    0x08009852   0x08009852   0x00000002   PAD
    0x08009854   0x08009854   0x00000024   Code   RO         2129    .text               c_w.l(_printf_char_file.o)
    0x08009878   0x08009878   0x00000008   Code   RO         2167    .text               c_w.l(rt_locale_intlibspace.o)
    0x08009880   0x08009880   0x00000008   Code   RO         2172    .text               c_w.l(rt_errno_addr_intlibspace.o)
    0x08009888   0x08009888   0x0000008a   Code   RO         2174    .text               c_w.l(lludiv10.o)
    0x08009912   0x08009912   0x00000002   PAD
    0x08009914   0x08009914   0x00000080   Code   RO         2176    .text               c_w.l(_printf_fp_infnan.o)
    0x08009994   0x08009994   0x000000e4   Code   RO         2180    .text               c_w.l(bigflt0.o)
    0x08009a78   0x08009a78   0x00000008   Code   RO         2205    .text               c_w.l(ferror.o)
    0x08009a80   0x08009a80   0x00000008   Code   RO         2218    .text               c_w.l(libspace.o)
    0x08009a88   0x08009a88   0x0000004a   Code   RO         2221    .text               c_w.l(sys_stackheap_outer.o)
    0x08009ad2   0x08009ad2   0x00000012   Code   RO         2223    .text               c_w.l(exit.o)
    0x08009ae4   0x08009ae4   0x00000080   Code   RO         2225    .text               c_w.l(strcmpv7m.o)
    0x08009b64   0x08009b64   0x0000003e   Code   RO         2183    CL$$btod_d2e        c_w.l(btod.o)
    0x08009ba2   0x08009ba2   0x00000046   Code   RO         2185    CL$$btod_d2e_denorm_low  c_w.l(btod.o)
    0x08009be8   0x08009be8   0x00000060   Code   RO         2184    CL$$btod_d2e_norm_op1  c_w.l(btod.o)
    0x08009c48   0x08009c48   0x00000338   Code   RO         2193    CL$$btod_div_common  c_w.l(btod.o)
    0x08009f80   0x08009f80   0x000000dc   Code   RO         2190    CL$$btod_e2e        c_w.l(btod.o)
    0x0800a05c   0x0800a05c   0x0000002a   Code   RO         2187    CL$$btod_ediv       c_w.l(btod.o)
    0x0800a086   0x0800a086   0x0000002a   Code   RO         2186    CL$$btod_emul       c_w.l(btod.o)
    0x0800a0b0   0x0800a0b0   0x00000244   Code   RO         2192    CL$$btod_mult_common  c_w.l(btod.o)
    0x0800a2f4   0x0800a2f4   0x00000028   Code   RO         2216    i.__ARM_fpclassify  m_ws.l(fpclassify.o)
    0x0800a31c   0x0800a31c   0x0000000e   Code   RO         2014    i._is_digit         c_w.l(__printf_wp.o)
    0x0800a32a   0x0800a32a   0x00000002   PAD
    0x0800a32c   0x0800a32c   0x000000dc   Code   RO         2105    i.ceil              m_ws.l(ceil.o)
    0x0800a408   0x0800a408   0x0000004c   Code   RO         2109    i.sqrt              m_ws.l(sqrt.o)
    0x0800a454   0x0800a454   0x0000002c   Code   RO         2210    locale$$code        c_w.l(lc_numeric_c.o)
    0x0800a480   0x0800a480   0x00000062   Code   RO         2042    x$fpl$d2f           fz_ws.l(d2f.o)
    0x0800a4e2   0x0800a4e2   0x00000002   PAD
    0x0800a4e4   0x0800a4e4   0x00000150   Code   RO         2044    x$fpl$dadd          fz_ws.l(daddsub_clz.o)
    0x0800a634   0x0800a634   0x00000010   Code   RO         2132    x$fpl$dcheck1       fz_ws.l(dcheck1.o)
    0x0800a644   0x0800a644   0x00000018   Code   RO         2134    x$fpl$dcmpinf       fz_ws.l(dcmpi.o)
    0x0800a65c   0x0800a65c   0x000002b0   Code   RO         2051    x$fpl$ddiv          fz_ws.l(ddiv.o)
    0x0800a90c   0x0800a90c   0x0000005e   Code   RO         2054    x$fpl$dfix          fz_ws.l(dfix.o)
    0x0800a96a   0x0800a96a   0x0000002e   Code   RO         2063    x$fpl$dflt          fz_ws.l(dflt_clz.o)
    0x0800a998   0x0800a998   0x000000a2   Code   RO         2068    x$fpl$dfltll        fz_ws.l(dfltll_clz.o)
    0x0800aa3a   0x0800aa3a   0x00000026   Code   RO         2062    x$fpl$dfltu         fz_ws.l(dflt_clz.o)
    0x0800aa60   0x0800aa60   0x00000078   Code   RO         2072    x$fpl$dleqf         fz_ws.l(dleqf.o)
    0x0800aad8   0x0800aad8   0x00000154   Code   RO         2074    x$fpl$dmul          fz_ws.l(dmul.o)
    0x0800ac2c   0x0800ac2c   0x0000009c   Code   RO         2136    x$fpl$dnaninf       fz_ws.l(dnaninf.o)
    0x0800acc8   0x0800acc8   0x0000000c   Code   RO         2138    x$fpl$dretinf       fz_ws.l(dretinf.o)
    0x0800acd4   0x0800acd4   0x0000006c   Code   RO         2076    x$fpl$drleqf        fz_ws.l(drleqf.o)
    0x0800ad40   0x0800ad40   0x00000016   Code   RO         2045    x$fpl$drsb          fz_ws.l(daddsub_clz.o)
    0x0800ad56   0x0800ad56   0x00000002   PAD
    0x0800ad58   0x0800ad58   0x000001cc   Code   RO         2140    x$fpl$dsqrt         fz_ws.l(dsqrt_noumaal.o)
    0x0800af24   0x0800af24   0x000001d4   Code   RO         2046    x$fpl$dsub          fz_ws.l(daddsub_clz.o)
    0x0800b0f8   0x0800b0f8   0x00000056   Code   RO         2078    x$fpl$f2d           fz_ws.l(f2d.o)
    0x0800b14e   0x0800b14e   0x00000002   PAD
    0x0800b150   0x0800b150   0x000000c4   Code   RO         2080    x$fpl$fadd          fz_ws.l(faddsub_clz.o)
    0x0800b214   0x0800b214   0x0000000c   Code   RO         2142    x$fpl$fcheck1       fz_ws.l(fcheck1.o)
    0x0800b220   0x0800b220   0x00000184   Code   RO         2087    x$fpl$fdiv          fz_ws.l(fdiv.o)
    0x0800b3a4   0x0800b3a4   0x00000030   Code   RO         2091    x$fpl$fflt          fz_ws.l(fflt_clz.o)
    0x0800b3d4   0x0800b3d4   0x00000102   Code   RO         2096    x$fpl$fmul          fz_ws.l(fmul.o)
    0x0800b4d6   0x0800b4d6   0x0000008c   Code   RO         2144    x$fpl$fnaninf       fz_ws.l(fnaninf.o)
    0x0800b562   0x0800b562   0x0000000a   Code   RO         2146    x$fpl$fretinf       fz_ws.l(fretinf.o)
    0x0800b56c   0x0800b56c   0x000000ea   Code   RO         2082    x$fpl$fsub          fz_ws.l(faddsub_clz.o)
    0x0800b656   0x0800b656   0x00000002   PAD
    0x0800b658   0x0800b658   0x00000078   Code   RO         2058    x$fpl$llufromd      fz_ws.l(dfixull.o)
    0x0800b6d0   0x0800b6d0   0x00000004   Code   RO         2098    x$fpl$printf1       fz_ws.l(printf1.o)
    0x0800b6d4   0x0800b6d4   0x00000064   Code   RO         2214    x$fpl$retnan        fz_ws.l(retnan.o)
    0x0800b738   0x0800b738   0x0000005c   Code   RO         2100    x$fpl$scalbn        fz_ws.l(scalbn.o)
    0x0800b794   0x0800b794   0x0000004c   Code   RO         2102    x$fpl$scalbnf       fz_ws.l(scalbnf.o)
    0x0800b7e0   0x0800b7e0   0x00000030   Code   RO         2278    x$fpl$trapveneer    fz_ws.l(trapv.o)
    0x0800b810   0x0800b810   0x00000000   Code   RO         2148    x$fpl$usenofp       fz_ws.l(usenofp.o)
    0x0800b810   0x0800b810   0x00000060   Data   RO          335    .constdata          instance_calib.o
    0x0800b870   0x0800b870   0x00000004   Data   RO          336    .constdata          instance_calib.o
    0x0800b874   0x0800b874   0x00000004   Data   RO          337    .constdata          instance_calib.o
    0x0800b878   0x0800b878   0x00000008   Data   RO          434    .constdata          deca_params_init.o
    0x0800b880   0x0800b880   0x00000018   Data   RO          435    .constdata          deca_params_init.o
    0x0800b898   0x0800b898   0x0000001e   Data   RO          436    .constdata          deca_params_init.o
    0x0800b8b6   0x0800b8b6   0x00000001   Data   RO          437    .constdata          deca_params_init.o
    0x0800b8b7   0x0800b8b7   0x00000002   Data   RO          438    .constdata          deca_params_init.o
    0x0800b8b9   0x0800b8b9   0x00000003   PAD
    0x0800b8bc   0x0800b8bc   0x00000008   Data   RO          439    .constdata          deca_params_init.o
    0x0800b8c4   0x0800b8c4   0x00000003   Data   RO          440    .constdata          deca_params_init.o
    0x0800b8c7   0x0800b8c7   0x00000001   PAD
    0x0800b8c8   0x0800b8c8   0x0000000c   Data   RO          441    .constdata          deca_params_init.o
    0x0800b8d4   0x0800b8d4   0x00000004   Data   RO          442    .constdata          deca_params_init.o
    0x0800b8d8   0x0800b8d8   0x00000020   Data   RO          443    .constdata          deca_params_init.o
    0x0800b8f8   0x0800b8f8   0x00000032   Data   RO          444    .constdata          deca_params_init.o
    0x0800b92a   0x0800b92a   0x0000020a   Data   RO          475    .constdata          deca_range_tables.o
    0x0800bb34   0x0800bb34   0x00000012   Data   RO         1229    .constdata          usb_desc.o
    0x0800bb46   0x0800bb46   0x00000043   Data   RO         1230    .constdata          usb_desc.o
    0x0800bb89   0x0800bb89   0x00000004   Data   RO         1231    .constdata          usb_desc.o
    0x0800bb8d   0x0800bb8d   0x00000018   Data   RO         1232    .constdata          usb_desc.o
    0x0800bba5   0x0800bba5   0x00000026   Data   RO         1233    .constdata          usb_desc.o
    0x0800bbcb   0x0800bbcb   0x00000028   Data   RO         1987    .constdata          c_w.l(_printf_hex_int.o)
    0x0800bbf3   0x0800bbf3   0x00000011   Data   RO         2022    .constdata          c_w.l(__printf_flags_ss_wp.o)
    0x0800bc04   0x0800bc04   0x00000094   Data   RO         2181    .constdata          c_w.l(bigflt0.o)
    0x0800bc98   0x0800bc98   0x00000165   Data   RO          254    .conststring        atcmd.o
    0x0800bdfd   0x0800bdfd   0x00000003   PAD
    0x0800be00   0x0800be00   0x0000007f   Data   RO          338    .conststring        instance_calib.o
    0x0800be7f   0x0800be7f   0x00000001   PAD
    0x0800be80   0x0800be80   0x0000004b   Data   RO          402    .conststring        deca_device.o
    0x0800becb   0x0800becb   0x00000001   PAD
    0x0800becc   0x0800becc   0x00000020   Data   RO         2355    Region$$Table       anon$$obj.o
    0x0800beec   0x0800beec   0x0000001c   Data   RO         2209    locale$$data        c_w.l(lc_numeric_c.o)


    Execution Region RW_IRAM1 (Exec base: 0x20000000, Load base: 0x0800bf08, Size: 0x000021f0, Max: 0x00005000, ABSOLUTE, COMPRESSED[0x000000fc])

    Exec Addr    Load Addr    Size         Type   Attr      Idx    E Section Name        Object

    0x20000000   COMPRESSED   0x00000068   Data   RW            6    .data               main.o
    0x20000068   COMPRESSED   0x00000001   Data   RW          255    .data               atcmd.o
    0x20000069   COMPRESSED   0x00000003   PAD
    0x2000006c   COMPRESSED   0x00000004   Data   RW          403    .data               deca_device.o
    0x20000070   COMPRESSED   0x00000013   Data   RW          555    .data               device_info.o
    0x20000083   COMPRESSED   0x00000004   Data   RW          639    .data               timer.o
    0x20000087   COMPRESSED   0x00000001   PAD
    0x20000088   COMPRESSED   0x00000006   Data   RW          669    .data               adcs.o
    0x2000008e   COMPRESSED   0x00000002   PAD
    0x20000090   COMPRESSED   0x00000004   Data   RW          897    .data               myfile.o
    0x20000094   COMPRESSED   0x00000004   Data   RW          898    .data               myfile.o
    0x20000098   COMPRESSED   0x00000004   Data   RW          899    .data               myfile.o
    0x2000009c   COMPRESSED   0x00000020   Data   RW          900    .data               myfile.o
    0x200000bc   COMPRESSED   0x00000004   Data   RW          901    .data               myfile.o
    0x200000c0   COMPRESSED   0x00000004   Data   RW          902    .data               myfile.o
    0x200000c4   COMPRESSED   0x00000004   Data   RW          903    .data               myfile.o
    0x200000c8   COMPRESSED   0x00000004   Data   RW          937    .data               delay.o
    0x200000cc   COMPRESSED   0x00000004   Data   RW          993    .data               usart.o
    0x200000d0   COMPRESSED   0x00000004   Data   RW          994    .data               usart.o
    0x200000d4   COMPRESSED   0x00000002   Data   RW         1054    .data               dma.o
    0x200000d6   COMPRESSED   0x00000002   PAD
    0x200000d8   COMPRESSED   0x00000004   Data   RW         1099    .data               stm32f10x_it.o
    0x200000dc   COMPRESSED   0x00000008   Data   RW         1158    .data               hw_config.o
    0x200000e4   COMPRESSED   0x00000026   Data   RW         1234    .data               usb_desc.o
    0x2000010a   COMPRESSED   0x00000002   PAD
    0x2000010c   COMPRESSED   0x00000008   Data   RW         1260    .data               usb_endp.o
    0x20000114   COMPRESSED   0x0000000c   Data   RW         1289    .data               usb_istr.o
    0x20000120   COMPRESSED   0x0000001c   Data   RW         1290    .data               usb_istr.o
    0x2000013c   COMPRESSED   0x0000001c   Data   RW         1291    .data               usb_istr.o
    0x20000158   COMPRESSED   0x0000006c   Data   RW         1345    .data               usb_prop.o
    0x200001c4   COMPRESSED   0x00000002   Data   RW         1346    .data               usb_prop.o
    0x200001c6   COMPRESSED   0x00000002   PAD
    0x200001c8   COMPRESSED   0x00000024   Data   RW         1347    .data               usb_prop.o
    0x200001ec   COMPRESSED   0x00000004   Data   RW         1383    .data               usb_pwr.o
    0x200001f0   COMPRESSED   0x00000001   Data   RW         1384    .data               usb_pwr.o
    0x200001f1   COMPRESSED   0x00000003   PAD
    0x200001f4   COMPRESSED   0x00000008   Data   RW         1385    .data               usb_pwr.o
    0x200001fc   COMPRESSED   0x00000004   Data   RW         1416    .data               usb_core.o
    0x20000200   COMPRESSED   0x00000001   Data   RW         1445    .data               usb_init.o
    0x20000201   COMPRESSED   0x00000003   PAD
    0x20000204   COMPRESSED   0x0000000c   Data   RW         1446    .data               usb_init.o
    0x20000210   COMPRESSED   0x00000002   Data   RW         1448    .data               usb_init.o
    0x20000212   COMPRESSED   0x00000004   Data   RW         1482    .data               usb_int.o
    0x20000216   COMPRESSED   0x00000014   Data   RW         1808    .data               stm32f10x_rcc.o
    0x2000022a   COMPRESSED   0x00000002   PAD
    0x2000022c   COMPRESSED   0x00000014   Data   RW         1939    .data               system_stm32f10x.o
    0x20000240        -       0x000000a0   Zero   RW          253    .bss                atcmd.o
    0x200002e0        -       0x000007e0   Zero   RW          369    .bss                instance_common.o
    0x20000ac0        -       0x000000b8   Zero   RW          401    .bss                deca_device.o
    0x20000b78        -       0x00000042   Zero   RW          554    .bss                device_info.o
    0x20000bba        -       0x00000400   Zero   RW          700    .bss                stmflash.o
    0x20000fba        -       0x000000c8   Zero   RW          991    .bss                usart.o
    0x20001082   COMPRESSED   0x00000002   PAD
    0x20001084        -       0x0000002c   Zero   RW         1053    .bss                dma.o
    0x200010b0        -       0x00000a20   Zero   RW         1155    .bss                hw_config.o
    0x20001ad0        -       0x00000080   Zero   RW         1259    .bss                usb_endp.o
    0x20001b50        -       0x00000020   Zero   RW         1382    .bss                usb_pwr.o
    0x20001b70        -       0x0000001c   Zero   RW         1444    .bss                usb_init.o
    0x20001b8c        -       0x00000060   Zero   RW         2219    .bss                c_w.l(libspace.o)
    0x20001bec   COMPRESSED   0x00000004   PAD
    0x20001bf0        -       0x00000200   Zero   RW         1929    HEAP                startup_stm32f10x_md.o
    0x20001df0        -       0x00000400   Zero   RW         1928    STACK               startup_stm32f10x_md.o


==============================================================================

Image component sizes


      Code (inc. data)   RO Data    RW Data    ZI Data      Debug   Object Name

         0          0          0          6          0        757   adcs.o
      1504        398        357          1        160      27860   atcmd.o
      6176        134         75          4        184      24860   deca_device.o
        52          0          0          0          0        863   deca_mutex.o
         0          0        174          0          0       1884   deca_params_init.o
       216         16        522          0          0       2223   deca_range_tables.o
       224         10          0          0          0       2076   deca_spi.o
       172         12          0          4          0       1289   delay.o
       348         40          0         19         66       3207   device_info.o
       120         14          0          2         44       1437   dma.o
       412         34          0          8       2592      17037   hw_config.o
      3080        104          0          0          0      17050   instance.o
        64          6        231          0          0       8044   instance_calib.o
      4488        114          0          0       2016      23108   instance_common.o
       284         26          0          0          0       1160   led.o
      1128        180          0        104          0     318401   main.o
       176         14          0          0          0       2025   misc.o
       336         14          0         56          0       2059   myfile.o
       908         26          0          0          0      28876   port.o
       982          0          0          0          0       9259   queue.o
       192          6          0          0          0       1349   rtc.o
        64         26        236          0       1536        824   startup_stm32f10x_md.o
       152          8          0          0          0       3668   stm32f10x_bkp.o
       456         10          0          0          0       4806   stm32f10x_dma.o
       232          8          0          0          0       2523   stm32f10x_exti.o
      1148         22          0          0          0       9428   stm32f10x_flash.o
       620         36          0          0          0       5985   stm32f10x_gpio.o
        96          4          0          4          0       2098   stm32f10x_it.o
       172         12          0          0          0       2039   stm32f10x_pwr.o
       692         32          0         20          0       9136   stm32f10x_rcc.o
       272          6          0          0          0       3368   stm32f10x_rtc.o
       628         14          0          0          0       7130   stm32f10x_spi.o
      2804         86          0          0          0      23110   stm32f10x_tim.o
       808         22          0          0          0       8904   stm32f10x_usart.o
       280          6          0          0       1024       2816   stmflash.o
       340         32          0         20          0       1875   system_stm32f10x.o
       204          4          0          4          0       1231   timer.o
       340         18          0          8        200       3808   usart.o
      1992         88          0          4          0       8373   usb_core.o
         0          0        151         38          0       1031   usb_desc.o
       180         12          0          8        128       1584   usb_endp.o
        40         18          0         15         28       3918   usb_init.o
       452         28          0          4          0       1787   usb_int.o
       336         26          0         68          0       1555   usb_istr.o
        12          0          0          0          0        546   usb_it.o
        72          6          0          0          0       1330   usb_mem.o
       500         22          0        146          0       7103   usb_prop.o
       432         36          0         13         32       2893   usb_pwr.o
      1712         28          0          0          0      11327   usb_regs.o
       108         10          0          0          0       1354   usb_sil.o

    ----------------------------------------------------------------------
     36008       1768       1787        576       8012     630374   Object Totals
         0          0         32          0          0          0   (incl. Generated)
         2          0          9         20          2          0   (incl. Padding)

    ----------------------------------------------------------------------

      Code (inc. data)   RO Data    RW Data    ZI Data      Debug   Library Member Name

        24          4          0          0          0         84   __2printf.o
        44          6          0          0          0         84   __2sprintf.o
        90          0          0          0          0          0   __dczerorl2.o
         8          0          0          0          0         68   __main.o
       392          4         17          0          0         92   __printf_flags_ss_wp.o
        14          0          0          0          0         68   __printf_wp.o
         0          0          0          0          0          0   __rtentry.o
        12          0          0          0          0          0   __rtentry2.o
         6          0          0          0          0          0   __rtentry4.o
        52          8          0          0          0          0   __scatter.o
        28          0          0          0          0          0   __scatter_zi.o
        48          6          0          0          0         96   _printf_char_common.o
        36          4          0          0          0         80   _printf_char_file.o
         6          0          0          0          0          0   _printf_d.o
       120         16          0          0          0         92   _printf_dec.o
         6          0          0          0          0          0   _printf_f.o
      1054          0          0          0          0        216   _printf_fp_dec.o
       128         16          0          0          0         84   _printf_fp_infnan.o
        88          4         40          0          0         88   _printf_hex_int.o
       178          0          0          0          0         88   _printf_intcommon.o
        78          0          0          0          0        108   _printf_pad.o
         0          0          0          0          0          0   _printf_percent.o
         4          0          0          0          0          0   _printf_percent_end.o
         6          0          0          0          0          0   _printf_x.o
        22          0          0          0          0        100   _rserrno.o
        10          0          0          0          0         68   _sputc.o
       228          4        148          0          0         96   bigflt0.o
      1936        128          0          0          0        672   btod.o
        18          0          0          0          0         80   exit.o
         8          0          0          0          0         68   ferror.o
         6          0          0          0          0        152   heapauxi.o
        44         10         28          0          0         76   lc_numeric_c.o
         2          0          0          0          0          0   libinit.o
        18          0          0          0          0          0   libinit2.o
         2          0          0          0          0          0   libshutdown.o
         2          0          0          0          0          0   libshutdown2.o
         8          4          0          0         96         68   libspace.o
       138          0          0          0          0         80   lludiv10.o
         8          4          0          0          0         68   rt_errno_addr_intlibspace.o
         8          4          0          0          0         68   rt_locale_intlibspace.o
        68          0          0          0          0         68   rt_memclr.o
        78          0          0          0          0         80   rt_memclr_w.o
       138          0          0          0          0         68   rt_memcpy_v6.o
       100          0          0          0          0         80   rt_memcpy_w.o
         2          0          0          0          0          0   rtexit.o
        10          0          0          0          0          0   rtexit2.o
       128          0          0          0          0         68   strcmpv7m.o
        36          0          0          0          0         80   strstr.o
        74          0          0          0          0         80   sys_stackheap_outer.o
         2          0          0          0          0         68   use_no_semi.o
         2          0          0          0          0         68   use_no_semi_2.o
        98          4          0          0          0         92   d2f.o
       826         16          0          0          0        348   daddsub_clz.o
        16          4          0          0          0         68   dcheck1.o
        24          0          0          0          0         68   dcmpi.o
       688        140          0          0          0        208   ddiv.o
        94          4          0          0          0         92   dfix.o
       120          4          0          0          0        104   dfixull.o
        84          0          0          0          0        136   dflt_clz.o
       162          0          0          0          0         84   dfltll_clz.o
       120          4          0          0          0         92   dleqf.o
       340         12          0          0          0        104   dmul.o
       156          4          0          0          0         92   dnaninf.o
        12          0          0          0          0         68   dretinf.o
       108          0          0          0          0         80   drleqf.o
       460         56          0          0          0        120   dsqrt_noumaal.o
        86          4          0          0          0         84   f2d.o
       430          8          0          0          0        168   faddsub_clz.o
        12          4          0          0          0         68   fcheck1.o
       388         76          0          0          0         96   fdiv.o
        48          0          0          0          0         68   fflt_clz.o
       258          4          0          0          0         84   fmul.o
       140          4          0          0          0         84   fnaninf.o
        10          0          0          0          0         68   fretinf.o
         4          0          0          0          0         68   printf1.o
       100          0          0          0          0         68   retnan.o
        92          0          0          0          0         68   scalbn.o
        76          0          0          0          0         68   scalbnf.o
        48          0          0          0          0         68   trapv.o
         0          0          0          0          0          0   usenofp.o
       220         16          0          0          0         84   ceil.o
        40          0          0          0          0         68   fpclassify.o
        76          0          0          0          0         84   sqrt.o

    ----------------------------------------------------------------------
     10876        586        233          0        100       6556   Library Totals
        22          0          0          0          4          0   (incl. Padding)

    ----------------------------------------------------------------------

      Code (inc. data)   RO Data    RW Data    ZI Data      Debug   Library Name

      5518        222        233          0         96       3504   c_w.l
      5000        348          0          0          0       2816   fz_ws.l
       336         16          0          0          0        236   m_ws.l

    ----------------------------------------------------------------------
     10876        586        233          0        100       6556   Library Totals

    ----------------------------------------------------------------------

==============================================================================


      Code (inc. data)   RO Data    RW Data    ZI Data      Debug   

     46884       2354       2020        576       8112     627098   Grand Totals
     46884       2354       2020        252       8112     627098   ELF Image Totals (compressed)
     46884       2354       2020        252          0          0   ROM Totals

==============================================================================

    Total RO  Size (Code + RO Data)                48904 (  47.76kB)
    Total RW  Size (RW Data + ZI Data)              8688 (   8.48kB)
    Total ROM Size (Code + RO Data + RW Data)      49156 (  48.00kB)

==============================================================================

